:06000000020069020B4240
:03000B00020B6382
:03001300020B4499
:03001B00020B864F
:03002300020C9B31
:03002B00020B883D
:03003300020B8A33
:03003B00020C9C18
:03004300020100B7
:03004B00020B4362
:03005300020100A7
:03005B00020B4550
:03006300020B4647
:0900C200750800750905020066CD
:030066000206F19E
:2001C400AD82AE83AFF074032DFDE43EFE7C007B20EB60328B011BE954076002800F8D82DC
:2001E4008E838FF0120CA0FC1DBDFF011EEC30E70575800480037580004380027580008CFA
:2002040002EA2AFC80CB758001758000227F007C007D3E7E007B00C3EB6480949F50158C0B
:20022400828D838EF0120CA0FAA3AC82AD83EA62070B80E38F8222E508600790E6A074011E
:20024400F0227508012290E6B8E0FFE4BF400104FE601890E6B9E0FDBDB01090E6BAE0F5EF
:200264000975080090E6A07480F022E4BFC00104FD7006EE70030203BC90E6B9E0FCBCA272
:20028400028008BCA90280030203BCEF235401F50A90E6BAE0F50BA3E0F50C90E6BEE0F522
:2002A4000DA3E0F50EBCA9028022AB0BAC0CC374FF9BE49C4016E50D250BFBE50E350CFC3C
:2002C400C374FF9BE49C40047C0080027C01ECF50F600678517B00800478507B008810759C
:2002E4000800E50D450E70030203BBA80DAB0EC3E89440EB94005002800478407B00E50A16
:20030400604990E6A0E020E1F97523407524E77525008826752700850B21850C22850F28E4
:20032400851082120751E582700990E6A07401F00203BB90E6B57401F090E68AE4F090E643
:200344008BE8F090E6A07480F0804A90E6B57401F090E68AE4F090E68BF090E6A07480F023
:2003640090E6A0E020E1F9752D40752EE7752F008830753100850B2B850C2C850F3285094F
:20038400337534A68510821207CCE582700790E6A07401F0227B00AA0DAC0EEAC398FAEC49
:2003A4009BFC8A0D8C0EA90BAA0CE829F8EB3AFB880B8B0C0202E622ED7006EE70030204DE
:2003C400A590E6B9E0FCBCA30280030204A5EF235401F51190E6BAE0F512A3E0F51390E655
:2003E400BEE0F9A3E0FA750800E94A70030204A489008A07C3E89440EF94005002800478AE
:20040400407F00E511603C90E6A0E020E1F9851246851347884875490090E740C002C00113
:20042400C000120930D000D001D00290E6B57401F090E68AE4F090E68BE8F090E6A07480F3
:20044400F0803B90E6B57401F090E68AE4F090E68BF090E6A07480F090E6A0E020E1F98529
:2004640012828513837546407547E789488A49C002C001C000120930D000D001D0027F0007
:2004840089038A04EBC398FBEC9FFC8B018C02AB12AC13E82BF8EF3CFF88128F130203ED7D
:2004A40022ED603090E6B9E0FFBFA62890E6A0E020E1F990E60AE090E740F090E6B5740167
:2004C400F090E68AE4F090E68B04F090E6A003F075080022EE604490E6B9E0FFBFA83C90E4
:2004E400E6A0E020E1F990E6B57401F090E68AE4F090E68BF090E6A07480F0900001120C9A
:200504007590E680E043E008F090000A120C7590E680E053E0F7F075080022EE700302054D
:20052400A490E6B9E0FFBFDD0280030205A475080090E6B57401F090E68AE4F090E68BF067
:2005440090E6A07480F090E6A0E020E1F990E68BE0FFBF0402800B90E68BE0FFBF05028057
:20056400012290E740E05407FF24FA5001227C00EF2FFFEC33FCEF2FFFEC33FCEF2400FFD4
:20058400EC343EFC8F828C837546407547E775480475490012093090E74075F0000201C492
:2005A400EE700302062C90E6B9E0FFBFDE02800302062C75080090E6B57401F090E68AE44D
:2005C400F090E68BF090E6A07480F090E6A0E020E1F990E6BAE0FEA3E04E6011903E1EEE22
:2005E400F0120211AF82903E1FEFF0800C754620754700903E00120B65752D00752E3E757A
:200604002F00752BE0752C1F7530207531007532017533057534A67582511207CCE5827054
:200624000690E6A07401F022ED603090E6B9E0FFBFDF2890E6A0E020E1F9E590540190E791
:2006440040F090E6B57401F090E68AE4F090E68B04F090E6A003F07508002290E6A07401DA
:20066400F02275B20775800022903E1FE0FFC007120211AE82D007EFB506327F05EF20E70A
:200684002CEFFD3395E0FEED2DFDEE33FEED2DFDEE33FEED2400FDEE343EFE7C008D828EA7
:2006A400838CF0C0071201C4D0071F80D02275230075243E7525007521E075221F75262041
:2006C400752700752801758251120751E5826019903E1FE0FFC007120211AE82D007EFB5E7
:2006E4000607903E1EE0F58222758200227F0090E6007412F0C0071206661206B2AE82D0F1
:2007040007BE01047FC8800ABE0207C00712066DD007758201C007120CBCD00790E687E003
:20072400600F7F00E50860F4C00712024AD00780EBEF60E81FEF600C90000AC007120C757A
:0D074400D00780D8C00712066DD00780CF07
:20140A0012010002FFFFFF4056040DB43600010200010904000000FFFFFF00090200000105
:20142A00010080641C140000251438144714414E414C4F47204445564943455300455641FC
:0A144A004C2D414446343335310087
:0A1458000A140000013214023414DB
:20075100C007C006C005AF82E528600AAE228E29AE218E2A8004AE218E29EF2FFFF58212D0
:200771000994E5826048E528FD3395E0FE0DBD00010E8D158E1690002975F0401209C8E5C7
:2007910082602B74014FF582120994E582601F8526178527188523828524838525F0120AD9
:2007B1003FE5827004F582800B75820180061209AC758200D005D006D00722C007C006C0DF
:2007D10005C004C003C002C001C000AF82E4F535F536EF2FFFF582120994E58270030209A7
:2007F1000AAC338CF005F07B017C008006EB2BFBEC33FCD5F0F7C3E5359530E53695314065
:200811000302090AE532600AAA2C8A37AA2B8A388004AA2B8A37E532FA3395E0FE0ABA006B
:20083100010E8A158E1690003775F0401209C8E582700302090AC007852B82852C838B055A
:200851008C068D468E47C006C005C004C003C001C000120B8CAA82AF83D000D001D003D06F
:2008710004D005D006EDC39AFDEE9FFE8D398E3AE530C39535FEE5319536FFC3EE9539EF6A
:20089100953AD007500DE530C39535F539E5319536F53AE535252DFAE536352EFDAE2F8521
:2008B1003915853A168A828D838EF01209C8E58260471209ACE5827004F58280517E00E52C
:2008D100346006C3EE9534500C8F82120994E58270030E80EAEEB534057582008030E539E4
:2008F100252BF52BE53A352CF52CE5392535F535E53A3536F5360208071209ACE530B535A8
:1F09110008E531B53603D38001C3E433F582D000D001D002D003D004D005D006D0072258
:20093000AA82AB83AC46AD47AE48AF49EE60010FEF601775AF078A9B8B9A8C9E8D9D90E676
:0B0950007CE090E67BF0DEF6DFF42296
:20095B00C007AF8290E678E020E00CE51460F5751400758200801F90E678E030E205758261
:20097B00008013EF600D90E678E0FFA2E1E433F5828003758201D00722C007AF8290E67835
:20099B007480F090E679EFF075820112095BD0072290E678E030E2047582002290E67874C4
:2009BB0040F090E678E020E6F975820122C007C006C005C004C003C002C001C000AD82AE0C
:2009DB0083AFF0E5154516700575820180457B007C00EBB51506ECB516028027EB2DF8EC45
:2009FB003EF98F02888289838AF0120CA0F890E679F075820112095BE58260070BBB00D21B
:200A1B000C80CFEBB51507ECB51603D38001C3E433F582D000D001D002D003D004D005D086
:200A3B0006D00722C007C006C005C004C003C002C001C00085821985831A85F01BE517456D
:200A5B00187006758201020B31AB17AC18BB0109BC000690E6787420F090E679E07B007C72
:200A7B000079007A00E9B51707EAB51803020B0E75820012095BE5827003020B2189008A4F
:200A9B0007740228F8E43FFFE8B5170AEFB5180690E6787420F089068A070EBE00010FEEA0
:200ABB00B5172CEFB5182875AF03759AE6759B7890E67B7440F0E0AFE0E92519F8EA351A3F
:200ADB00FDAE1B88828D838EF0EF120B478018E92519FDEA351AFEAF1B90E679E0F88D82B7
:200AFB008E838FF0120B4709B900010A89038A04020A8090E678E030E20575820080179071
:200B1B00E678E020E6F9EBB51707ECB51803D38001C3E433F582D000D001D002D003D00444
:070B3B00D005D006D007220F
:06009800E478FFF6D8FD3C
:010B42003280
:010B4300327F
:010B4400327E
:20007600790AE94400601B7A01901458782075923EE493F2A308B800020592D9F4DAF27578
:0200960092FFD7
:010B4500327D
:010B4600327C
:03010000020D6588
:03010400020C9D4D
:03010800020BDD0A
:03010C00020C9949
:03011000020C9F3F
:0301140002138053
:03011800020BDAFD
:03011C000201B825
:03012000020BE4EB
:0301240002137E45
:03012800020BE5E2
:03012C0002137F3C
:030130000213AB0C
:03013400020B6259
:03013800020B6453
:03013C00020B892A
:03014000020BE1CE
:030144000201B8FD
:0301480002137827
:03014C0002137922
:0301500002137A1D
:0301540002137B18
:0301580002137C13
:03015C0002137D0E
:03016000020C9EF0
:030164000201B8DD
:030168000201B8D9
:03016C000201B8D5
:03017000020BE39C
:03017400020BE695
:03017800020BE88F
:03017C00020BEA89
:03018000020BE788
:03018400020BE982
:03018800020BEB7C
:03018C00020C9AC8
:03019000020B8BD4
:03019400020BDB80
:03019800020BDE79
:03019C00020BE073
:0301A000020BD976
:0301A400020BDC6F
:0301A800020BDF68
:0301AC00020BE261
:0301B000020B87B8
:0301B40002139E95
:0101B8003214
:1B0B470020F71130F6138883A88220F509F6A8837583002280FEF280F5F022AD
:010B62003260
:010B6300325F
:010B6400325E
:200B6500AA82AB83AC46AD47EC60010DED601175AF038A9B8B9A90E67B7400F0DCFDDDFB01
:010B8500224D
:010B8600323C
:010B8700323B
:010B8800323A
:010B89003239
:010B8A003238
:010B8B003237
:200B8C00E546454760467A01E54625E0F546E547334012F547E5829546E583954740030A46
:200BAC0080E6C3E54713F547E54613F546C3E5829546F5F0E58395474005F58385F082C367
:0D0BCC00E54713F547E54613F546DAE1224B
:010BD90032E9
:20009E007800E84400600A790075923EE4F309D8FC7820E84400600C7901903E00E4F0A3D3
:0400BE00D8FCD9FA97
:010BDA0032E8
:010BDB0032E7
:010BDC0032E6
:010BDD0032E5
:010BDE0032E4
:010BDF0032E3
:010BE00032E2
:010BE10032E1
:010BE20032E0
:010BE30032DF
:010BE40032DE
:010BE50032DD
:010BE60032DC
:010BE70032DB
:010BE80032DA
:010BE90032D9
:010BEA0032D8
:010BEB0032D7
:200BEC00E583700BE58224FA400122B4001122E5826003D5E0FD0075E0FED583F674F9D5D8
:200C0C00E0FD22C007C006C001C000AE82AF83EE2EF8EF33F9EE28FEEF39FF90E600E0F8A1
:200C2C00794C20E416C3EF13CE13CEFF795AE820E309C3EF13CE13CEFF7963E58124FAF8C4
:200C4C00E926C313C313F9C3EE99F582EF9400F583D000D001D006D007500122020BEC74EA
:200C6C0011C0E0120C0F158122C007C006AE82AF837411C0E0EE4F600D1EBEFF011F900386
:0D0C8C00E8120C0F80EF1581D006D0072272
:010C99003228
:010C9A003227
:010C9B003226
:010C9C003225
:010C9D003224
:010C9E003223
:010C9F003222
:0D00690075815112139AE582600302006652
:1C0CA00020F71430F6148883A88220F507E6A88375830022E280F7E49322E02263
:200CBC00AF82753C00753D00D2E890E668E043E008F090E65CE043E001F090E65D7401F0F3
:200CDC00D2AF90E680E020E10890E680E043E002F0EF600E90E680E043E008F090000A12B3
:200CFC000C7590E680E053E0F7F022AF82BF00028037BF01028036BF02028039BF04028063
:200D1C0038BF06028037BF08028036BF80028019BF8102801CBF8202801BBF8402801ABF4E
:200D3C0086028019BF881E801890E6A02290E6A12290E6A22290E6A32290E6A42290E6A53C
:200D5C002290E6A62290000022C020C0E0C0F0C082C083C007C006C005C004C003C002C055
:200D7C0001C000C0D075D000C08675860090E6B8E0FFE4BF800104FE601990E6B9E0FDBD0B
:200D9C00061190E6BAE0FCA3E0F5828C1D12139F020FD6EF702790E6B9E0FDBD091F90E6D9
:200DBC00BAE0F5821213ECE582600990E6A07480F0020FD690E6A07401F0020FD6EE600E86
:200DDC0090E6B9E0FDBD08061213D0020FD68F05BD012E90E6B9E0FDBD0B2690E6BCE0FDBB
:200DFC0090E6BAE0F51C8D82121381E582600990E6A07480F0020FD690E6A07401F0020FC4
:200E1C00D6E4BF810104FD601490E6B9E0FCBC0A0C90E6BCE0F5821213B6020FD6EF703689
:200E3C0090E6B9E0FCBC032E90E6BAE0FBA3E0FCBB010FBC000C753C0190E6A07480F002D3
:200E5C000FD6BB0205BC00028003020FD690E6A07480F0020FD6EE603290E6B9E0702CAEED
:200E7C003BE53C25E0FC420690E740EEF090E741E4F090E6B504F090E68AE4F090E68B7428
:200E9C0002F090E6A07480F0020FD6ED602890E6B9E0702290E740E4F090E741F090E6B5EF
:200EBC0004F090E68AE4F090E68B7402F090E6A07480F0020FD6BF02028003020F8190E6B8
:200EDC00B9E0FEBE03028008BE01028003020F8190E6BAE0FDA3E0FE4D6003020FD690E6A3
:200EFC00BCE0F582120D07AD82AE83ED4E7003020FD690E6B9E0FCBC03188D828E83E0FCCA
:200F1C004304018D828E83ECF090E6A07480F0020FD690E6BCE0F582C006C0051213ACE5C6
:200F3C0082D005D0067003020FD68D828E83E0FC5304FE8D828E83ECF090E6BCE0FDA3E02F
:200F5C008D0453040F530580E4C423CDC423541F6DCD541FCD6DCDFE90E683ED4CF0E043BD
:200F7C00E020F08055BF824C90E6B9E0704690E6BCE0F582120D07AE82AF83EE4F603B8EC7
:200F9C00828F83E0FE5306017F00EE4FB40100B3E433FF90E740F090E741E4F090E6B504CD
:200FBC00F090E68AE4F090E68B7402F090E6A07480F0800690E6B812023B5391EF90E65D47
:200FDC007401F0D086D0D0D000D001D002D003D004D005D006D007D083D082D0F0D0E0D019
:200FFC002032AE82AF837401B54228E54370248E828F83E493FCA3E493FD8C468D478C8271
:20101C008D83E493FC8C4875490090E0001209300212467406B54238E54370348E828F83F3
:20103C00A3A3E493FCA3E493FD4C700790E6A07401F0228C028D038A468B478C828D83E4A2
:20105C0093FC8C4875490090E0001209300212467402B5420280030211728E828F83A3A35F
:20107C00A3A3E493FDC3E5439D40030211728E828F83A3A3A3A3A3E493FCA3E493FDE54347
:20109C0075F002A42CF582ED35F0F583E493FCA3E493FD74092CFAE43DFB8C008D018846CB
:2010BC0089478C828D83E493F9894875490090E000C005C004C003C002120930D002D003B9
:2010DC00D004D0058C828D83E4932400FCE434E0FD8C448D458A828B83E493F8A3E493F963
:2010FC008846894788828983E493F88848754900854482854583C005C004C003C002120962
:20111C0030D002D003D004D0058A828B83E493F8A3E493F988828983E4932CFCE43DFD7452
:20113C00022AFAE43BFB8A828B83E493F8A3E493F948709D90E002E0FAA3E0FB4A600302E9
:20115C001246ECC39400FCED94E0FD90E002ECF0EDA3F00212467403B5420474018001E40A
:20117C00FD601EE543701A754654754714901454E493FC8C4875490090E00012093002127B
:20119C0046ED700302123FAC437D00EC24FFFAED34FFFB74072EF582E43FF583E493F87907
:2011BC0000C3EA98EB648089F063F08095F0507374082EF582E43FF583E493FEA3E493FF21
:2011DC001CBCFF011DEC2CFCED33FDEC2EF582ED3FF583E493FEA3E493FF90E0007402F034
:2011FC0090E00104F074012401FCE434E0FD8E828F83E493FB60330EBE00010F8C828D83C2
:20121C00EBF074012CFAE43DFB8A828B83E4F0042AFCE43BFD90E000E0FB0B0B90E000EB30
:20123C00F080CB90E6A07401F0227E007FE090E6B57401F090E6B3EFF090E6B4EEF090E6C7
:20125C00A07480F022AE82AF83A3A3A3A3A3E493F550A3E493F55174042EFEE43FFF75489C
:20127C00008E828F83E493FAC3E5489A400122E54875F002A42550F582E55135F0F583E4F7
:20129C0093F549A3E493F54A74092549F54BE4354AF54C7900854982854A83A3A3A3A3A3EF
:2012BC00E493FAB53D028003021373A84BAA4C88828A83E493FBA3E493FD8B828D83A3E475
:2012DC0093F54D7404B54D3588828A83E493F54EA3E493F54F854E82854F83A3A3E493B521
:2012FC004611854E82854F83A3A3A3E493FBB5470280047B0080027B018B0180427405B5FD
:20131C004D3DE9603A88828A83E493FBA3E493FD8B828D83A3A3E493FD740F5DFC53058079
:20133C00E423CDC423541F6DCD541FCD6DCD30E40244E0FB90E683ED4CF0E043E020F074D1
:1C135C000228F8E43AFA88828A83E493FBA3E493FD4B60030212CB054802127D30
:041454000403090480
:011378003242
:011379003241
:01137A003240
:01137B00323F
:01137C00323E
:01137D00323D
:01137E00323C
:01137F00323B
:01138000323A
:19138100AF82E51C700F8F46851C47903E2012126175820122758200223F
:04139A007582002236
:01139E00321C
:0C139F00858242851D43903E20020FFE17
:0113AB00320F
:0A13AC0090E6A07480F07582012223
:1A13B60090E740E4F090E6B504F090E68AE4F090E68B04F090E6A003F0227F
:1C13D00090E740E53DF090E6B57401F090E68AE4F090E68B04F090E6A003F022B4
:1E13EC00E582FF6003BF01128F3D7546FF7547FF903E20121261758201227582002261
:00000001FF
