:06000000020069020B5032
:03000B00020B7174
:03001300020B528B
:03001B00020B9441
:03002300020CA923
:03002B00020B962F
:03003300020B9825
:03003B00020CAA0A
:03004300020100B7
:03004B00020B5154
:03005300020100A7
:03005B00020B5342
:03006300020B5439
:0900C200750800750905020066CD
:030066000206FF90
:2001C400AD82AE83AFF074032DFDE43EFE7C007B20EB60301BEB54076002800F8D828E8357
:2001E4008FF0120CAEFC1DBDFF011EEC30E70575800480037580004380027580008C02EA11
:200204002AFC80CD758001758000227F007C007D3E7E007B00C3EB6480949F50158C828DE6
:20022400838EF0120CAEFAA3AC82AD83EA62070B80E38F8222E508600A90E6A07401F074B8
:2002440081F0227508012290E6B8E0FFE4BF400104FE601890E6B9E0FDBDB01090E6BAE063
:20026400F50975080090E6A07480F022E4BFC00104FD7006EE70030203C490E6B9E0FCBC17
:20028400A2028008BCA90280030203C4EF235401F50A90E6BAE0F50BA3E0F50C90E6BEE06D
:2002A400F50DA3E0F50EBCA9028023AB0BAC0CC374FF9BE49C4017E50D250BFBE50E350C41
:2002C400FCC374FF9BE49C4005750F008003750F01E50F600678517B00800478507B00880F
:2002E40010750800E50D450E70030203C3A80DAB0EC3E89440EB94005002800478407B0078
:20030400E50A604C90E6A0E020E1F97524407525E77526008827752800850B22850C238522
:200324000F2985108212075FE582700C90E6A07401F07481F00203C390E6B57401F090E6E1
:200344008AE4F090E68BE8F090E6A07480F0804D90E6B57401F090E68AE4F090E68BF090B6
:20036400E6A07480F090E6A0E020E1F9752E40752FE77530008831753200850B2C850C2D32
:20038400850F338509347535A68510821207DAE582700A90E6A07401F07481F0227B00AAEE
:2003A4000DAC0EEAC398FAEC9BFC8A0D8C0EA90BAA0CE829F8EB3AFB880B8B0C0202E822B4
:2003C400ED7006EE70030204AD90E6B9E0FCBCA30280030204ADEF235401F51190E6BAE083
:2003E400F512A3E0F51390E6BEE0F9A3E0FA750800E94A70030204AC89008A07C3E894406F
:20040400EF94005002800478407F00E511603C90E6A0E020E1F98512438513448845754688
:200424000090E740C002C001C00012093ED000D001D00290E6B57401F090E68AE4F090E618
:200444008BE8F090E6A07480F0803B90E6B57401F090E68AE4F090E68BF090E6A07480F031
:2004640090E6A0E020E1F98512828513837543407544E789458A46C002C001C00012093E82
:20048400D000D001D0027F0089038A04EBC398FBEC9FFC8B018C02AB12AC13E82BF8EF3CB8
:2004A400FF88128F130203F522ED603090E6B9E0FFBFA62890E6A0E020E1F990E60AE090E9
:2004C400E740F090E6B57401F090E68AE4F090E68B04F090E6A003F075080022EE604490DE
:2004E400E6B9E0FFBFA83C90E6A0E020E1F990E6B57401F090E68AE4F090E68BF090E6A07C
:200504007480F0900001120C8390E680E043E008F090000A120C8390E680E053E0F7F07530
:20052400080022EE70030205AC90E6B9E0FFBFDD0280030205AC75080090E6B57401F090FA
:20054400E68AE4F090E68BF090E6A07480F090E6A0E020E1F990E68BE0FFBF0402800B90B8
:20056400E68BE0FFBF050280012290E740E05407FF24FA5001227C00EF2FFFEC33FCEF2F6A
:20058400FFEC33FCEF2400FFEC343EFC8F828C837543407544E775450475460012093E90B7
:2005A400E74075F0000201C4EE700302063790E6B9E0FFBFDE02800302063775080090E6E2
:2005C400B57401F090E68AE4F090E68BF090E6A07480F090E6A0E020E1F990E6BAE0FEA39D
:2005E400E04E6011903E1EEEF012020FAF82903E1FEFF0800C754320754400903E00120B66
:2006040073752E00752F3E753000752CE0752D1F7531207532007533017534057535A6756E
:2006240082511207DAE582700990E6A07401F07481F022ED603090E6B9E0FFBFDF2890E6C7
:20064400A0E020E1F9E590540190E740F090E6B57401F090E68AE4F090E68B04F090E6A03C
:2006640003F07508002290E6A07401F07481F02275B20775800022903E1FE0FFC007120276
:200684000FAE82D007EFB506327F05EF20E72CEFFD3395E0FEED2DFDEE33FEED2DFDEE33BE
:2006A400FEED2400FDEE343EFE7C008D828E838CF0C0071201C4D0071F80D02275240075A0
:2006C400253E7526007522E075231F75272075280075290175825112075FE5826019903E84
:2006E4001FE0FFC00712020FAE82D007EFB50607903E1EE0F58222758200227F0090E600E3
:200704007412F0C0071206741206C0AE82D007BE01047FC8800ABE0207C00712067BD007A1
:20072400758201C007120CCAD00790E687E0600F7F00E50860F4C00712024BD00780EBEFD4
:1B07440060E81FEF600C90000AC007120C83D00780D8C00712067BD00780CF27
:20142A0012010002FFFFFF4056040DB43600010200010904000000FFFFFF000902000001E5
:20144A00010080643C140000451458146714414E414C4F472044455649434553004556415C
:0A146A004C2D414446343335310067
:0A1478002A1400000152140254145B
:20075F00C007C006C005AF82E529600AAE238E2AAE228E2B8004AE228E2AEF2FFFF58212BB
:20077F0009A2E5826048E529FD3395E0FE0DBD00010E8D158E1690002A75F0401209D6E59B
:20079F0082602B74014FF5821209A2E582601F8527178528188524828525838526F0120AB8
:2007BF004DE5827004F582800B75820180061209BA758200D005D006D00722C007C006C0B5
:2007DF0005C004C003C002C001C000AF82E4F536F537EF2FFFF5821209A2E5827003020989
:2007FF0018AC348CF005F07B017C008006EB2BFBEC33FCD5F0F7C3E5369531E53795324044
:20081F0003020918E533600AAA2D8A38AA2C8A398004AA2C8A38E533FA3395E0FE0ABA0047
:20083F00010E8A158E1690003875F0401209D6E5827003020918C007852C82852D838B052D
:20085F008C068D438E44C006C005C004C003C001C000120B9AAA82AF83D000D001D003D059
:20087F0004D005D006EDC39AFDEE9FFE8D3A8E3BE531C39536FEE5329537FFC3EE953AEF55
:20089F00953BD007500DE531C39536F53AE5329537F53BE536252EFAE537352FFDAE308507
:2008BF003A15853B168A828D838EF01209D6E58260471209BAE5827004F58280517E00E500
:2008DF00356006C3EE9535500C8F821209A2E58270030E80EAEEB535057582008030E53AC4
:2008FF00252CF52CE53B352DF52DE53A2536F536E53B3537F5370208151209BAE531B53671
:1F091F0008E532B53703D38001C3E433F582D000D001D002D003D004D005D006D0072248
:20093E00AA82AB83AC43AD44AE45AF46EE60010FEF601775AF078A9B8B9A8C9E8D9D90E674
:0B095E007CE090E67BF0DEF6DFF42288
:20096900C007AF8290E678E020E00CE51460F5751400758200801F90E678E030E205758253
:20098900008013EF600D90E678E0FFA2E1E433F5828003758201D00722C007AF8290E67827
:2009A9007480F090E679EFF0758201120969D0072290E678E030E2047582002290E67874A8
:2009C90040F090E678E020E6F975820122C007C006C005C004C003C002C001C000AD82AEFE
:2009E90083AFF0E5154516700575820180457B007C00EBB51506ECB516028027EB2DF8EC37
:200A09003EF98F02888289838AF0120CAEF890E679F0758201120969E58260070BBB00D2F0
:200A29000C80CFEBB51507ECB51603D38001C3E433F582D000D001D002D003D004D005D078
:200A490006D00722C007C006C005C004C003C002C001C00085821985831A85F01BE517455F
:200A6900187006758201020B3FAB17AC18BB0109BC000690E6787420F090E679E07B007C56
:200A89000079007A00E9B51707EAB51803020B1C758200120969E5827003020B2F89008A17
:200AA90007740228F8E43FFFE8B5170AEFB5180690E6787420F089068A070EBE00010FEE92
:200AC900B5172CEFB5182875AF03759AE6759B7890E67B7440F0E0AFE0E92519F8EA351A31
:200AE900FDAE1B88828D838EF0EF120B558018E92519FDEA351AFEAF1B90E679E0F88D829B
:200B09008E838FF0120B5509B900010A89038A04020A8E90E678E030E20575820080179046
:200B2900E678E020E6F9EBB51707ECB51803D38001C3E433F582D000D001D002D003D00436
:070B4900D005D006D0072201
:06009800E478FFF6D8FD3C
:010B50003272
:010B51003271
:010B52003270
:20007600790AE94400601B7A01901478782075923EE493F2A308B800020592D9F4DAF27558
:0200960092FFD7
:010B5300326F
:010B5400326E
:03010000020D737A
:03010400020CAB3F
:03010800020BEBFC
:03010C00020CA73B
:03011000020CAD31
:030114000213A033
:03011800020BE8EF
:03011C000201B825
:03012000020BF2DD
:0301240002139E25
:03012800020BF3D4
:03012C0002139F1C
:030130000213CBEC
:03013400020B704B
:03013800020B7245
:03013C00020B971C
:03014000020BEFC0
:030144000201B8FD
:0301480002139807
:03014C0002139902
:0301500002139AFD
:0301540002139BF8
:0301580002139CF3
:03015C0002139DEE
:03016000020CACE2
:030164000201B8DD
:030168000201B8D9
:03016C000201B8D5
:03017000020BF18E
:03017400020BF487
:03017800020BF681
:03017C00020BF87B
:03018000020BF57A
:03018400020BF774
:03018800020BF96E
:03018C00020CA8BA
:03019000020B99C6
:03019400020BE972
:03019800020BEC6B
:03019C00020BEE65
:0301A000020BE768
:0301A400020BEA61
:0301A800020BED5A
:0301AC00020BF053
:0301B000020B95AA
:0301B4000213BE75
:0101B8003214
:1B0B550020F71130F6138883A88220F509F6A8837583002280FEF280F5F0229F
:010B70003252
:010B71003251
:010B72003250
:200B7300AA82AB83AC43AD44EC60010DED601175AF038A9B8B9A90E67B7400F0DCFDDDFBF9
:010B9300223F
:010B9400322E
:010B9500322D
:010B9600322C
:010B9700322B
:010B9800322A
:010B99003229
:200B9A00E543454460467A01E54325E0F543E544334012F544E5829543E583954440030A50
:200BBA0080E6C3E54413F544E54313F543C3E5829543F5F0E58395444005F58385F082C36B
:0D0BDA00E54413F544E54313F543DAE12249
:010BE70032DB
:20009E007800E84400600A790075923EE4F309D8FC7820E84400600C7901903E00E4F0A3D3
:0400BE00D8FCD9FA97
:010BE80032DA
:010BE90032D9
:010BEA0032D8
:010BEB0032D7
:010BEC0032D6
:010BED0032D5
:010BEE0032D4
:010BEF0032D3
:010BF00032D2
:010BF10032D1
:010BF20032D0
:010BF30032CF
:010BF40032CE
:010BF50032CD
:010BF60032CC
:010BF70032CB
:010BF80032CA
:010BF90032C9
:200BFA00E583700BE58224FA400122B4001122E5826003D5E0FD0075E0FED583F674F9D5CA
:200C1A00E0FD22C007C006C001C000AE82AF83EE2EF8EF33F9EE28FEEF39FF90E600E0F893
:200C3A00794C20E416C3EF13CE13CEFF795AE820E309C3EF13CE13CEFF7963E58124FAF8B6
:200C5A00E926C313C313F9C3EE99F582EF9400F583D000D001D006D007500122020BFA74CE
:200C7A0011C0E0120C1D158122C007C006AE82AF837411C0E0EE4F600D1EBEFF011F90036A
:0D0C9A00E8120C1D80EF1581D006D0072256
:010CA700321A
:010CA8003219
:010CA9003218
:010CAA003217
:010CAB003216
:010CAC003215
:010CAD003214
:0D00690075814B1213BAE582600302006638
:1C0CAE0020F71430F6148883A88220F507E6A88375830022E280F7E49322E02255
:200CCA00AF82753D00753E00D2E890E668E043E008F090E65CE043E001F090E65D7401F0E3
:200CEA00D2AF90E680E020E10890E680E043E002F0EF600E90E680E043E008F090000A12A5
:200D0A000C8390E680E053E0F7F022AF82BF00028037BF01028036BF02028039BF04028046
:200D2A0038BF06028037BF08028036BF80028019BF8102801CBF8202801BBF8402801ABF40
:200D4A0086028019BF881E801890E6A02290E6A12290E6A22290E6A32290E6A42290E6A52E
:200D6A002290E6A62290000022C021C0E0C0F0C082C083C007C006C005C004C003C002C046
:200D8A0001C000C0D075D000C08675860090E6B8E0FFE4BF800104FE601990E6B9E0FDBDFD
:200DAA00061190E6BAE0FCA3E0F5828C1D1213BF020FF0EF702A90E6B9E0FDBD092290E68B
:200DCA00BAE0F58212140CE582600990E6A07480F0020FF090E6A07401F07481F0020FF09A
:200DEA00EE600E90E6B9E0FDBD08061213F0020FF08F05BD013190E6B9E0FDBD0B2990E6AA
:200E0A00BCE0FD90E6BAE0F51C8D821213A1E582600990E6A07480F0020FF090E6A07401E3
:200E2A00F07481F0020FF0E4BF810104FD601490E6B9E0FCBC0A0C90E6BCE0F5821213D6D7
:200E4A00020FF0EF703690E6B9E0FCBC032E90E6BAE0FBA3E0FCBB010FBC000C753D01909A
:200E6A00E6A07480F0020FF0BB0205BC00028003020FF090E6A07480F0020FF0EE603290EE
:200E8A00E6B9E0702CAE3CE53D25E0FC420690E740EEF090E741E4F090E6B504F090E68A98
:200EAA00E4F090E68B7402F090E6A07480F0020FF0ED602890E6B9E0702290E740E4F090C1
:200ECA00E741F090E6B504F090E68AE4F090E68B7402F090E6A07480F0020FF0BF02028058
:200EEA0003020F9590E6B9E0FEBE03028008BE01028003020F9590E6BAE0FDA3E0FE4D60C2
:200F0A0003020FF090E6BCE0F582120D15AD82AE83ED4E7003020FF090E6B9E0FCBC031815
:200F2A008D828E83E0FC4304018D828E83ECF090E6A07480F0020FF090E6BCE0F582C0061D
:200F4A00C0051213CCE582D005D0067003020FF08D828E83E0FC5304FE8D828E83ECF0906E
:200F6A00E6BCE0FDA3E08D0453040F530580E4C423CDC423541F6DCD541FCD6DCDFE90E67C
:200F8A0083ED4CF0E043E020F0805BBF825290E6B9E0704C90E6BCE0F582120D15AE82AFB3
:200FAA00838E048F05EE4F603D8C828D83E0FC5304017F00EC4FB40100B39200E433FF90F8
:200FCA00E740F090E741E4F090E6B504F090E68AE4F090E68B7402F090E6A07480F080068A
:200FEA0090E6B81202395391EF90E65D7401F0D086D0D0D000D001D002D003D004D005D0AC
:20100A0006D007D083D082D0F0D0E0D02132AE82AF837401B53F28E54070248E828F83E4FF
:20102A0093FCA3E493FD8C438D448C828D83E493FC8C4575460090E00012093E021266748C
:20104A0006B53F3BE54070378E828F83A3A3E493FCA3E493FD4C700A90E6A07401F074815D
:20106A00F0228C028D038A438B448C828D83E493FC8C4575460090E00012093E02126674C6
:20108A0002B53F02800302118F8E828F83A3A3A3A3E493FDC3E5409D400302118F8E828FFE
:2010AA0083A3A3A3A3A3E493FCA3E493FDE54075F002A42CF582ED35F0F583E493FCA3E493
:2010CA0093FD74092CFAE43DFB8C008D01884389448C828D83E493F9894575460090E0007E
:2010EA00C005C004C003C00212093ED002D003D004D0058C828D83E4932400FCE434E0FD87
:20110A008C418D428A828B83E493F8A3E493F98843894488828983E493F888457546008563
:20112A004182854283C005C004C003C00212093ED002D003D004D0058A828B83E493F8A3B7
:20114A00E493F988828983E4932CFCE43DFD74022AFAE43BFB8A828B83E493F8A3E493F9F2
:20116A0048709D90E002E0FAA3E0FB4A6003021266ECC39400FCED94E0FD90E002ECF0ED47
:20118A00A3F00212667403B53F0474018001E4FD601EE540701A754374754414901474E4D0
:2011AA0093FC8C4575460090E00012093E021266ED700302125CAC407D00EC24FFFAED3464
:2011CA00FFFB74072EF582E43FF583E493F87900C3EA98EB648089F063F08095F05073744C
:2011EA00082EF582E43FF583E493FEA3E493FF1CBCFF011DEC2CFCED33FDEC2EF582ED3F2C
:20120A00F583E493FEA3E493FF90E0007402F090E00104F074012401FCE434E0FD8E828F59
:20122A0083E493FB60360EBE00010F8C828D83EBF074012CFAE43DFB8A828B83E4F0042A71
:20124A00FCE43BFD90E000E0FB0B0B90E000EBF080CB90E6A07401F07481F0227E007FE016
:20126A0090E6B57401F090E6B3EFF090E6B4EEF090E6A07480F022AE82AF83A3A3A3A3A317
:20128A00E493FCA3E493FD74042EFEE43FFF7545008E828F83E493FAC3E5459A400122E5D8
:2012AA004575F002A42CF582ED35F0F583E493F546A3E493F54774092546F8E43547FA75F0
:2012CA004900854682854783A3A3A3A3A3E493F9B53E028003021393880189828A83E49348
:2012EA00F8A3E493FB88828B83A3E493FBBB043989828A83E493F54AA3E493F54B854A8239
:20130A00854B83A3A3E493F8B54311854A82854B83A3A3A3E493F8B54402800575480080F9
:20132A00037548018548498048BB0545E5496041C004C00589828A83E493F8A3E493FB8883
:20134A00828B83A3A3E493FB740F5BF8530380E423CBC423541F6BCB541FCB6BCB30E402A3
:20136A0044E090E683EB48F0E043E020F0D005D004740229F9E43AFA89828A83E493F8A38D
:0E138A00E493FB4860030212E4054502129B47
:041474000403090460
:011398003222
:011399003221
:01139A003220
:01139B00321F
:01139C00321E
:01139D00321D
:01139E00321C
:01139F00321B
:0113A000321A
:1913A100AF82E51C700F8F43851C44903E20121281758201227582002205
:0413BA007582002216
:0113BE0032FC
:0C13BF0085823F851D40903E20021018E2
:0113CB0032EF
:0A13CC0090E6A07480F07582012203
:1A13D60090E740E4F090E6B504F090E68AE4F090E68B04F090E6A003F0225F
:1C13F00090E740E53EF090E6B57401F090E68AE4F090E68B04F090E6A003F02293
:1E140C00E582FF6003BF01128F3E7543FF7544FF903E20121281758201227582002225
:00000001FF
