:0600000002006902081075
:03000B00020831B7
:03001300020812CE
:03001B0002085484
:030023000208BC14
:03002B0002085672
:0300330002085868
:03003B000208BDFB
:03004300020100B7
:03004B0002081197
:03005300020100A7
:03005B0002081385
:030063000208147C
:0600C20075080002006653
:030066000204048D
:2001C100AD82AE83AFF074032DFDE43EFE7C007B20EB60368B011BE954076002800F8D82DB
:2001E1008E838FF01208C1FC1DBDFF011EEC30E70679047A00800479007A0089808C02EAA7
:200201002AFC4380025380FD80C7438001758000227F007C007D3E7E007B00C3EB6480942B
:200221009850158C828D838EF01208C1FAA3AC82AD83EA62070B80E38F8222E50860079076
:20024100E6A07401F0227508012290E6B8E0FFE4BF400104FE70030202D190E6B9E0FDBDEC
:20026100DD6E75080090E6B57401F090E68AE4F090E68BF090E6A07480F090E6A0E020E16F
:20028100F990E68BE0FDBD0402800B90E68BE0FDBD050280012290E740E0FD5305077C0084
:2002A100ED2DFDEC33FCED2DFDEC33FCED2400FDEC343EFC8D828C83753B40753CE7753D19
:2002C10004753E0012041F90E74075F0000201C1EE700302035A90E6B9E0FEBEDE02800363
:2002E10002035A75080090E6B57401F090E68AE4F090E68BF090E6A07480F090E6A0E020BC
:20030100E1F990E6BAE0FDA3E04D600E753B20753C00903E001208338010903E1E74ECF04F
:20032100120212AE82903E1FEEF0752D00752E3E752F00752BE0752C1F7530207531007554
:2003410032017533207534A67582511204C5E582700690E6A07401F022BFC03090E6B9E0F7
:20036100FFBFE02890E6A0E020E1F9E5905401FF90E740F090E6B57401F090E68AE4F09062
:20038100E68B04F090E6A003F07508002275B2077580002275230075243E7525007521E08B
:2003A10075221F75262075270075280175825112044AE582604C903E1EE0FFBFEC44903E4E
:2003C1001FE0FFC007120212AE82D007EFB506327F05EF20E72CEFFD3395E0FEED2DFDEE11
:2003E10033FEED2DFDEE33FEED2400FDEE343EFE7C008D828E838CF0C0071201C1D0071F80
:1E04010080D02290E6007412F012038E1203957582011208DDE50860FC12024B80F724
:2010D80012010002FFFFFF4056040DB43300010203010904000000FFFFFF0009020000013B
:2010F80001008064EA100000F310081117112411414E414C4F472044455649434553004566
:1911180056414C2D41444634333531004558504552494D454E54414C0088
:0A113500D8100000010011030211A0
:20041F00AA82AB83AC3BAD3CAE3DAF3EEE60010FEF601775AF078A9B8B9A8C9E8D9D90E6B8
:0B043F007CE090E67BF0DEF6DFF422AC
:20044A00C007C006C005AF82E528600AAE228E29AE218E2A8004AE218E29EF2FFFF58212DA
:20046A000662E5826048E528FD3395E0FE0DBD00010E8D0A8E0B90002975F040120696E551
:20048A0082602B74014FF582120662E582601F85260C85270D8523828524838525F0120731
:2004AA000DE5827004F582800B758201800612067A758200D005D006D00722C007C006C050
:2004CA0005C004C003C002C001C000AF82E4F535F536EF2FFFF582120662E58270030206E9
:2004EA0003AC338CF005F07B017C008006EB2BFBEC33FCD5F0F7C3E5359530E53695314076
:20050A0003020603E532600AAA2C8A37AA2B8A388004AA2B8A37E532FA3395E0FE0ABA007F
:20052A00010E8A0A8E0B90003775F040120696E5827003020603C007852B82852C838B05B9
:20054A008C068D3B8E3CC006C005C004C003C001C00012085AAA82AF83D000D001D003D0C4
:20056A0004D005D006EDC39AFDEE9FFE8D398E3AE530C39535FEE5319536FFC3EE9539EF74
:20058A00953AD007500DE530C39535F539E5319536F53AE535252DFAE536352EFDAE2F852B
:2005AA00390A853A0B8A828D838EF0120696E582604712067AE5827004F58280517E00E5B6
:2005CA00346006C3EE9534500C8F82120662E58270030E80EAEEB534057582008030E53923
:2005EA00252BF52BE53A352CF52CE5392535F535E53A3536F53602050012067AE530B535F1
:1F060A0008E531B53603D38001C3E433F582D000D001D002D003D004D005D006D0072262
:20062900C007AF8290E678E020E00CE50960F5750900758200801F90E678E030E2057582AC
:20064900008013EF600D90E678E0FFA2E1E433F5828003758201D00722C007AF8290E6786A
:200669007480F090E679EFF0758201120629D0072290E678E030E2047582002290E678742E
:2006890040F090E678E020E6F975820122C007C006C005C004C003C002C001C000AD82AE41
:2006A90083AFF0E50A450B700575820180457B007C00EBB50A06ECB50B028027EB2DF8ECA6
:2006C9003EF98F02888289838AF01208C1F890E679F0758201120629E58260070BBB00D268
:2006E9000C80CFEBB50A07ECB50B03D38001C3E433F582D000D001D002D003D004D005D0D2
:2007090006D00722C007C006C005C004C003C002C001C00085820E85830F85F010E50C45CE
:200729000D70067582010207FFAB0CAC0DBB0109BC000690E6787420F090E679E07B007CFE
:200749000079007A00E9B50C07EAB50D030207DC758200120629E58270030207EF89008A3B
:2007690007740228F8E43FFFE8B50C0AEFB50D0690E6787420F089068A070EBE00010FEEEB
:20078900B50C2CEFB50D2875AF03759AE6759B7890E67B7440F0E0AFE0E9250EF8EA350FA0
:2007A900FDAE1088828D838EF0EF1208158018E9250EFDEA350FFEAF1090E679E0F88D824D
:2007C9008E838FF012081509B900010A89038A0402074E90E678E030E20575820080179010
:2007E900E678E020E6F9EBB50C07ECB50D03D38001C3E433F582D000D001D002D003D00490
:07080900D005D006D0072244
:06009800E478FFF6D8FD3C
:0108100032B5
:0108110032B4
:0108120032B3
:20007600790AE94400601B7A01901135782075923EE493F2A308B800020592D9F4DAF2759E
:0200960092FFD7
:0108130032B2
:0108140032B1
:030100000209866B
:030104000208BE30
:030108000208AB3F
:03010C000208BA2C
:030110000208C022
:03011400020FA136
:030118000208A832
:03011C000201B825
:030120000208B220
:03012400020F9F28
:030128000208B317
:03012C00020FA01F
:03013000020FCCEF
:030134000208308E
:0301380002083288
:03013C000208575F
:030140000208AF03
:030144000201B8FD
:03014800020F990A
:03014C00020F9A05
:03015000020F9B00
:03015400020F9CFB
:03015800020F9DF6
:03015C00020F9EF1
:030160000208BFD3
:030164000201B8DD
:030168000201B8D9
:03016C000201B8D5
:030170000208B1D1
:030174000208B4CA
:030178000208B6C4
:03017C000208B8BE
:030180000208B5BD
:030184000208B7B7
:030188000208B9B1
:03018C000208BBAB
:0301900002085909
:030194000208A9B5
:030198000208ACAE
:03019C000208AEA8
:0301A0000208A7AB
:0301A4000208AAA4
:0301A8000208AD9D
:0301AC000208B096
:0301B000020855ED
:0301B400020FBF78
:0101B8003214
:1B08150020F71130F6138883A88220F509F6A8837583002280FEF280F5F022E2
:010830003295
:010831003294
:010832003293
:20083300AA82AB83AC3BAD3CEC60010DED601175AF038A9B8B9A90E67B7400F0DCFDDDFB4C
:010853002282
:010854003271
:010855003270
:01085600326F
:01085700326E
:01085800326D
:01085900326C
:20085A00E53B453C60467A01E53B25E0F53BE53C334012F53CE582953BE583953C40030AD3
:20087A0080E6C3E53C13F53CE53B13F53BC3E582953BF5F0E583953C4005F58385F082C3DE
:0D089A00E53C13F53CE53B13F53BDAE122AC
:0108A700321E
:20009E007800E84400600A790075923EE4F309D8FC7820E84400600C7901903E00E4F0A3D3
:0400BE00D8FCD9FA97
:0108A800321D
:0108A900321C
:0108AA00321B
:0108AB00321A
:0108AC003219
:0108AD003218
:0108AE003217
:0108AF003216
:0108B0003215
:0108B1003214
:0108B2003213
:0108B3003212
:0108B4003211
:0108B5003210
:0108B600320F
:0108B700320E
:0108B800320D
:0108B900320C
:0108BA00320B
:0108BB00320A
:0108BC003209
:0108BD003208
:0108BE003207
:0108BF003206
:0108C0003205
:0D006900758146120FBBE582600302006640
:1C08C10020F71430F6148883A88220F507E6A88375830022E280F7E49322E02246
:2008DD00AF82751200751300D2E890E668E043E008F090E65CE043E001F090E65D7401F02A
:2008FD00D2AF90E680E020E10890E680E043E002F0EF600E90E680E043E008F090000A1296
:20091D00109690E680E053E0F7F022AF82BF00028037BF01028036BF02028039BF04028020
:20093D0038BF06028037BF08028036BF80028019BF8102801CBF8202801BBF8402801ABF31
:20095D0086028019BF881E801890E6A02290E6A12290E6A22290E6A32290E6A42290E6A51F
:20097D002290E6A62290000022C020C0E0C0F0C082C083C007C006C005C004C003C002C038
:20099D0001C000C0D075D000C08675860090E6B8E0FFE4BF800104FE601990E6B9E0FDBDEE
:2009BD00061190E6BAE0FCA3E0F5828C1D120FC0020BF7EF702790E6B9E0FDBD091F90E682
:2009DD00BAE0F5821210BAE582600990E6A07480F0020BF790E6A07401F0020BF7EE600E64
:2009FD0090E6B9E0FDBD0806120FF1020BF78F05BD012E90E6B9E0FDBD0B2690E6BCE0FD64
:200A1D0090E6BAE0F51C8D82120FA2E582600990E6A07480F0020BF790E6A07401F0020B70
:200A3D00F7E4BF810104FD601490E6B9E0FCBC0A0C90E6BCE0F582120FD7020BF7EF703611
:200A5D0090E6B9E0FCBC032E90E6BAE0FBA3E0FCBB010FBC000C75120190E6A07480F002E0
:200A7D000BF7BB0205BC00028003020BF790E6A07480F0020BF7EE603290E6B9E0702CAE79
:200A9D0011E51225E0FC420690E740EEF090E741E4F090E6B504F090E68AE4F090E68B745F
:200ABD0002F090E6A07480F0020BF7ED602890E6B9E0702290E740E4F090E741F090E6B5B5
:200ADD0004F090E68AE4F090E68B7402F090E6A07480F0020BF7BF02028003020BA290E661
:200AFD00B9E0FEBE03028008BE01028003020BA290E6BAE0FDA3E0FE4D6003020BF790E64C
:200B1D00BCE0F582120928AD82AE83ED4E7003020BF790E6B9E0FCBC03188D828E83E0FC72
:200B3D004304018D828E83ECF090E6A07480F0020BF790E6BCE0F582C006C005120FCDE56F
:200B5D0082D005D0067003020BF78D828E83E0FC5304FE8D828E83ECF090E6BCE0FDA3E0F5
:200B7D008D0453040F530580E4C423CDC423541F6DCD541FCD6DCDFE90E683ED4CF0E043A0
:200B9D00E020F08055BF824C90E6B9E0704690E6BCE0F582120928AE82AF83EE4F603B8E8D
:200BBD00828F83E0FE5306017F00EE4FB40100B3E433FF90E740F090E741E4F090E6B504B0
:200BDD00F090E68AE4F090E68B7402F090E6A07480F0800690E6B812023C5391EF90E65D29
:200BFD007401F0D086D0D0D000D001D002D003D004D005D006D007D083D082D0F0D0E0D0FC
:200C1D002032AE82AF837401B51828E51970248E828F83E493FCA3E493FD8C3B8D3C8C82BD
:200C3D008D83E493FC8C3D753E0090E00012041F020E677406B51838E51970348E828F8339
:200C5D00A3A3E493FCA3E493FD4C700790E6A07401F0228C028D038A3B8B3C8C828D83E49B
:200C7D0093FC8C3D753E0090E00012041F020E677402B518028003020D938E828F83A3A35E
:200C9D00A3A3E493FDC3E5199D4003020D938E828F83A3A3A3A3A3E493FCA3E493FDE51961
:200CBD0075F002A42CF582ED35F0F583E493FCA3E493FD74092CFAE43DFB8C008D01883BB9
:200CDD00893C8C828D83E493F9893D753E0090E000C005C004C003C00212041FD002D003D3
:200CFD00D004D0058C828D83E4932400FCE434E0FD8C1A8D1B8A828B83E493F8A3E493F99A
:200D1D00883B893C88828983E493F8883D753E00851A82851B83C005C004C003C0021204C9
:200D3D001FD002D003D004D0058A828B83E493F8A3E493F988828983E4932CFCE43DFD7446
:200D5D00022AFAE43BFB8A828B83E493F8A3E493F948709D90E002E0FAA3E0FB4A600302CC
:200D7D000E67ECC39400FCED94E0FD90E002ECF0EDA3F0020E677403B5180474018001E4DD
:200D9D00FD601EE519701A753B31753C11901131E493FC8C3D753E0090E00012041F020E1A
:200DBD0067ED7003020E60AC197D00EC24FFFAED34FFFB74072EF582E43FF583E493F879D6
:200DDD0000C3EA98EB648089F063F08095F0507374082EF582E43FF583E493FEA3E493FF04
:200DFD001CBCFF011DEC2CFCED33FDEC2EF582ED3FF583E493FEA3E493FF90E0007402F017
:200E1D0090E00104F074012401FCE434E0FD8E828F83E493FB60330EBE00010F8C828D83A4
:200E3D00EBF074012CFAE43DFB8A828B83E4F0042AFCE43BFD90E000E0FB0B0B90E000EB13
:200E5D00F080CB90E6A07401F0227E007FE090E6B57401F090E6B3EFF090E6B4EEF090E6AA
:200E7D00A07480F022AE82AF83A3A3A3A3A3E493F545A3E493F54674042EFEE43FFF753DA0
:200E9D00008E828F83E493FAC3E53D9A400122E53D75F002A42545F582E54635F0F583E406
:200EBD0093F53EA3E493F53F7409253EF540E4353FF5417900853E82853F83A3A3A3A3A32A
:200EDD00E493FAB513028003020F94A840AA4188828A83E493FBA3E493FD8B828D83A3E47B
:200EFD0093F5427404B5423588828A83E493F543A3E493F544854382854483A3A3E493B546
:200F1D003B11854382854483A3A3A3E493FBB53C0280047B0080027B018B0180427405B50B
:200F3D00423DE9603A88828A83E493FBA3E493FD8B828D83A3A3E493FD740F5DFC53058067
:200F5D00E423CDC423541F6DCD541FCD6DCD30E40244E0FB90E683ED4CF0E043E020F074B4
:1C0F7D000228F8E43AFA88828A83E493FBA3E493FD4B6003020EEC053D020E9EE4
:0411310004030904A6
:010F99003225
:010F9A003224
:010F9B003223
:010F9C003222
:010F9D003221
:010F9E003220
:010F9F00321F
:010FA000321E
:010FA100321D
:190FA200AF82E51C700F8F3B851C3C903E20120E8275820122758200221B
:040FBB007582002219
:010FBF0032FF
:0C0FC000858218851D19903E20020C1F30
:010FCC0032F2
:0A0FCD0090E6A07480F07582012206
:1A0FD70090E740E4F090E6B504F090E68AE4F090E68B04F090E6A003F02262
:1C0FF10090E740E513F090E6B57401F090E68AE4F090E68B04F090E6A003F022C1
:20100D00E583700BE58224FA400122B4001122E5826003D5E0FD0075E0FED583F674F9D5B2
:20102D00E0FD22C007C006C001C000AE82AF83EE2EF8EF33F9EE28FEEF39FF90E600E0F87C
:20104D00794C20E416C3EF13CE13CEFF795AE820E309C3EF13CE13CEFF7963E58124FAF89F
:20106D00E926C313C313F9C3EE99F582EF9400F583D000D001D006D00750012202100D749F
:20108D0011C0E0121030158122C007C006AE82AF837411C0E0EE4F600D1EBEFF011F90033C
:0D10AD00E812103080EF1581D006D0072228
:1E10BA00E582FF6003BF01128F13753BFF753CFF903E20120E827582012275820022B9
:00000001FF
