:06000000020069020AAFD4
:03000B00020AD016
:03001300020AB12D
:03001B00020AF3E3
:03002300020C08C4
:03002B00020AF5D1
:03003300020AF7C7
:03003B00020C09AB
:03004300020100B7
:03004B00020AB0F6
:03005300020100A7
:03005B00020AB2E4
:03006300020AB3DB
:0900C200750800750905020066CD
:030066000206A3EC
:2001C400AD82AE83AFF074032DFDE43EFE7C007B20EB60328B011BE954076002800F8D82DC
:2001E4008E838FF0120C0DFC1DBDFF011EEC30E70575800480037580004380027580008C8D
:2002040002EA2AFC80CB758001758000227F007C007D3E7E007B00C3EB6480949850158C12
:20022400828D838EF0120C0DFAA3AC82AD83EA62070B80E38F8222E508600790E6A07401B1
:20024400F0227508012290E6B8E0FFE4BF400104FE601890E6B9E0FDBDB01090E6BAE0F5EF
:200264000975080090E6A07480F022E4BFC00104FD7006EE700302038290E6B9E0FCBCA2AC
:20028400028008BCA9028003020382EF235401F50A90E6BAE0F50BA3E0F50C90E6BEE0F55C
:2002A4000DA3E0F50E750800E50D450E7003020381A90DAC0EC3E99440EC940050028004A6
:2002C40079407C00E50A604990E6A0E020E1F97523407524E77525008926752700850B216F
:2002E400850C227528017582511206BEE582700990E6A07401F002038190E6B57401F0908A
:20030400E68AE4F090E68BE9F090E6A07480F0804A90E6B57401F090E68AE4F090E68BF0A2
:2003240090E6A07480F090E6A0E020E1F9752D40752EE7752F008930753100850B2B850C14
:200344002C7532018509337534A6758251120739E582700790E6A07401F0227C00A80DABC4
:200364000EE8C399F8EB9CFB880D8B0EAA0BAB0CE92AF9EC3BFC890B8C0C0202AC22ED7089
:2003840006EE700302046B90E6B9E0FCBCA302800302046BEF235401F50F90E6BAE0F510A1
:2003A400A3E0F51190E6BEE0F9A3E0FA750800E94A700302046A89008A07C3E89440EF9477
:2003C400005002800478407F00E50F603C90E6A0E020E1F9851046851147884875490090B6
:2003E400E740C002C001C00012089DD000D001D00290E6B57401F090E68AE4F090E68BE818
:20040400F090E6A07480F0803B90E6B57401F090E68AE4F090E68BF090E6A07480F090E66E
:20042400A0E020E1F98510828511837546407547E789488A49C002C001C00012089DD00002
:20044400D001D0027F0089038A04EBC398FBEC9FFC8B018C02AB10AC11E82BF8EF3CFF8845
:20046400108F110203B322ED603090E6B9E0FFBFA62890E6A0E020E1F990E60AE090E740CF
:20048400F090E6B57401F090E68AE4F090E68B04F090E6A003F075080022EE604490E6B9A6
:2004A400E0FFBFA83C90E6A0E020E1F990E6B57401F090E68AE4F090E68BF090E6A0748067
:2004C400F0900001120BE290E680E043E008F090000A120BE290E680E053E0F7F0750800A1
:2004E40022EE700302056A90E6B9E0FFBFDD02800302056A75080090E6B57401F090E68A57
:20050400E4F090E68BF090E6A07480F090E6A0E020E1F990E68BE0FFBF0402800B90E68BF7
:20052400E0FFBF050280012290E740E05407FF24FA5001227C00EF2FFFEC33FCEF2FFFEC30
:2005440033FCEF2400FFEC343EFC8F828C837546407547E775480475490012089D90E74051
:2005640075F0000201C4EE70030205F390E6B9E0FFBFDE0280030205F375080090E6B574AA
:2005840001F090E68AE4F090E68BF090E6A07480F090E6A0E020E1F990E6BAE0FEA3E04ED8
:2005A4006012903E1E74ECF0120211AF82903E1FEFF0800C754620754700903E00120AD288
:2005C400752D00752E3E752F00752BE0752C1F7530207531007532017533057534A67582AA
:2005E40051120739E582700690E6A07401F022ED603090E6B9E0FFBFDF2890E6A0E020E192
:20060400F9E590540190E740F090E6B57401F090E68AE4F090E68B04F090E6A003F075088D
:20062400002290E6A07401F02275B2077580002275230075243E7525007521E075221F7508
:2006440026207527007528017582511206BEE582604C903E1EE0FFBFEC44903E1FE0FFC09F
:2006640007120211AE82D007EFB506327F05EF20E72CEFFD3395E0FEED2DFDEE33FEED2DDF
:20068400FDEE33FEED2400FDEE343EFE7C008D828E838CF0C0071201C4D0071F80D0229020
:1A06A400E6007412F012062D120634758201120C29E50860FC12024A80F7F2
:2013770012010002FFFFFF4056040DB43500010200010904000000FFFFFF0009020000019A
:2013970001008064891300009213A513B413414E414C4F47204445564943455300455641E0
:0A13B7004C2D41444634333531001B
:0A13C50077130000019F1302A1132B
:2006BE00C007C006C005AF82E528600AAE228E29AE218E2A8004AE218E29EF2FFFF5821264
:2006DE000901E5826048E528FD3395E0FE0DBD00010E8D138E1490002975F040120935E585
:2006FE0082602B74014FF582120901E582601F8526158527168523828524838525F0120905
:20071E00ACE5827004F582800B7582018006120919758200D005D006D00722C007C006C098
:20073E0005C004C003C002C001C000AF82E4F535F536EF2FFFF582120901E58270030208CE
:20075E0077AC338CF005F07B017C008006EB2BFBEC33FCD5F0F7C3E5359530E5369531408B
:20077E0003020877E532600AAA2C8A37AA2B8A388004AA2B8A37E532FA3395E0FE0ABA0093
:20079E00010E8A138E1490003775F040120935E5827003020877C007852B82852C838B0519
:2007BE008C068D468E47C006C005C004C003C001C000120AF9AA82AF83D000D001D003D097
:2007DE0004D005D006EDC39AFDEE9FFE8D398E3AE530C39535FEE5319536FFC3EE9539EFFE
:2007FE00953AD007500DE530C39535F539E5319536F53AE535252DFAE536352EFDAE2F85B5
:20081E003913853A148A828D838EF0120935E5826047120919E5827004F58280517E00E5E9
:20083E00346006C3EE9534500C8F82120901E58270030E80EAEEB534057582008030E5390A
:20085E00252BF52BE53A352CF52CE5392535F535E53A3536F536020774120919E530B53562
:1F087E0008E531B53603D38001C3E433F582D000D001D002D003D004D005D006D00722EC
:20089D00AA82AB83AC46AD47AE48AF49EE60010FEF601775AF078A9B8B9A8C9E8D9D90E60A
:0B08BD007CE090E67BF0DEF6DFF4222A
:2008C800C007AF8290E678E020E00CE51260F5751200758200801F90E678E030E2057582F9
:2008E800008013EF600D90E678E0FFA2E1E433F5828003758201D00722C007AF8290E678C9
:200908007480F090E679EFF07582011208C8D0072290E678E030E2047582002290E67874EB
:2009280040F090E678E020E6F975820122C007C006C005C004C003C002C001C000AD82AE9F
:2009480083AFF0E5134514700575820180457B007C00EBB51306ECB514028027EB2DF8ECE0
:200968003EF98F02888289838AF0120C0DF890E679F07582011208C8E58260070BBB00D2D5
:200988000C80CFEBB51307ECB51403D38001C3E433F582D000D001D002D003D004D005D01E
:2009A80006D00722C007C006C005C004C003C002C001C00085821785831885F019E5154509
:2009C800167006758201020A9EAB15AC16BB0109BC000690E6787420F090E679E07B007CA0
:2009E8000079007A00E9B51507EAB51603020A7B7582001208C8E5827003020A8E89008AA3
:200A080007740228F8E43FFFE8B5150AEFB5160690E6787420F089068A070EBE00010FEE37
:200A2800B5152CEFB5162875AF03759AE6759B7890E67B7440F0E0AFE0E92517F8EA3518DA
:200A4800FDAE1988828D838EF0EF120AB48018E92517FDEA3518FEAF1990E679E0F88D82E6
:200A68008E838FF0120AB409B900010A89038A040209ED90E678E030E2057582008017902C
:200A8800E678E020E6F9EBB51507ECB51603D38001C3E433F582D000D001D002D003D004DC
:070AA800D005D006D00722A3
:06009800E478FFF6D8FD3C
:010AAF003214
:010AB0003213
:010AB1003212
:20007600790AE94400601B7A019013C5782075923EE493F2A308B800020592D9F4DAF2750C
:0200960092FFD7
:010AB2003211
:010AB3003210
:03010000020CD21C
:03010400020C0AE0
:03010800020B4A9D
:03010C00020C06DC
:03011000020C0CD2
:030114000212EDE7
:03011800020B4790
:03011C000201B825
:03012000020B517E
:030124000212EBD9
:03012800020B5275
:03012C000212ECD0
:030130000213189F
:03013400020ACFED
:03013800020AD1E7
:03013C00020AF6BE
:03014000020B4E61
:030144000201B8FD
:030148000212E5BB
:03014C000212E6B6
:030150000212E7B1
:030154000212E8AC
:030158000212E9A7
:03015C000212EAA2
:03016000020C0B83
:030164000201B8DD
:030168000201B8D9
:03016C000201B8D5
:03017000020B502F
:03017400020B5328
:03017800020B5522
:03017C00020B571C
:03018000020B541B
:03018400020B5615
:03018800020B580F
:03018C00020C075B
:03019000020AF868
:03019400020B4813
:03019800020B4B0C
:03019C00020B4D06
:0301A000020B4609
:0301A400020B4902
:0301A800020B4CFB
:0301AC00020B4FF4
:0301B000020AF44C
:0301B40002130B28
:0101B8003214
:1B0AB40020F71130F6138883A88220F509F6A8837583002280FEF280F5F02241
:010ACF0032F4
:010AD00032F3
:010AD10032F2
:200AD200AA82AB83AC46AD47EC60010DED601175AF038A9B8B9A90E67B7400F0DCFDDDFB95
:010AF20022E1
:010AF30032D0
:010AF40032CF
:010AF50032CE
:010AF60032CD
:010AF70032CC
:010AF80032CB
:200AF900E546454760467A01E54625E0F546E547334012F547E5829546E583954740030ADA
:200B190080E6C3E54713F547E54613F546C3E5829546F5F0E58395474005F58385F082C3FA
:0D0B3900E54713F547E54613F546DAE122DE
:010B4600327C
:20009E007800E84400600A790075923EE4F309D8FC7820E84400600C7901903E00E4F0A3D3
:0400BE00D8FCD9FA97
:010B4700327B
:010B4800327A
:010B49003279
:010B4A003278
:010B4B003277
:010B4C003276
:010B4D003275
:010B4E003274
:010B4F003273
:010B50003272
:010B51003271
:010B52003270
:010B5300326F
:010B5400326E
:010B5500326D
:010B5600326C
:010B5700326B
:010B5800326A
:200B5900E583700BE58224FA400122B4001122E5826003D5E0FD0075E0FED583F674F9D56B
:200B7900E0FD22C007C006C001C000AE82AF83EE2EF8EF33F9EE28FEEF39FF90E600E0F835
:200B9900794C20E416C3EF13CE13CEFF795AE820E309C3EF13CE13CEFF7963E58124FAF858
:200BB900E926C313C313F9C3EE99F582EF9400F583D000D001D006D007500122020B597411
:200BD90011C0E0120B7C158122C007C006AE82AF837411C0E0EE4F600D1EBEFF011F9003AE
:0D0BF900E8120B7C80EF1581D006D007229A
:010C060032BB
:010C070032BA
:010C080032B9
:010C090032B8
:010C0A0032B7
:010C0B0032B6
:010C0C0032B5
:0D006900758151121307E5826003020066E5
:1C0C0D0020F71430F6148883A88220F507E6A88375830022E280F7E49322E022F6
:200C2900AF82753C00753D00D2E890E668E043E008F090E65CE043E001F090E65D7401F086
:200C4900D2AF90E680E020E10890E680E043E002F0EF600E90E680E043E008F090000A1246
:200C69000BE290E680E053E0F7F022AF82BF00028037BF01028036BF02028039BF0402808A
:200C890038BF06028037BF08028036BF80028019BF8102801CBF8202801BBF8402801ABFE2
:200CA90086028019BF881E801890E6A02290E6A12290E6A22290E6A32290E6A42290E6A5D0
:200CC9002290E6A62290000022C020C0E0C0F0C082C083C007C006C005C004C003C002C0E9
:200CE90001C000C0D075D000C08675860090E6B8E0FFE4BF800104FE601990E6B9E0FDBD9F
:200D0900061190E6BAE0FCA3E0F5828C1B12130C020F43EF702790E6B9E0FDBD091F90E694
:200D2900BAE0F582121359E582600990E6A07480F0020F4390E6A07401F0020F43EE600ED2
:200D490090E6B9E0FDBD080612133D020F438F05BD012E90E6B9E0FDBD0B2690E6BCE0FD74
:200D690090E6BAE0F51A8D821212EEE582600990E6A07480F0020F4390E6A07401F0020F80
:200D890043E4BF810104FD601490E6B9E0FCBC0A0C90E6BCE0F582121323020F43EF7036D6
:200DA90090E6B9E0FCBC032E90E6BAE0FBA3E0FCBB010FBC000C753C0190E6A07480F00267
:200DC9000F43BB0205BC00028003020F4390E6A07480F0020F43EE603290E6B9E0702CAE3A
:200DE9003BE53C25E0FC420690E740EEF090E741E4F090E6B504F090E68AE4F090E68B74BC
:200E090002F090E6A07480F0020F43ED602890E6B9E0702290E740E4F090E741F090E6B515
:200E290004F090E68AE4F090E68B7402F090E6A07480F0020F43BF02028003020EEE90E672
:200E4900B9E0FEBE03028008BE01028003020EEE90E6BAE0FDA3E0FE4D6003020F4390E65D
:200E6900BCE0F582120C74AD82AE83ED4E7003020F4390E6B9E0FCBC03188D828E83E0FC84
:200E89004304018D828E83ECF090E6A07480F0020F4390E6BCE0F582C006C005121319E580
:200EA90082D005D0067003020F438D828E83E0FC5304FE8D828E83ECF090E6BCE0FDA3E056
:200EC9008D0453040F530580E4C423CDC423541F6DCD541FCD6DCDFE90E683ED4CF0E04351
:200EE900E020F08055BF824C90E6B9E0704690E6BCE0F582120C74AE82AF83EE4F603B8EEF
:200F0900828F83E0FE5306017F00EE4FB40100B3E433FF90E740F090E741E4F090E6B50460
:200F2900F090E68AE4F090E68B7402F090E6A07480F0800690E6B812023B5391EF90E65DDA
:200F49007401F0D086D0D0D000D001D002D003D004D005D006D007D083D082D0F0D0E0D0AC
:200F69002032AE82AF837401B54228E54370248E828F83E493FCA3E493FD8C468D478C8204
:200F89008D83E493FC8C4875490090E00012089D0211B37406B54238E54370348E828F83AF
:200FA900A3A3E493FCA3E493FD4C700790E6A07401F0228C028D038A468B478C828D83E436
:200FC90093FC8C4875490090E00012089D0211B37402B5420280030210DF8E828F83A3A3AF
:200FE900A3A3E493FDC3E5439D40030210DF8E828F83A3A3A3A3A3E493FCA3E493FDE5436F
:2010090075F002A42CF582ED35F0F583E493FCA3E493FD74092CFAE43DFB8C008D0188465E
:2010290089478C828D83E493F9894875490090E000C005C004C003C00212089DD002D003E0
:20104900D004D0058C828D83E4932400FCE434E0FD8C448D458A828B83E493F8A3E493F9F6
:201069008846894788828983E493F88848754900854482854583C005C004C003C0021208F6
:201089009DD002D003D004D0058A828B83E493F8A3E493F988828983E4932CFCE43DFD7479
:2010A900022AFAE43BFB8A828B83E493F8A3E493F948709D90E002E0FAA3E0FB4A6003027D
:2010C90011B3ECC39400FCED94E0FD90E002ECF0EDA3F00211B37403B5420474018001E4C6
:2010E900FD601EE543701A7546C17547139013C1E493FC8C4875490090E00012089D0211CC
:20110900B3ED70030211ACAC437D00EC24FFFAED34FFFB74072EF582E43FF583E493F879C1
:2011290000C3EA98EB648089F063F08095F0507374082EF582E43FF583E493FEA3E493FFB4
:201149001CBCFF011DEC2CFCED33FDEC2EF582ED3FF583E493FEA3E493FF90E0007402F0C7
:2011690090E00104F074012401FCE434E0FD8E828F83E493FB60330EBE00010F8C828D8355
:20118900EBF074012CFAE43DFB8A828B83E4F0042AFCE43BFD90E000E0FB0B0B90E000EBC4
:2011A900F080CB90E6A07401F0227E007FE090E6B57401F090E6B3EFF090E6B4EEF090E65B
:2011C900A07480F022AE82AF83A3A3A3A3A3E493F550A3E493F55174042EFEE43FFF754830
:2011E900008E828F83E493FAC3E5489A400122E54875F002A42550F582E55135F0F583E48B
:2012090093F549A3E493F54A74092549F54BE4354AF54C7900854982854A83A3A3A3A3A382
:20122900E493FAB53D0280030212E0A84BAA4C88828A83E493FBA3E493FD8B828D83A3E49C
:2012490093F54D7404B54D3588828A83E493F54EA3E493F54F854E82854F83A3A3E493B5B4
:201269004611854E82854F83A3A3A3E493FBB5470280047B0080027B018B0180427405B590
:201289004D3DE9603A88828A83E493FBA3E493FD8B828D83A3A3E493FD740F5DFC5305800D
:2012A900E423CDC423541F6DCD541FCD6DCD30E40244E0FB90E683ED4CF0E043E020F07465
:1C12C9000228F8E43AFA88828A83E493FBA3E493FD4B600302123805480211EAEB
:0413C1000403090414
:0112E50032D6
:0112E60032D5
:0112E70032D4
:0112E80032D3
:0112E90032D2
:0112EA0032D1
:0112EB0032D0
:0112EC0032CF
:0112ED0032CE
:1912EE00AF82E51A700F8F46851A47903E201211CE75820122758200226B
:0413070075820022C9
:01130B0032AF
:0C130C00858242851B43903E20020F6B3F
:0113180032A2
:0A13190090E6A07480F075820122B6
:1A13230090E740E4F090E6B504F090E68AE4F090E68B04F090E6A003F02212
:1C133D0090E740E53DF090E6B57401F090E68AE4F090E68B04F090E6A003F02247
:1E135900E582FF6003BF01128F3D7546FF7547FF903E201211CE758201227582002288
:00000001FF
