:201E0000120100020000004056040DB43200010203010A06000200000040010009021200A9
:201E2000010100A0640904000000FF00000009021200010100A0640904000000FF00000061
:201E4000040309041E0341004E0041004C004F0047002000440045005600490043004500CB
:201E600053001A034500560041004C002D0041004400460034003300350031001A033000B8
:181E80003000300030003000300030003000300030003000300000003A
:04000000020059326F
:01000B0032C2
:0100130032BA
:01001B0032B2
:0100230032AA
:01002B0032A2
:01003300329A
:01003B003292
:03004300021F0099
:01004B003282
:03005300021F0089
:0300C400020056E1
:030056000204C9D8
:2000C70075820022AF82BFDD028005BFDF21800B8F1090E68BE4F0758201228F10E590546C
:2000E7000190E740F090E68B7401F07582012275820022E582600475820022AD22AE23AF85
:20010700248D828E838FF0E41208D175820122E5827004E52260047582002275820122753E
:20012700820122AF82BF01067E017F0080047E007F008E8222C0E0C082C083D2005391EFA1
:2001470090E65D7401F0D083D082D0E032C0E0C082C0835391EF90E65D7402F0D083D08203
:20016700D0E032C021C0E0C0F0C082C083C007C006C005C004C003C002C001C000C0D075BF
:20018700D0007582001207CF5391EF90E65D7410F0D0D0D000D001D002D003D004D005D030
:2001A70006D007D083D082D0F0D0E0D02132C021C0E0C0F0C082C083C007C006C005C00457
:2001C700C003C002C001C000C0D075D0007582011207CF5391EF90E65D7420F0D0D0D000C3
:2001E700D001D002D003D004D005D006D007D083D082D0F0D0E0D02132AF827C437DE77E22
:20020700007B007A00C3EA9F50340AEA54076002800F8C828D838EF0120956FB1CBCFF01F2
:200227001DEB30E7067804790080047800790088808B01E929FB4380025380FD80C74380E8
:2002470001758000227E7C7F1E7522307523317524327525337526347527357528367529AF
:2002670037752A38752B39752C41752D42752E43752F4475304575314674182EFCE43FFD50
:2002870090E507E0FB5303F0E4C4CBC4540F6BCB540FCB6BCB30E30244F0EB2422F9870389
:2002A7008C828D83EBF074162EFCE43FFD90E507E0FB53030FEB2422F987038C828D83EBF1
:2002C700F074142EFCE43FFD90E508E0FB5303F0E4C4CBC4540F6BCB540FCB6BCB30E3026E
:2002E70044F0EB2422F987038C828D83EBF074122EFCE43FFD90E508E0FB53030FEB242258
:20030700F987038C828D83EBF074102EFCE43FFD90E509E0FB5303F0E4C4CBC4540F6BCB1D
:20032700540FCB6BCB30E30244F0EB2422F987038C828D83EBF0740E2EFCE43FFD90E50912
:20034700E0FB53030FEB2422F987038C828D83EBF0740C2EFCE43FFD90E50AE0FB5303F03F
:20036700E4C4CBC4540F6BCB540FCB6BCB30E30244F0EB2422F987038C828D83EBF0740ACE
:200387002EFCE43FFD90E50AE0FB53030FEB2422F987038C828D83EBF074082EFCE43FFDDA
:2003A70090E50BE0FB5303F0E4C4CBC4540F6BCB540FCB6BCB30E30244F0EB2422F9870364
:2003C7008C828D83EBF074062EFCE43FFD90E50BE0FB53030FEB2422F987038C828D83EBDC
:2003E700F074042EFCE43FFD90E50CE0FB5303F0E4C4CBC4540F6BCB540FCB6BCB30E30259
:2004070044F0EB2422F987038C828D83EBF074022EFEE43FFF90E50CE0FD53050FED242238
:20042700F987058E828F83EDF02290E60B7403F0C2007510FF75B20775800012024C90E6E8
:2004470080E043E00AF09005DC12090390E680E053E0F7F090E600E053E0E7F0D2E890E609
:2004670068E043E008F090E65CE043E001F090E65CE043E002F090E65CE043E020F090E62A
:200487005CE043E010F0D2AF223000051204D1C20074DDB5102890E6A0E020E12490E68B1B
:2004A700E0FFBF0408758220120200801190E68BE0FFBF050990E744E0F582120200751077
:0A04C700FF2212043112049080FBA2
:06008800E478FFF6D8FD4C
:1200B20075120075130075142E75151E75161C75171E7D
:2004D10090E6B9E0FF24F450030205D1EF240A83F582EF241083F583E4730318D12DD1D173
:2004F10042D1526980B3050505050505050505050505120647E58260030205E690E6A0E0A2
:2005110043E001F00205E61206DBE58260030205E690E6A0E043E001F00205E612074AE5E0
:200531008260030205E690E6A0E043E001F00205E61200C7E58260030205E61207FA020537
:20055100E6120126AF8290E740EFF090E68AE4F090E68B04F00205E690E6BAE0F582120154
:200571002AE582707090E6A0E043E001F0806690E6BCE0FF7522117523007524408F8212BC
:2005910000FAE582700A90E6A0E043E001F0804590E740E511F090E68AE4F090E68B04F03A
:2005B100803390E6BCE0FF90E6BAE0F5228F82120116E582701F90E6A0E043E001F0801570
:2005D10090E6B9E0F5821200CBE582700890E6A0E043E001F090E6A0E043E080F022AF82E2
:2005F100747F5FFE24F75003020643EE240A83F582EE240D83F583E4731C20334337433BF3
:20061100433F06060606060606060690E6A022EF30E7067EA27FE680047EA17FE68E828FA1
:20063100832290E6A32290E6A42290E6A52290E6A6229000002290E6B8E0FFBF8002802270
:20065100BF81028008BF820280370206D390E740E4F090E741F090E68AF090E68B7402F060
:200671008064E51325E0FFE512420790E740EFF090E741E4F090E68AF090E68B7402F08050
:200691004590E6BCE0F5821205EFAE82AF838E048F05EE4F7003F582228C828D83E0FC307A
:2006B100E0067E017F0080047E007F0090E740EEF090E741E4F090E68AF090E68B7402F04C
:2006D1008004758200227582012290E6B8E0FF6005BF0258801B90E6BAE0FFBF01057513D0
:2006F10000805290E6BAE0FFBF060280487582002290E6BAE0703190E6BCE0F5821205EF20
:20071100AE82AF83E0FD5305FE8E828F83EDF090E6BCE0FF30E70343071053071F90E6833D
:20073100EFF074204FF0800D7582002290E6B9E0F5820200CB7582012290E6B8E0FF600571
:20075100BF026E802690E6BAE0FFBF02030207CB90E6BAE0FFBF0105751301805D90E6BAA2
:20077100E0FFBF060280537582002290E6BAE0703C90E6BCE0F5821205EFAE82AF83EE4FEC
:200791007003F582228E828F83E0FD4305018E828F83EDF090E6BCE0FF30E703430710531D
:2007B100071F90E683EFF074204FF0800D7582002290E6B9E0F5820200CB75820122AF8213
:2007D100D20110AF02C201EF600E75141C75151E75162E75171E800C75142E75151E75162E
:2007F1001C75171EA20192AF2290E6BBE0FFBF01028019BF02028024BF0302802CBF060312
:200811000208ABBF07030208BB0208C87E007F1E90E6B3EFF090E6B47400F02290E6B3E5D1
:2008310015F090E6B4E514F0227D407E1E7F8090E6BAE0F5227B00EBB5220280430B8D0054
:200851008E018F028D828E838FF012095628F8E439F9880589068A0774012DF9E43EFA8F2E
:200871000489828A838CF0120956F9B9030280067D007E007F00ED4E6006C3E5229B50B79A
:20089100ED4E600D8E0490E6B3ECF090E6B4EDF02290E6A0E043E001F0227E127F1E90E610
:2008B100B3EFF090E6B47412F02290E6B3E517F090E6B4E516F02290E6A0E043E001F0225B
:200066007900E94400601B7A00900983780075921CE493F2A308B800020592D9F4DAF275B5
:0200860092FFE7
:1B08D10020F71130F6138883A88220F509F6A8837583002280FEF280F5F02226
:201F000002013C00020154000209760002097B0002016A000201B500020973000208F70080
:201F20000208F9000208FA000208FB000208FE0002098100020982000208EC000208EE0086
:201F4000020978000208F700020972000209740002097500020977000209790002097A00F6
:201F6000020955000208F7000208F7000208F7000208F8000208FC000208FF0002090100E1
:201F80000208FD000209000002090200020954000208EF000208F1000208F3000208F500D3
:181FA0000208F0000208F2000208F4000208F6000208ED0002098000B3
:0108EC0032D9
:0108ED0032D8
:0108EE0032D7
:0108EF0032D6
:0108F00032D5
:20008E007800E84400600A790075921CE4F309D8FC7800E84400600C7900901C00E4F0A348
:0400AE00D8FCD9FAA7
:0108F10032D4
:0108F20032D3
:0108F30032D2
:0108F40032D1
:0108F50032D0
:0108F60032CF
:0108F70032CE
:0108F80032CD
:0108F90032CC
:0108FA0032CB
:0108FB0032CA
:0108FC0032C9
:0108FD0032C8
:0108FE0032C7
:0108FF0032C6
:0109000032C4
:0109010032C3
:0109020032C2
:20090300AE82AF8390E600E05418C423541F70057CB1FD801C90E600E05418C423541FFB04
:20092300BB01067A617B0180047AC27B028A048B058C228D23E52224FFFAE52334FFFB8AFE
:11094300228B23EA4B70EE1EBEFF011FEE4F70E12295
:010954003270
:01095500326F
:0D00590075813112097CE5826003020056BA
:1C09560020F71430F6148883A88220F507E6A88375830022E280F7E49322E022B0
:010972003252
:010973003251
:010974003250
:01097500324F
:01097600324E
:01097700324D
:01097800324C
:01097900324B
:01097A00324A
:01097B003249
:04097C00758200225E
:010980003244
:010981003243
:010982003242
:00000001FF
