:060000000200690202A1EA
:03000B000202A747
:030013000202A343
:03001B000202A935
:030023000202C412
:03002B000202AB23
:030033000202AD19
:03003B000202C5F9
:03004300020100B7
:03004B000202A20C
:03005300020100A7
:03005B000202A4FA
:030063000202A5F1
:0600C20075080002006653
:030066000202890A
:2001C1007D437EE77F007C007B00BB200050368B010BE954076002800F8D828E838FF012A5
:2001E10002C9FC1DBDFF011EEC30E70679047A00800479007A0089808C02EA2AFC4380025C
:200201005380FD80C543800175800022E508600790E6A07401F0227508012290E6B8E0FF4F
:20022100BF402A90E6B9E0FEBEDD2275080090E6B57401F090E68AE4F090E68BF090E6A0E2
:200241007480F090E6A0E020E1F90201C1BFC03090E6B9E0FFBFE02890E6A0E020E1F9E5AC
:20026100905401FF90E740F090E6B57401F090E68AE4F090E68B04F090E6A003F075080013
:200281002275B2077580002290E6007412F01202827582011202E5E50860FC12021C80F793
:200B0B0012010002FFFFFF4056040DB43200010203010904000000FFFFFF0009020000010E
:200B2B00010080641D0B0000260B3B0B4A0B570B414E414C4F472044455649434553004555
:190B4B0056414C2D41444634333531004558504552494D454E54414C005B
:0A0B68000B0B000001330B03350BEB
:06009800E478FFF6D8FD3C
:0102A100322A
:0102A2003229
:0102A3003228
:20007600790AE94400601B7A01900B68780075923EE493F2A308B800020592D9F4DAF27591
:0200960092FFD7
:0102A4003227
:0102A5003226
:0301000002038E69
:030104000202C62E
:030108000202B33D
:03010C000202C22A
:030110000202C820
:030114000209D409
:030118000202B030
:03011C000201B825
:030120000202BA1E
:030124000209D2FB
:030128000202BB15
:03012C000209D3F2
:030130000209FFC2
:030134000202A61E
:030138000202A818
:03013C000202AC10
:030140000202B701
:030144000201B8FD
:030148000209A108
:03014C000209A203
:030150000209A3FE
:030154000209CFCE
:030158000209D0C9
:03015C000209D1C4
:030160000202C7D1
:030164000201B8DD
:030168000201B8D9
:03016C000201B8D5
:030170000202B9CF
:030174000202BCC8
:030178000202BEC2
:03017C000202C0BC
:030180000202BDBB
:030184000202BFB5
:030188000202C1AF
:03018C000202C3A9
:030190000202AEBA
:030194000202B1B3
:030198000202B4AC
:03019C000202B6A6
:0301A0000202AFA9
:0301A4000202B2A2
:0301A8000202B59B
:0301AC000202B894
:0301B0000202AA9E
:0301B4000209F24B
:0101B8003214
:0102A6003225
:0102A7003224
:0102A8003223
:0102A9003222
:0102AA003221
:0102AB003220
:0102AC00321F
:0102AD00321E
:0102AE00321D
:0102AF00321C
:20009E007800E84400600A790075923EE4F309D8FC7800E84400600C7900903E00E4F0A3F4
:0400BE00D8FCD9FA97
:0102B000321B
:0102B100321A
:0102B2003219
:0102B3003218
:0102B4003217
:0102B5003216
:0102B6003215
:0102B7003214
:0102B8003213
:0102B9003212
:0102BA003211
:0102BB003210
:0102BC00320F
:0102BD00320E
:0102BE00320D
:0102BF00320C
:0102C000320B
:0102C100320A
:0102C2003209
:0102C3003208
:0102C4003207
:0102C5003206
:0102C6003205
:0102C7003204
:0102C8003203
:0D00690075812C1209EEE58260030200662D
:1C02C90020F71430F6148883A88220F507E6A88375830022E280F7E49322E02244
:2002E500AF82750A00750B00D2E890E668E043E008F090E65CE043E001F090E65D7401F038
:20030500D2AF90E680E020E10890E680E043E002F0EF600E90E680E043E008F090000A1293
:200325000AC990E680E053E0F7F022AF82BF00028037BF01028036BF02028039BF040280F1
:2003450038BF06028037BF08028036BF80028019BF8102801CBF8202801BBF8402801ABF2F
:2003650086028019BF881E801890E6A02290E6A12290E6A22290E6A32290E6A42290E6A51D
:200385002290E6A62290000022C020C0E0C0F0C082C083C007C006C005C004C003C002C036
:2003A50001C000C0D075D000C08675860090E6B8E0FFE4BF800104FE601990E6B9E0FDBDEC
:2003C500061190E6BAE0FCA3E0F5828C151209F30205FFEF702790E6B9E0FDBD091F90E659
:2003E500BAE0F582120AEDE582600990E6A07480F00205FF90E6A07401F00205FFEE600E31
:2004050090E6B9E0FDBD0806120A240205FF8F05BD012E90E6B9E0FDBD0B2690E6BCE0FD31
:2004250090E6BAE0F5148D821209D5E582600990E6A07480F00205FF90E6A07401F002054D
:20044500FFE4BF810104FD601490E6B9E0FCBC0A0C90E6BCE0F582120A0A0205FFEF7036D7
:2004650090E6B9E0FCBC032E90E6BAE0FBA3E0FCBB010FBC000C750A0190E6A07480F002E6
:2004850005FFBB0205BC000280030205FF90E6A07480F00205FFEE603290E6B9E0702CAE71
:2004A50009E50A25E0FC420690E740EEF090E741E4F090E6B504F090E68AE4F090E68B746D
:2004C50002F090E6A07480F00205FFED602890E6B9E0702290E740E4F090E741F090E6B5B1
:2004E50004F090E68AE4F090E68B7402F090E6A07480F00205FFBF020280030205AA90E65B
:20050500B9E0FEBE03028008BE010280030205AA90E6BAE0FDA3E0FE4D60030205FF90E645
:20052500BCE0F582120330AD82AE83ED4E70030205FF90E6B9E0FCBC03188D828E83E0FC6C
:200545004304018D828E83ECF090E6A07480F00205FF90E6BCE0F582C006C005120A00E53D
:2005650082D005D00670030205FF8D828E83E0FC5304FE8D828E83ECF090E6BCE0FDA3E0F1
:200585008D0453040F530580E4C423CDC423541F6DCD541FCD6DCDFE90E683ED4CF0E0439E
:2005A500E020F08055BF824C90E6B9E0704690E6BCE0F582120330AE82AF83EE4F603B8E89
:2005C500828F83E0FE5306017F00EE4FB40100B3E433FF90E740F090E741E4F090E6B504AE
:2005E500F090E68AE4F090E68B7402F090E6A07480F0800690E6B812020D5391EF90E65D56
:200605007401F0D086D0D0D000D001D002D003D004D005D006D007D083D082D0F0D0E0D0F9
:200625002032AE82AF837401B51028E51170248E828F83E493FCA3E493FD8C218D228C82FF
:200645008D83E493FC8C2375240090E0001209A402086F7406B51038E51170348E828F83EF
:20066500A3A3E493FCA3E493FD4C700790E6A07401F0228C028D038A218B228C828D83E4CD
:2006850093FC8C2375240090E0001209A402086F7402B51002800302079B8E828F83A3A30A
:2006A500A3A3E493FDC3E5119D400302079B8E828F83A3A3A3A3A3E493FCA3E493FDE5116D
:2006C50075F002A42CF582ED35F0F583E493FCA3E493FD74092CFAE43DFB8C008D018821D1
:2006E50089228C828D83E493F9892375240090E000C005C004C003C0021209A4D002D00395
:20070500D004D0058C828D83E4932400FCE434E0FD8C128D138A828B83E493F8A3E493F9A7
:200725008821892288828983E493F88823752400851282851383C005C004C003C00212093A
:20074500A4D002D003D004D0058A828B83E493F8A3E493F988828983E4932CFCE43DFD74BF
:20076500022AFAE43BFB8A828B83E493F8A3E493F948709D90E002E0FAA3E0FB4A600302CA
:20078500086FECC39400FCED94E0FD90E002ECF0EDA3F002086F7403B5100474018001E4DF
:2007A500FD601EE511701A75216475220B900B64E493FC8C2375240090E0001209A40208AA
:2007C5006FED7003020868AC117D00EC24FFFAED34FFFB74072EF582E43FF583E493F879D2
:2007E50000C3EA98EB648089F063F08095F0507374082EF582E43FF583E493FEA3E493FF02
:200805001CBCFF011DEC2CFCED33FDEC2EF582ED3FF583E493FEA3E493FF90E0007402F014
:2008250090E00104F074012401FCE434E0FD8E828F83E493FB60330EBE00010F8C828D83A2
:20084500EBF074012CFAE43DFB8A828B83E4F0042AFCE43BFD90E000E0FB0B0B90E000EB11
:20086500F080CB90E6A07401F0227E007FE090E6B57401F090E6B3EFF090E6B4EEF090E6A8
:20088500A07480F022AE82AF83A3A3A3A3A3E493F52BA3E493F52C74042EFEE43FFF7523EC
:2008A500008E828F83E493FAC3E5239A400122E52375F002A4252BF582E52C35F0F583E46C
:2008C50093F524A3E493F52574092524F526E43525F5277900852482852583A3A3A3A3A3F8
:2008E500E493FAB50B02800302099CA826AA2788828A83E493FBA3E493FD8B828D83A3E4B3
:2009050093F5287404B5283588828A83E493F529A3E493F52A852982852A83A3A3E493B5DF
:200925002111852982852A83A3A3A3E493FBB5220280047B0080027B018B0180427405B571
:20094500283DE9603A88828A83E493FBA3E493FD8B828D83A3A3E493FD740F5DFC5305807F
:20096500E423CDC423541F6DCD541FCD6DCD30E40244E0FB90E683ED4CF0E043E020F074B2
:1C0985000228F8E43AFA88828A83E493FBA3E493FD4B60030208F405230208A6F8
:040B64000403090479
:0109A1003223
:0109A2003222
:0109A3003221
:2009A400AA82AB83AC21AD22AE23AF24EE60010FEF601775AF078A9B8B9A8C9E8D9D90E696
:0B09C4007CE090E67BF0DEF6DFF42222
:0109CF0032F5
:0109D00032F4
:0109D10032F3
:0109D20032F2
:0109D30032F1
:0109D40032F0
:1909D500AF82E514700F8F21851422903E0012088A758201227582002250
:0409EE0075820022EC
:0109F20032D2
:0C09F300858210851511903E0002062739
:0109FF0032C5
:0A0A000090E6A07480F075820122D8
:1A0A0A0090E740E4F090E6B504F090E68AE4F090E68B04F090E6A003F02234
:1C0A240090E740E50BF090E6B57401F090E68AE4F090E68B04F090E6A003F0229B
:200A4000E583700BE58224FA400122B4001122E5826003D5E0FD0075E0FED583F674F9D585
:200A6000E0FD22C007C006C001C000AE82AF83EE2EF8EF33F9EE28FEEF39FF90E600E0F84F
:200A8000794C20E416C3EF13CE13CEFF795AE820E309C3EF13CE13CEFF7963E58124FAF872
:200AA000E926C313C313F9C3EE99F582EF9400F583D000D001D006D007500122020A407445
:200AC00011C0E0120A63158122C007C006AE82AF837411C0E0EE4F600D1EBEFF011F9003E2
:0D0AE000E8120A6380EF1581D006D00722CE
:1E0AED00E582FF6003BF01128F0B7521FF7522FF903E0012088A7582012275820022E6
:00000001FF
