:06000000020069020A4A39
:03000B00020A6B7B
:03001300020A4C92
:03001B00020A8E48
:03002300020AF6D8
:03002B00020A9036
:03003300020A922C
:03003B00020AF7BF
:03004300020100B7
:03004B00020A4B5B
:03005300020100A7
:03005B00020A4D49
:03006300020A4E40
:0900C200750800750905020066CD
:0300660002063E51
:2001C400AD82AE83AFF074032DFDE43EFE7C007B20EB60328B011BE954076002800F8D82DC
:2001E4008E838FF0120AFBFC1DBDFF011EEC30E70575800480037580004380027580008CA1
:2002040002EA2AFC80CB758001758000227F007C007D3E7E007B00C3EB6480949850158C12
:20022400828D838EF0120AFBFAA3AC82AD83EA62070B80E38F8222E508600790E6A07401C5
:20024400F0227508012290E6B8E0FFE4BF400104FE601890E6B9E0FDBDB01090E6BAE0F5EF
:200264000975080090E6A07480F022E4BFC00104FD7006EE700302039790E6B9E0FCBCA297
:20028400028008BCA9028003020397EF235401F50AE4BCA90104F50B600679517A00800468
:2002A40079507A00890C90E6BAE0F50DA3E0F50E90E6BEE0F50FA3E0F510750800E50F4574
:2002C400107003020396AB0FAC10C3EB9440EC9400500280047B407C00E50A604990E6A0C9
:2002E400E020E1F97523407524E77525008B26752700850D21850E22850B28850C82120696
:2003040059E582700990E6A07401F002039690E6B57401F090E68AE4F090E68BEBF090E6D4
:20032400A07480F0804A90E6B57401F090E68AE4F090E68BF090E6A07480F090E6A0E02006
:20034400E1F9752D40752EE7752F008B30753100850D2B850E2C850B328509337534A6857B
:200364000C821206D4E582700790E6A07401F0227C00A90FAA10E9C39BF9EA9CFA890F8AB4
:2003840010A80DAA0EEB28FBEC3AFC8B0D8C0E0202C122ED7006EE700302048090E6B9E03A
:2003A400FCBCA3028003020480EF235401F51190E6BAE0F512A3E0F51390E6BEE0F9A3E034
:2003C400FA750800E94A700302047F89008A07C3E89440EF94005002800478407F00E51158
:2003E400603C90E6A0E020E1F9851246851347884875490090E740C002C001C000120838D7
:20040400D000D001D00290E6B57401F090E68AE4F090E68BE8F090E6A07480F0803B90E6FD
:20042400B57401F090E68AE4F090E68BF090E6A07480F090E6A0E020E1F9851282851383BB
:200444007546407547E789488A49C002C001C000120838D000D001D0027F0089038A04EBCA
:20046400C398FBEC9FFC8B018C02AB12AC13E82BF8EF3CFF88128F130203C822EE70030242
:20048400050590E6B9E0FFBFDD02800302050575080090E6B57401F090E68AE4F090E68B31
:2004A400F090E6A07480F090E6A0E020E1F990E68BE0FFBF0402800B90E68BE0FFBF050288
:2004C40080012290E740E05407FF24FA5001227C00EF2FFFEC33FCEF2FFFEC33FCEF2400F4
:2004E400FFEC343EFC8F828C837546407547E775480475490012083890E74075F0000201F1
:20050400C4EE700302058E90E6B9E0FFBFDE02800302058E75080090E6B57401F090E68A4B
:20052400E4F090E68BF090E6A07480F090E6A0E020E1F990E6BAE0FEA3E04E6012903E1ECB
:2005440074ECF0120211AF82903E1FEFF0800C754620754700903E00120A6D752D00752E66
:200564003E752F00752BE0752C1F7530207531007532017533057534A67582511206D4E52D
:2005840082700690E6A07401F022ED603090E6B9E0FFBFDF2890E6A0E020E1F9E5905401B7
:2005A40090E740F090E6B57401F090E68AE4F090E68B04F090E6A003F07508002290E6A079
:2005C4007401F02275B2077580002275230075243E7525007521E075221F752620752700BF
:2005E400752801758251120659E582604C903E1EE0FFBFEC44903E1FE0FFC007120211AE6D
:2006040082D007EFB506327F05EF20E72CEFFD3395E0FEED2DFDEE33FEED2DFDEE33FEED10
:200624002400FDEE343EFE7C008D828E838CF0C0071201C4D0071F80D02290E6007412F02D
:150644001205C81205CF758201120B17E50860FC12024A80F792
:2013120012010002FFFFFF4056040DB43400010203010904000000FFFFFF000902000001FD
:2013320001008064241300002D1340134F13414E414C4F47204445564943455300455641D9
:0A1352004C2D414446343335310080
:0A13600012130000013A13023C13BF
:20065900C007C006C005AF82E528600AAE228E29AE218E2A8004AE218E29EF2FFFF58212C9
:20067900089CE5826048E528FD3395E0FE0DBD00010E8D158E1690002975F0401208D0E5B2
:2006990082602B74014FF58212089CE582601F8526178527188523828524838525F01209CC
:2006B90047E5827004F582800B75820180061208B4758200D005D006D00722C007C006C0C9
:2006D90005C004C003C002C001C000AF82E4F535F536EF2FFFF58212089CE582700302089A
:2006F90012AC338CF005F07B017C008006EB2BFBEC33FCD5F0F7C3E5359530E53695314056
:2007190003020812E532600AAA2C8A37AA2B8A388004AA2B8A37E532FA3395E0FE0ABA005D
:20073900010E8A158E1690003775F0401208D0E5827003020812C007852B82852C838B0545
:200759008C068D468E47C006C005C004C003C001C000120A94AA82AF83D000D001D003D061
:2007790004D005D006EDC39AFDEE9FFE8D398E3AE530C39535FEE5319536FFC3EE9539EF63
:20079900953AD007500DE530C39535F539E5319536F53AE535252DFAE536352EFDAE2F851A
:2007B9003915853A168A828D838EF01208D0E58260471208B4E5827004F58280517E00E517
:2007D900346006C3EE9534500C8F8212089CE58270030E80EAEEB534057582008030E539D6
:2007F900252BF52BE53A352CF52CE5392535F535E53A3536F53602070F1208B4E530B53593
:1F08190008E531B53603D38001C3E433F582D000D001D002D003D004D005D006D0072251
:20083800AA82AB83AC46AD47AE48AF49EE60010FEF601775AF078A9B8B9A8C9E8D9D90E66F
:0B0858007CE090E67BF0DEF6DFF4228F
:20086300C007AF8290E678E020E00CE51460F5751400758200801F90E678E030E20575825A
:20088300008013EF600D90E678E0FFA2E1E433F5828003758201D00722C007AF8290E6782E
:2008A3007480F090E679EFF0758201120863D0072290E678E030E2047582002290E67874B6
:2008C30040F090E678E020E6F975820122C007C006C005C004C003C002C001C000AD82AE05
:2008E30083AFF0E5154516700575820180457B007C00EBB51506ECB516028027EB2DF8EC3E
:200903003EF98F02888289838AF0120AFBF890E679F0758201120863E58260070BBB00D2B3
:200923000C80CFEBB51507ECB51603D38001C3E433F582D000D001D002D003D004D005D07F
:2009430006D00722C007C006C005C004C003C002C001C00085821985831A85F01BE5174566
:20096300187006758201020A39AB17AC18BB0109BC000690E6787420F090E679E07B007C64
:200983000079007A00E9B51707EAB51803020A16758200120863E5827003020A2989008A33
:2009A30007740228F8E43FFFE8B5170AEFB5180690E6787420F089068A070EBE00010FEE99
:2009C300B5172CEFB5182875AF03759AE6759B7890E67B7440F0E0AFE0E92519F8EA351A38
:2009E300FDAE1B88828D838EF0EF120A4F8018E92519FDEA351AFEAF1B90E679E0F88D82A9
:200A03008E838FF0120A4F09B900010A89038A0402098890E678E030E2057582008017905B
:200A2300E678E020E6F9EBB51707ECB51803D38001C3E433F582D000D001D002D003D0043D
:070A4300D005D006D0072208
:06009800E478FFF6D8FD3C
:010A4A003279
:010A4B003278
:010A4C003277
:20007600790AE94400601B7A01901360782075923EE493F2A308B800020592D9F4DAF27571
:0200960092FFD7
:010A4D003276
:010A4E003275
:03010000020BC02F
:03010400020AF8F4
:03010800020AE503
:03010C00020AF4F0
:03011000020AFAE6
:030114000211DBFA
:03011800020AE2F6
:03011C000201B825
:03012000020AECE4
:030124000211D9EC
:03012800020AEDDB
:03012C000211DAE3
:03013000021206B2
:03013400020A6A52
:03013800020A6C4C
:03013C00020A9123
:03014000020AE9C7
:030144000201B8FD
:030148000211D3CE
:03014C000211D4C9
:030150000211D5C4
:030154000211D6BF
:030158000211D7BA
:03015C000211D8B5
:03016000020AF997
:030164000201B8DD
:030168000201B8D9
:03016C000201B8D5
:03017000020AEB95
:03017400020AEE8E
:03017800020AF088
:03017C00020AF282
:03018000020AEF81
:03018400020AF17B
:03018800020AF375
:03018C00020AF56F
:03019000020A93CD
:03019400020AE379
:03019800020AE672
:03019C00020AE86C
:0301A000020AE16F
:0301A400020AE468
:0301A800020AE761
:0301AC00020AEA5A
:0301B000020A8FB1
:0301B4000211F93C
:0101B8003214
:1B0A4F0020F71130F6138883A88220F509F6A8837583002280FEF280F5F022A6
:010A6A003259
:010A6B003258
:010A6C003257
:200A6D00AA82AB83AC46AD47EC60010DED601175AF038A9B8B9A90E67B7400F0DCFDDDFBFA
:010A8D002246
:010A8E003235
:010A8F003234
:010A90003233
:010A91003232
:010A92003231
:010A93003230
:200A9400E546454760467A01E54625E0F546E547334012F547E5829546E583954740030A3F
:200AB40080E6C3E54713F547E54613F546C3E5829546F5F0E58395474005F58385F082C360
:0D0AD400E54713F547E54613F546DAE12244
:010AE10032E2
:20009E007800E84400600A790075923EE4F309D8FC7820E84400600C7901903E00E4F0A3D3
:0400BE00D8FCD9FA97
:010AE20032E1
:010AE30032E0
:010AE40032DF
:010AE50032DE
:010AE60032DD
:010AE70032DC
:010AE80032DB
:010AE90032DA
:010AEA0032D9
:010AEB0032D8
:010AEC0032D7
:010AED0032D6
:010AEE0032D5
:010AEF0032D4
:010AF00032D3
:010AF10032D2
:010AF20032D1
:010AF30032D0
:010AF40032CF
:010AF50032CE
:010AF60032CD
:010AF70032CC
:010AF80032CB
:010AF90032CA
:010AFA0032C9
:0D0069007581511211F5E5826003020066F9
:1C0AFB0020F71430F6148883A88220F507E6A88375830022E280F7E49322E0220A
:200B1700AF82753C00753D00D2E890E668E043E008F090E65CE043E001F090E65D7401F099
:200B3700D2AF90E680E020E10890E680E043E002F0EF600E90E680E043E008F090000A1259
:200B570012D090E680E053E0F7F022AF82BF00028037BF01028036BF02028039BF040280A8
:200B770038BF06028037BF08028036BF80028019BF8102801CBF8202801BBF8402801ABFF5
:200B970086028019BF881E801890E6A02290E6A12290E6A22290E6A32290E6A42290E6A5E3
:200BB7002290E6A62290000022C020C0E0C0F0C082C083C007C006C005C004C003C002C0FC
:200BD70001C000C0D075D000C08675860090E6B8E0FFE4BF800104FE601990E6B9E0FDBDB2
:200BF700061190E6BAE0FCA3E0F5828C1D1211FA020E31EF702790E6B9E0FDBD091F90E6CD
:200C1700BAE0F5821212F4E582600990E6A07480F0020E3190E6A07401F0020E31EE600E71
:200C370090E6B9E0FDBD080612122B020E318F05BD012E90E6B9E0FDBD0B2690E6BCE0FDAD
:200C570090E6BAE0F51C8D821211DCE582600990E6A07480F0020E3190E6A07401F0020EB8
:200C770031E4BF810104FD601490E6B9E0FCBC0A0C90E6BCE0F582121211020E31EF703621
:200C970090E6B9E0FCBC032E90E6BAE0FBA3E0FCBB010FBC000C753C0190E6A07480F0027A
:200CB7000E31BB0205BC00028003020E3190E6A07480F0020E31EE603290E6B9E0702CAE86
:200CD7003BE53C25E0FC420690E740EEF090E741E4F090E6B504F090E68AE4F090E68B74CF
:200CF70002F090E6A07480F0020E31ED602890E6B9E0702290E740E4F090E741F090E6B53C
:200D170004F090E68AE4F090E68B7402F090E6A07480F0020E31BF02028003020DDC90E6AB
:200D3700B9E0FEBE03028008BE01028003020DDC90E6BAE0FDA3E0FE4D6003020E3190E696
:200D5700BCE0F582120B62AD82AE83ED4E7003020E3190E6B9E0FCBC03188D828E83E0FCBD
:200D77004304018D828E83ECF090E6A07480F0020E3190E6BCE0F582C006C005121207E5B9
:200D970082D005D0067003020E318D828E83E0FC5304FE8D828E83ECF090E6BCE0FDA3E07C
:200DB7008D0453040F530580E4C423CDC423541F6DCD541FCD6DCDFE90E683ED4CF0E04364
:200DD700E020F08055BF824C90E6B9E0704690E6BCE0F582120B62AE82AF83EE4F603B8E15
:200DF700828F83E0FE5306017F00EE4FB40100B3E433FF90E740F090E741E4F090E6B50474
:200E1700F090E68AE4F090E68B7402F090E6A07480F0800690E6B812023B5391EF90E65DED
:200E37007401F0D086D0D0D000D001D002D003D004D005D006D007D083D082D0F0D0E0D0BF
:200E57002032AE82AF837401B54228E54370248E828F83E493FCA3E493FD8C468D478C8217
:200E77008D83E493FC8C4875490090E0001208380210A17406B54238E54370348E828F833A
:200E9700A3A3E493FCA3E493FD4C700790E6A07401F0228C028D038A468B478C828D83E449
:200EB70093FC8C4875490090E0001208380210A17402B542028003020FCD8E828F83A3A34D
:200ED700A3A3E493FDC3E5439D4003020FCD8E828F83A3A3A3A3A3E493FCA3E493FDE54395
:200EF70075F002A42CF582ED35F0F583E493FCA3E493FD74092CFAE43DFB8C008D01884672
:200F170089478C828D83E493F9894875490090E000C005C004C003C002120838D002D00358
:200F3700D004D0058C828D83E4932400FCE434E0FD8C448D458A828B83E493F8A3E493F909
:200F57008846894788828983E493F88848754900854482854583C005C004C003C002120809
:200F770038D002D003D004D0058A828B83E493F8A3E493F988828983E4932CFCE43DFD74F1
:200F9700022AFAE43BFB8A828B83E493F8A3E493F948709D90E002E0FAA3E0FB4A60030290
:200FB70010A1ECC39400FCED94E0FD90E002ECF0EDA3F00210A17403B5420474018001E4FF
:200FD700FD601EE543701A75465C75471390135CE493FC8C4875490090E00012083802100F
:200FF700A1ED700302109AAC437D00EC24FFFAED34FFFB74072EF582E43FF583E493F879FA
:2010170000C3EA98EB648089F063F08095F0507374082EF582E43FF583E493FEA3E493FFC7
:201037001CBCFF011DEC2CFCED33FDEC2EF582ED3FF583E493FEA3E493FF90E0007402F0DA
:2010570090E00104F074012401FCE434E0FD8E828F83E493FB60330EBE00010F8C828D8368
:20107700EBF074012CFAE43DFB8A828B83E4F0042AFCE43BFD90E000E0FB0B0B90E000EBD7
:20109700F080CB90E6A07401F0227E007FE090E6B57401F090E6B3EFF090E6B4EEF090E66E
:2010B700A07480F022AE82AF83A3A3A3A3A3E493F550A3E493F55174042EFEE43FFF754843
:2010D700008E828F83E493FAC3E5489A400122E54875F002A42550F582E55135F0F583E49E
:2010F70093F549A3E493F54A74092549F54BE4354AF54C7900854982854A83A3A3A3A3A396
:20111700E493FAB53D0280030211CEA84BAA4C88828A83E493FBA3E493FD8B828D83A3E4C2
:2011370093F54D7404B54D3588828A83E493F54EA3E493F54F854E82854F83A3A3E493B5C7
:201157004611854E82854F83A3A3A3E493FBB5470280047B0080027B018B0180427405B5A3
:201177004D3DE9603A88828A83E493FBA3E493FD8B828D83A3A3E493FD740F5DFC53058020
:20119700E423CDC423541F6DCD541FCD6DCD30E40244E0FB90E683ED4CF0E043E020F07478
:1C11B7000228F8E43AFA88828A83E493FBA3E493FD4B600302112605480210D824
:04135C000403090479
:0111D30032E9
:0111D40032E8
:0111D50032E7
:0111D60032E6
:0111D70032E5
:0111D80032E4
:0111D90032E3
:0111DA0032E2
:0111DB0032E1
:1911DC00AF82E51C700F8F46851C47903E201210BC75820122758200228D
:0411F50075820022DD
:0111F90032C3
:0C11FA00858242851D43903E20020E5964
:0112060032B5
:0A12070090E6A07480F075820122C9
:1A12110090E740E4F090E6B504F090E68AE4F090E68B04F090E6A003F02225
:1C122B0090E740E53DF090E6B57401F090E68AE4F090E68B04F090E6A003F0225A
:20124700E583700BE58224FA400122B4001122E5826003D5E0FD0075E0FED583F674F9D576
:20126700E0FD22C007C006C001C000AE82AF83EE2EF8EF33F9EE28FEEF39FF90E600E0F840
:20128700794C20E416C3EF13CE13CEFF795AE820E309C3EF13CE13CEFF7963E58124FAF863
:2012A700E926C313C313F9C3EE99F582EF9400F583D000D001D006D0075001220212477427
:2012C70011C0E012126A158122C007C006AE82AF837411C0E0EE4F600D1EBEFF011F9003C4
:0D12E700E812126A80EF1581D006D00722B0
:1E12F400E582FF6003BF01128F3D7546FF7547FF903E201210BC758201227582002201
:00000001FF
