:0600000002006902081B6A
:03000B0002083CAC
:0300130002081DC3
:03001B0002085F79
:030023000208C709
:03002B0002086167
:030033000208635D
:03003B000208C8F0
:03004300020100B7
:03004B0002081C8C
:03005300020100A7
:03005B0002081E7A
:0300630002081F71
:0600C20075080002006653
:0300660002040F82
:2001C100AD82AE83AFF074032DFDE43EFE7C007B20EB60328B011BE954076002800F8D82DF
:2001E1008E838FF01208CCFC1DBDFF011EEC30E70575800480037580008C02EA2AFC4380BA
:200201000275800080CB438001758000227F007C007D3E7E007B00C3EB6480949850158C62
:20022100828D838EF01208CCFAA3AC82AD83EA62070B80E38F8222E508600790E6A07401F9
:20024100F0227508012290E6B8E0FFE4BF400104FE70030202D690E6B9E0FDBDDD02800380
:200261000202D675080090E6B57401F090E68AE4F090E68BF090E6A07480F090E6A0E020C1
:20028100E1F990E68BE0FDBD0402800B90E68BE0FDBD050280012290E740E05407FD24FA05
:2002A1005001227C00ED2DFDEC33FCED2DFDEC33FCED2400FDEC343EFC8D828C83753B4074
:2002C100753CE7753D04753E0012042A90E74075F0000201C1EE700302035F90E6B9E0FE2A
:2002E100BEDE02800302035F75080090E6B57401F090E68AE4F090E68BF090E6A07480F0AC
:2003010090E6A0E020E1F990E6BAE0FDA3E04D6012903E1E74ECF012020EAE82903E1FEE34
:20032100F0800C753B20753C00903E0012083E752D00752E3E752F00752BE0752C1F75308D
:20034100207531007532017533057534A67582511204D0E582700690E6A07401F022BFC00B
:200361003090E6B9E0FFBFE02890E6A0E020E1F9E590540190E740F090E6B57401F090E610
:200381008AE4F090E68B04F090E6A003F07508002290E6A07401F02275B20775800022750A
:2003A100230075243E7525007521E075221F752620752700752801758251120455E582600D
:2003C1004C903E1EE0FFBFEC44903E1FE0FFC00712020EAE82D007EFB506327F05EF20E704
:2003E1002CEFFD3395E0FEED2DFDEE33FEED2DFDEE33FEED2400FDEE343EFE7C008D828E4D
:20040100838CF0C0071201C1D0071F80D02290E6007412F01203991203A07582011208E890
:09042100E50860FC12024780F7B7
:2010E30012010002FFFFFF4056040DB43300010203010904000000FFFFFF00090200000130
:2011030001008064F5100000FE10131122112F11414E414C4F472044455649434553004523
:1811230056414C2D41444634333531004558502E20454550524F4D0009
:0A113F00E3100000010B11030D1175
:20042A00AA82AB83AC3BAD3CAE3DAF3EEE60010FEF601775AF078A9B8B9A8C9E8D9D90E6AD
:0B044A007CE090E67BF0DEF6DFF422A1
:20045500C007C006C005AF82E528600AAE228E29AE218E2A8004AE218E29EF2FFFF58212CF
:20047500066DE5826048E528FD3395E0FE0DBD00010E8D0A8E0B90002975F0401206A1E530
:2004950082602B74014FF58212066DE582601F85260C85270D8523828524838525F012071B
:2004B50018E5827004F582800B7582018006120685758200D005D006D00722C007C006C02F
:2004D50005C004C003C002C001C000AF82E4F535F536EF2FFFF58212066DE58270030206D3
:2004F5000EAC338CF005F07B017C008006EB2BFBEC33FCD5F0F7C3E5359530E53695314060
:200515000302060EE532600AAA2C8A37AA2B8A388004AA2B8A37E532FA3395E0FE0ABA0069
:20053500010E8A0A8E0B90003775F0401206A1E582700302060EC007852B82852C838B0598
:200555008C068D3B8E3CC006C005C004C003C001C000120865AA82AF83D000D001D003D0AE
:2005750004D005D006EDC39AFDEE9FFE8D398E3AE530C39535FEE5319536FFC3EE9539EF69
:20059500953AD007500DE530C39535F539E5319536F53AE535252DFAE536352EFDAE2F8520
:2005B500390A853A0B8A828D838EF01206A1E5826047120685E5827004F58280517E00E595
:2005D500346006C3EE9534500C8F8212066DE58270030E80EAEEB534057582008030E5390D
:2005F500252BF52BE53A352CF52CE5392535F535E53A3536F53602050B120685E530B535D0
:1F06150008E531B53603D38001C3E433F582D000D001D002D003D004D005D006D0072257
:20063400C007AF8290E678E020E00CE50960F5750900758200801F90E678E030E2057582A1
:20065400008013EF600D90E678E0FFA2E1E433F5828003758201D00722C007AF8290E6785F
:200674007480F090E679EFF0758201120634D0072290E678E030E2047582002290E6787418
:2006940040F090E678E020E6F975820122C007C006C005C004C003C002C001C000AD82AE36
:2006B40083AFF0E50A450B700575820180457B007C00EBB50A06ECB50B028027EB2DF8EC9B
:2006D4003EF98F02888289838AF01208CCF890E679F0758201120634E58260070BBB00D247
:2006F4000C80CFEBB50A07ECB50B03D38001C3E433F582D000D001D002D003D004D005D0C7
:2007140006D00722C007C006C005C004C003C002C001C00085820E85830F85F010E50C45C3
:200734000D700675820102080AAB0CAC0DBB0109BC000690E6787420F090E679E07B007CE7
:200754000079007A00E9B50C07EAB50D030207E7758200120634E58270030207FA89008A0F
:2007740007740228F8E43FFFE8B50C0AEFB50D0690E6787420F089068A070EBE00010FEEE0
:20079400B50C2CEFB50D2875AF03759AE6759B7890E67B7440F0E0AFE0E9250EF8EA350F95
:2007B400FDAE1088828D838EF0EF1208208018E9250EFDEA350FFEAF1090E679E0F88D8237
:2007D4008E838FF012082009B900010A89038A0402075990E678E030E205758200801790EF
:2007F400E678E020E6F9EBB50C07ECB50D03D38001C3E433F582D000D001D002D003D00485
:07081400D005D006D0072239
:06009800E478FFF6D8FD3C
:01081B0032AA
:01081C0032A9
:01081D0032A8
:20007600790AE94400601B7A0190113F782075923EE493F2A308B800020592D9F4DAF27594
:0200960092FFD7
:01081E0032A7
:01081F0032A6
:0301000002099160
:030104000208C925
:030108000208B634
:03010C000208C521
:030110000208CB17
:03011400020FAC2B
:030118000208B327
:03011C000201B825
:030120000208BD15
:03012400020FAA1D
:030128000208BE0C
:03012C00020FAB14
:03013000020FD7E4
:0301340002083B83
:0301380002083D7D
:03013C0002086254
:030140000208BAF8
:030144000201B8FD
:03014800020FA4FF
:03014C00020FA5FA
:03015000020FA6F5
:03015400020FA7F0
:03015800020FA8EB
:03015C00020FA9E6
:030160000208CAC8
:030164000201B8DD
:030168000201B8D9
:03016C000201B8D5
:030170000208BCC6
:030174000208BFBF
:030178000208C1B9
:03017C000208C3B3
:030180000208C0B2
:030184000208C2AC
:030188000208C4A6
:03018C000208C6A0
:03019000020864FE
:030194000208B4AA
:030198000208B7A3
:03019C000208B99D
:0301A0000208B2A0
:0301A4000208B599
:0301A8000208B892
:0301AC000208BB8B
:0301B000020860E2
:0301B400020FCA6D
:0101B8003214
:1B08200020F71130F6138883A88220F509F6A8837583002280FEF280F5F022D7
:01083B00328A
:01083C003289
:01083D003288
:20083E00AA82AB83AC3BAD3CEC60010DED601175AF038A9B8B9A90E67B7400F0DCFDDDFB41
:01085E002277
:01085F003266
:010860003265
:010861003264
:010862003263
:010863003262
:010864003261
:20086500E53B453C60467A01E53B25E0F53BE53C334012F53CE582953BE583953C40030AC8
:2008850080E6C3E53C13F53CE53B13F53BC3E582953BF5F0E583953C4005F58385F082C3D3
:0D08A500E53C13F53CE53B13F53BDAE122A1
:0108B2003213
:20009E007800E84400600A790075923EE4F309D8FC7820E84400600C7901903E00E4F0A3D3
:0400BE00D8FCD9FA97
:0108B3003212
:0108B4003211
:0108B5003210
:0108B600320F
:0108B700320E
:0108B800320D
:0108B900320C
:0108BA00320B
:0108BB00320A
:0108BC003209
:0108BD003208
:0108BE003207
:0108BF003206
:0108C0003205
:0108C1003204
:0108C2003203
:0108C3003202
:0108C4003201
:0108C5003200
:0108C60032FF
:0108C70032FE
:0108C80032FD
:0108C90032FC
:0108CA0032FB
:0108CB0032FA
:0D006900758146120FC6E582600302006635
:1C08CC0020F71430F6148883A88220F507E6A88375830022E280F7E49322E0223B
:2008E800AF82751200751300D2E890E668E043E008F090E65CE043E001F090E65D7401F01F
:20090800D2AF90E680E020E10890E680E043E002F0EF600E90E680E043E008F090000A128A
:2009280010A190E680E053E0F7F022AF82BF00028037BF01028036BF02028039BF0402800A
:2009480038BF06028037BF08028036BF80028019BF8102801CBF8202801BBF8402801ABF26
:2009680086028019BF881E801890E6A02290E6A12290E6A22290E6A32290E6A42290E6A514
:200988002290E6A62290000022C020C0E0C0F0C082C083C007C006C005C004C003C002C02D
:2009A80001C000C0D075D000C08675860090E6B8E0FFE4BF800104FE601990E6B9E0FDBDE3
:2009C800061190E6BAE0FCA3E0F5828C1D120FCB020C02EF702790E6B9E0FDBD091F90E660
:2009E800BAE0F5821210C5E582600990E6A07480F0020C0290E6A07401F0020C02EE600E36
:200A080090E6B9E0FDBD0806120FFC020C028F05BD012E90E6B9E0FDBD0B2690E6BCE0FD41
:200A280090E6BAE0F51C8D82120FADE582600990E6A07480F0020C0290E6A07401F0020C4D
:200A480002E4BF810104FD601490E6B9E0FCBC0A0C90E6BCE0F582120FE2020C02EF7036E4
:200A680090E6B9E0FCBC032E90E6BAE0FBA3E0FCBB010FBC000C75120190E6A07480F002D5
:200A88000C02BB0205BC00028003020C0290E6A07480F0020C02EE603290E6B9E0702CAE4A
:200AA80011E51225E0FC420690E740EEF090E741E4F090E6B504F090E68AE4F090E68B7454
:200AC80002F090E6A07480F0020C02ED602890E6B9E0702290E740E4F090E741F090E6B59E
:200AE80004F090E68AE4F090E68B7402F090E6A07480F0020C02BF02028003020BAD90E63F
:200B0800B9E0FEBE03028008BE01028003020BAD90E6BAE0FDA3E0FE4D6003020C0290E629
:200B2800BCE0F582120933AD82AE83ED4E7003020C0290E6B9E0FCBC03188D828E83E0FC50
:200B48004304018D828E83ECF090E6A07480F0020C0290E6BCE0F582C006C005120FD8E54D
:200B680082D005D0067003020C028D828E83E0FC5304FE8D828E83ECF090E6BCE0FDA3E0DE
:200B88008D0453040F530580E4C423CDC423541F6DCD541FCD6DCDFE90E683ED4CF0E04395
:200BA800E020F08055BF824C90E6B9E0704690E6BCE0F582120933AE82AF83EE4F603B8E77
:200BC800828F83E0FE5306017F00EE4FB40100B3E433FF90E740F090E741E4F090E6B504A5
:200BE800F090E68AE4F090E68B7402F090E6A07480F0800690E6B81202385391EF90E65D22
:200C08007401F0D086D0D0D000D001D002D003D004D005D006D007D083D082D0F0D0E0D0F0
:200C28002032AE82AF837401B51828E51970248E828F83E493FCA3E493FD8C3B8D3C8C82B2
:200C48008D83E493FC8C3D753E0090E00012042A020E727406B51838E51970348E828F8318
:200C6800A3A3E493FCA3E493FD4C700790E6A07401F0228C028D038A3B8B3C8C828D83E490
:200C880093FC8C3D753E0090E00012042A020E727402B518028003020D9E8E828F83A3A332
:200CA800A3A3E493FDC3E5199D4003020D9E8E828F83A3A3A3A3A3E493FCA3E493FDE5194B
:200CC80075F002A42CF582ED35F0F583E493FCA3E493FD74092CFAE43DFB8C008D01883BAE
:200CE800893C8C828D83E493F9893D753E0090E000C005C004C003C00212042AD002D003BD
:200D0800D004D0058C828D83E4932400FCE434E0FD8C1A8D1B8A828B83E493F8A3E493F98E
:200D2800883B893C88828983E493F8883D753E00851A82851B83C005C004C003C0021204BE
:200D48002AD002D003D004D0058A828B83E493F8A3E493F988828983E4932CFCE43DFD7430
:200D6800022AFAE43BFB8A828B83E493F8A3E493F948709D90E002E0FAA3E0FB4A600302C1
:200D88000E72ECC39400FCED94E0FD90E002ECF0EDA3F0020E727403B5180474018001E4BC
:200DA800FD601EE519701A753B3B753C1190113BE493FC8C3D753E0090E00012042A020EF0
:200DC80072ED7003020E6BAC197D00EC24FFFAED34FFFB74072EF582E43FF583E493F879B5
:200DE80000C3EA98EB648089F063F08095F0507374082EF582E43FF583E493FEA3E493FFF9
:200E08001CBCFF011DEC2CFCED33FDEC2EF582ED3FF583E493FEA3E493FF90E0007402F00B
:200E280090E00104F074012401FCE434E0FD8E828F83E493FB60330EBE00010F8C828D8399
:200E4800EBF074012CFAE43DFB8A828B83E4F0042AFCE43BFD90E000E0FB0B0B90E000EB08
:200E6800F080CB90E6A07401F0227E007FE090E6B57401F090E6B3EFF090E6B4EEF090E69F
:200E8800A07480F022AE82AF83A3A3A3A3A3E493F545A3E493F54674042EFEE43FFF753D95
:200EA800008E828F83E493FAC3E53D9A400122E53D75F002A42545F582E54635F0F583E4FB
:200EC80093F53EA3E493F53F7409253EF540E4353FF5417900853E82853F83A3A3A3A3A31F
:200EE800E493FAB513028003020F9FA840AA4188828A83E493FBA3E493FD8B828D83A3E465
:200F080093F5427404B5423588828A83E493F543A3E493F544854382854483A3A3E493B53A
:200F28003B11854382854483A3A3A3E493FBB53C0280047B0080027B018B0180427405B500
:200F4800423DE9603A88828A83E493FBA3E493FD8B828D83A3A3E493FD740F5DFC5305805C
:200F6800E423CDC423541F6DCD541FCD6DCD30E40244E0FB90E683ED4CF0E043E020F074A9
:1C0F88000228F8E43AFA88828A83E493FBA3E493FD4B6003020EF7053D020EA9C3
:04113B00040309049C
:010FA400321A
:010FA5003219
:010FA6003218
:010FA7003217
:010FA8003216
:010FA9003215
:010FAA003214
:010FAB003213
:010FAC003212
:190FAD00AF82E51C700F8F3B851C3C903E20120E8D758201227582002205
:040FC600758200220E
:010FCA0032F4
:0C0FCB00858218851D19903E20020C2A1A
:010FD70032E7
:0A0FD80090E6A07480F075820122FB
:1A0FE20090E740E4F090E6B504F090E68AE4F090E68B04F090E6A003F02257
:1C0FFC0090E740E513F090E6B57401F090E68AE4F090E68B04F090E6A003F022B6
:20101800E583700BE58224FA400122B4001122E5826003D5E0FD0075E0FED583F674F9D5A7
:20103800E0FD22C007C006C001C000AE82AF83EE2EF8EF33F9EE28FEEF39FF90E600E0F871
:20105800794C20E416C3EF13CE13CEFF795AE820E309C3EF13CE13CEFF7963E58124FAF894
:20107800E926C313C313F9C3EE99F582EF9400F583D000D001D006D0075001220210187489
:2010980011C0E012103B158122C007C006AE82AF837411C0E0EE4F600D1EBEFF011F900326
:0D10B800E812103B80EF1581D006D0072212
:1E10C500E582FF6003BF01128F13753BFF753CFF903E20120E8D7582012275820022A3
:00000001FF
