:0600000002006902095B29
:03000B0002097C6B
:0300130002095D82
:03001B0002099F38
:03002300020A07C7
:03002B000209A126
:030033000209A31C
:03003B00020A08AE
:03004300020100B7
:03004B0002095C4B
:03005300020100A7
:03005B0002095E39
:0300630002095F30
:0900C200750800750905020066CD
:0300660002054F41
:2001C400AD82AE83AFF074032DFDE43EFE7C007B20EB60328B011BE954076002800F8D82DC
:2001E4008E838FF0120A0CFC1DBDFF011EEC30E70575800480037580004380027580008C90
:2002040002EA2AFC80CB758001758000227F007C007D3E7E007B00C3EB6480949850158C12
:20022400828D838EF0120A0CFAA3AC82AD83EA62070B80E38F8222E508600790E6A07401B4
:20024400F0227508012290E6B8E0FFE4BF400104FE601890E6B9E0FDBDB01090E6BAE0F5EF
:200264000975080090E6A07480F022E4BFC00104FD7006EE700302039190E6B9E0FCBCA29D
:20028400028008BCA9028003020391EF235401F50AE4BCA90104F50B60067A517B0080046C
:2002A4007A507B008A0C90E6BAE0F9A3E0FB90E6BEE0F50DA3E0F50E750800E50D450E700A
:2002C40003020390AA0DAC0EC3EA9440EC9400500280047A407C00E50A604790E6A0E02058
:2002E400E1F97523407524E77525008A2675270089218B22850B28850C8212056AE5827068
:200304000990E6A07401F002039090E6B57401F090E68AE4F090E68BEAF090E6A07480F087
:20032400804890E6B57401F090E68AE4F090E68BF090E6A07480F090E6A0E020E1F9752D10
:2003440040752EE7752F008A30753100892B8B2C850B328509337534A6850C821205E5E59A
:2003640082700790E6A07401F0227C00A80DAF0EE8C39AF8EF9CFF880D8F0E89008B07EAF7
:2003840028FAEC3FFC8A018C030202BF22EE700302041690E6B9E0FFBFDD02800302041649
:2003A40075080090E6B57401F090E68AE4F090E68BF090E6A07480F090E6A0E020E1F990ED
:2003C400E68BE0FFBF0402800B90E68BE0FFBF050280012290E740E05407FF24FA500122AE
:2003E4007C00EF2FFFEC33FCEF2FFFEC33FCEF2400FFEC343EFC8F828C837546407547E7E3
:2004040075480475490012074990E74075F0000201C4EE700302049F90E6B9E0FFBFDE0261
:20042400800302049F75080090E6B57401F090E68AE4F090E68BF090E6A07480F090E6A0AE
:20044400E020E1F990E6BAE0FEA3E04E6012903E1E74ECF0120211AF82903E1FEFF0800C83
:20046400754620754700903E0012097E752D00752E3E752F00752BE0752C1F7530207531A8
:20048400007532017533057534A67582511205E5E582700690E6A07401F022ED603090E603
:2004A400B9E0FFBFE02890E6A0E020E1F9E590540190E740F090E6B57401F090E68AE4F014
:2004C40090E68B04F090E6A003F07508002290E6A07401F02275B20775800022752300758C
:2004E400243E7525007521E075221F75262075270075280175825112056AE582604C903E31
:200504001EE0FFBFEC44903E1FE0FFC007120211AE82D007EFB506327F05EF20E72CEFFDBE
:200524003395E0FEED2DFDEE33FEED2DFDEE33FEED2400FDEE343EFE7C008D828E838CF021
:20054400C0071201C4D0071F80D02290E6007412F01204D91204E0758201120A28E5086037
:06056400FC12024A80F7C0
:2012230012010002FFFFFF4056040DB43400010203010904000000FFFFFF000902000001ED
:2012430001008064351200003E1251126012414E414C4F4720444556494345530045564189
:0A1263004C2D414446343335310070
:0A12710023120000014B12024D127F
:20056A00C007C006C005AF82E528600AAE228E29AE218E2A8004AE218E29EF2FFFF58212B9
:20058A0007ADE5826048E528FD3395E0FE0DBD00010E8D108E1190002975F0401207E1E58C
:2005AA0082602B74014FF5821207ADE582601F8526128527138523828524838525F01208B7
:2005CA0058E5827004F582800B75820180061207C5758200D005D006D00722C007C006C098
:2005EA0005C004C003C002C001C000AF82E4F535F536EF2FFFF5821207ADE582700302077B
:20060A0023AC338CF005F07B017C008006EB2BFBEC33FCD5F0F7C3E5359530E53695314034
:20062A0003020723E532600AAA2C8A37AA2B8A388004AA2B8A37E532FA3395E0FE0ABA003D
:20064A00010E8A108E1190003775F0401207E1E5827003020723C007852B82852C838B051F
:20066A008C068D468E47C006C005C004C003C001C0001209A5AA82AF83D000D001D003D041
:20068A0004D005D006EDC39AFDEE9FFE8D398E3AE530C39535FEE5319536FFC3EE9539EF53
:2006AA00953AD007500DE530C39535F539E5319536F53AE535252DFAE536352EFDAE2F850A
:2006CA003910853A118A828D838EF01207E1E58260471207C5E5827004F58280517E00E5F1
:2006EA00346006C3EE9534500C8F821207ADE58270030E80EAEEB534057582008030E539B6
:20070A00252BF52BE53A352CF52CE5392535F535E53A3536F5360206201207C5E530B53562
:1F072A0008E531B53603D38001C3E433F582D000D001D002D003D004D005D006D0072241
:20074900AA82AB83AC46AD47AE48AF49EE60010FEF601775AF078A9B8B9A8C9E8D9D90E65F
:0B0769007CE090E67BF0DEF6DFF4227F
:20077400C007AF8290E678E020E00CE50F60F5750F00758200801F90E678E030E205758254
:20079400008013EF600D90E678E0FFA2E1E433F5828003758201D00722C007AF8290E6781E
:2007B4007480F090E679EFF0758201120774D0072290E678E030E2047582002290E6787496
:2007D40040F090E678E020E6F975820122C007C006C005C004C003C002C001C000AD82AEF5
:2007F40083AFF0E5104511700575820180457B007C00EBB51006ECB511028027EB2DF8EC42
:200814003EF98F02888289838AF0120A0CF890E679F0758201120774E58260070BBB00D282
:200834000C80CFEBB51007ECB51103D38001C3E433F582D000D001D002D003D004D005D079
:2008540006D00722C007C006C005C004C003C002C001C00085821485831585F016E512456A
:2008740013700675820102094AAB12AC13BB0109BC000690E6787420F090E679E07B007C53
:200894000079007A00E9B51207EAB51303020927758200120774E582700302093A89008AFD
:2008B40007740228F8E43FFFE8B5120AEFB5130690E6787420F089068A070EBE00010FEE93
:2008D400B5122CEFB5132875AF03759AE6759B7890E67B7440F0E0AFE0E92514F8EA35153C
:2008F400FDAE1688828D838EF0EF1209608018E92514FDEA3515FEAF1690E679E0F88D829D
:200914008E838FF012096009B900010A89038A0402089990E678E030E2057582008017902B
:20093400E678E020E6F9EBB51207ECB51303D38001C3E433F582D000D001D002D003D00437
:07095400D005D006D00722F8
:06009800E478FFF6D8FD3C
:01095B003269
:01095C003268
:01095D003267
:20007600790AE94400601B7A01901271782075923EE493F2A308B800020592D9F4DAF27561
:0200960092FFD7
:01095E003266
:01095F003265
:03010000020AD11F
:03010400020A09E3
:030108000209F6F3
:03010C00020A05DF
:03011000020A0BD5
:030114000210ECEA
:030118000209F3E6
:03011C000201B825
:030120000209FDD4
:030124000210EADC
:030128000209FECB
:03012C000210EBD3
:03013000021117A2
:0301340002097B42
:0301380002097D3C
:03013C000209A213
:030140000209FAB7
:030144000201B8FD
:030148000210E4BE
:03014C000210E5B9
:030150000210E6B4
:030154000210E7AF
:030158000210E8AA
:03015C000210E9A5
:03016000020A0A86
:030164000201B8DD
:030168000201B8D9
:03016C000201B8D5
:030170000209FC85
:030174000209FF7E
:03017800020A0177
:03017C00020A0371
:03018000020A0070
:03018400020A026A
:03018800020A0464
:03018C00020A065E
:030190000209A4BD
:030194000209F469
:030198000209F762
:03019C000209F95C
:0301A0000209F25F
:0301A4000209F558
:0301A8000209F851
:0301AC000209FB4A
:0301B0000209A0A1
:0301B40002110A2B
:0101B8003214
:1B09600020F71130F6138883A88220F509F6A8837583002280FEF280F5F02296
:01097B003249
:01097C003248
:01097D003247
:20097E00AA82AB83AC46AD47EC60010DED601175AF038A9B8B9A90E67B7400F0DCFDDDFBEA
:01099E002236
:01099F003225
:0109A0003224
:0109A1003223
:0109A2003222
:0109A3003221
:0109A4003220
:2009A500E546454760467A01E54625E0F546E547334012F547E5829546E583954740030A2F
:2009C50080E6C3E54713F547E54613F546C3E5829546F5F0E58395474005F58385F082C350
:0D09E500E54713F547E54613F546DAE12234
:0109F20032D2
:20009E007800E84400600A790075923EE4F309D8FC7820E84400600C7901903E00E4F0A3D3
:0400BE00D8FCD9FA97
:0109F30032D1
:0109F40032D0
:0109F50032CF
:0109F60032CE
:0109F70032CD
:0109F80032CC
:0109F90032CB
:0109FA0032CA
:0109FB0032C9
:0109FC0032C8
:0109FD0032C7
:0109FE0032C6
:0109FF0032C5
:010A000032C3
:010A010032C2
:010A020032C1
:010A030032C0
:010A040032BF
:010A050032BE
:010A060032BD
:010A070032BC
:010A080032BB
:010A090032BA
:010A0A0032B9
:010A0B0032B8
:0D006900758151121106E5826003020066E8
:1C0A0C0020F71430F6148883A88220F507E6A88375830022E280F7E49322E022F9
:200A2800AF82753C00753D00D2E890E668E043E008F090E65CE043E001F090E65D7401F089
:200A4800D2AF90E680E020E10890E680E043E002F0EF600E90E680E043E008F090000A1249
:200A680011E190E680E053E0F7F022AF82BF00028037BF01028036BF02028039BF04028088
:200A880038BF06028037BF08028036BF80028019BF8102801CBF8202801BBF8402801ABFE5
:200AA80086028019BF881E801890E6A02290E6A12290E6A22290E6A32290E6A42290E6A5D3
:200AC8002290E6A62290000022C020C0E0C0F0C082C083C007C006C005C004C003C002C0EC
:200AE80001C000C0D075D000C08675860090E6B8E0FFE4BF800104FE601990E6B9E0FDBDA2
:200B0800061190E6BAE0FCA3E0F5828C1812110B020D42EF702790E6B9E0FDBD091F90E6A0
:200B2800BAE0F582121205E582600990E6A07480F0020D4290E6A07401F0020D42EE600E30
:200B480090E6B9E0FDBD080612113C020D428F05BD012E90E6B9E0FDBD0B2690E6BCE0FD7D
:200B680090E6BAE0F5178D821210EDE582600990E6A07480F0020D4290E6A07401F0020D8E
:200B880042E4BF810104FD601490E6B9E0FCBC0A0C90E6BCE0F582121122020D42EF7036E0
:200BA80090E6B9E0FCBC032E90E6BAE0FBA3E0FCBB010FBC000C753C0190E6A07480F0026A
:200BC8000D42BB0205BC00028003020D4290E6A07480F0020D42EE603290E6B9E0702CAE46
:200BE8003BE53C25E0FC420690E740EEF090E741E4F090E6B504F090E68AE4F090E68B74BF
:200C080002F090E6A07480F0020D42ED602890E6B9E0702290E740E4F090E741F090E6B51B
:200C280004F090E68AE4F090E68B7402F090E6A07480F0020D42BF02028003020CED90E67B
:200C4800B9E0FEBE03028008BE01028003020CED90E6BAE0FDA3E0FE4D6003020D4290E666
:200C6800BCE0F582120A73AD82AE83ED4E7003020D4290E6B9E0FCBC03188D828E83E0FC8D
:200C88004304018D828E83ECF090E6A07480F0020D4290E6BCE0F582C006C005121118E589
:200CA80082D005D0067003020D428D828E83E0FC5304FE8D828E83ECF090E6BCE0FDA3E05C
:200CC8008D0453040F530580E4C423CDC423541F6DCD541FCD6DCDFE90E683ED4CF0E04354
:200CE800E020F08055BF824C90E6B9E0704690E6BCE0F582120A73AE82AF83EE4F603B8EF5
:200D0800828F83E0FE5306017F00EE4FB40100B3E433FF90E740F090E741E4F090E6B50463
:200D2800F090E68AE4F090E68B7402F090E6A07480F0800690E6B812023B5391EF90E65DDD
:200D48007401F0D086D0D0D000D001D002D003D004D005D006D007D083D082D0F0D0E0D0AF
:200D68002032AE82AF837401B54228E54370248E828F83E493FCA3E493FD8C468D478C8207
:200D88008D83E493FC8C4875490090E000120749020FB27406B54238E54370348E828F830A
:200DA800A3A3E493FCA3E493FD4C700790E6A07401F0228C028D038A468B478C828D83E439
:200DC80093FC8C4875490090E000120749020FB27402B542028003020EDE8E828F83A3A30D
:200DE800A3A3E493FDC3E5439D4003020EDE8E828F83A3A3A3A3A3E493FCA3E493FDE54375
:200E080075F002A42CF582ED35F0F583E493FCA3E493FD74092CFAE43DFB8C008D01884661
:200E280089478C828D83E493F9894875490090E000C005C004C003C002120749D002D00338
:200E4800D004D0058C828D83E4932400FCE434E0FD8C448D458A828B83E493F8A3E493F9F9
:200E68008846894788828983E493F88848754900854482854583C005C004C003C0021207FA
:200E880049D002D003D004D0058A828B83E493F8A3E493F988828983E4932CFCE43DFD74D0
:200EA800022AFAE43BFB8A828B83E493F8A3E493F948709D90E002E0FAA3E0FB4A60030280
:200EC8000FB2ECC39400FCED94E0FD90E002ECF0EDA3F0020FB27403B5420474018001E4CF
:200EE800FD601EE543701A75466D75471290126DE493FC8C4875490090E000120749020FD0
:200F0800B2ED7003020FABAC437D00EC24FFFAED34FFFB74072EF582E43FF583E493F879C8
:200F280000C3EA98EB648089F063F08095F0507374082EF582E43FF583E493FEA3E493FFB7
:200F48001CBCFF011DEC2CFCED33FDEC2EF582ED3FF583E493FEA3E493FF90E0007402F0CA
:200F680090E00104F074012401FCE434E0FD8E828F83E493FB60330EBE00010F8C828D8358
:200F8800EBF074012CFAE43DFB8A828B83E4F0042AFCE43BFD90E000E0FB0B0B90E000EBC7
:200FA800F080CB90E6A07401F0227E007FE090E6B57401F090E6B3EFF090E6B4EEF090E65E
:200FC800A07480F022AE82AF83A3A3A3A3A3E493F550A3E493F55174042EFEE43FFF754833
:200FE800008E828F83E493FAC3E5489A400122E54875F002A42550F582E55135F0F583E48E
:2010080093F549A3E493F54A74092549F54BE4354AF54C7900854982854A83A3A3A3A3A385
:20102800E493FAB53D0280030210DFA84BAA4C88828A83E493FBA3E493FD8B828D83A3E4A2
:2010480093F54D7404B54D3588828A83E493F54EA3E493F54F854E82854F83A3A3E493B5B7
:201068004611854E82854F83A3A3A3E493FBB5470280047B0080027B018B0180427405B593
:201088004D3DE9603A88828A83E493FBA3E493FD8B828D83A3A3E493FD740F5DFC53058010
:2010A800E423CDC423541F6DCD541FCD6DCD30E40244E0FB90E683ED4CF0E043E020F07468
:1C10C8000228F8E43AFA88828A83E493FBA3E493FD4B60030210370548020FE9F4
:04126D000403090469
:0110E40032D9
:0110E50032D8
:0110E60032D7
:0110E70032D6
:0110E80032D5
:0110E90032D4
:0110EA0032D3
:0110EB0032D2
:0110EC0032D1
:1910ED00AF82E517700F8F46851747903E20120FCD758201227582002277
:0411060075820022CC
:01110A0032B2
:0C110B00858242851843903E20020D6A48
:0111170032A5
:0A11180090E6A07480F075820122B9
:1A11220090E740E4F090E6B504F090E68AE4F090E68B04F090E6A003F02215
:1C113C0090E740E53DF090E6B57401F090E68AE4F090E68B04F090E6A003F0224A
:20115800E583700BE58224FA400122B4001122E5826003D5E0FD0075E0FED583F674F9D566
:20117800E0FD22C007C006C001C000AE82AF83EE2EF8EF33F9EE28FEEF39FF90E600E0F830
:20119800794C20E416C3EF13CE13CEFF795AE820E309C3EF13CE13CEFF7963E58124FAF853
:2011B800E926C313C313F9C3EE99F582EF9400F583D000D001D006D0075001220211587407
:2011D80011C0E012117B158122C007C006AE82AF837411C0E0EE4F600D1EBEFF011F9003A4
:0D11F800E812117B80EF1581D006D0072290
:1E120500E582FF6003BF01128F3D7546FF7547FF903E20120FCD7582012275820022E0
:00000001FF
