:06000000020069020AC4BF
:03000B00020AE501
:03001300020AC618
:03001B00020B08CD
:03002300020C1DAF
:03002B00020B0ABB
:03003300020B0CB1
:03003B00020C1E96
:03004300020100B7
:03004B00020AC5E1
:03005300020100A7
:03005B00020AC7CF
:03006300020AC8C6
:0900C200750800750905020066CD
:030066000206B8D7
:2001C400AD82AE83AFF074032DFDE43EFE7C007B20EB60328B011BE954076002800F8D82DC
:2001E4008E838FF0120C22FC1DBDFF011EEC30E70575800480037580004380027580008C78
:2002040002EA2AFC80CB758001758000227F007C007D3E7E007B00C3EB6480949850158C12
:20022400828D838EF0120C22FAA3AC82AD83EA62070B80E38F8222E508600790E6A074019C
:20024400F0227508012290E6B8E0FFE4BF400104FE601890E6B9E0FDBDB01090E6BAE0F5EF
:200264000975080090E6A07480F022E4BFC00104FD7006EE700302039790E6B9E0FCBCA297
:20028400028008BCA9028003020397EF235401F50AE4BCA90104F50B600679517A00800468
:2002A40079507A00890C90E6BAE0F50DA3E0F50E90E6BEE0F50FA3E0F510750800E50F4574
:2002C400107003020396AB0FAC10C3EB9440EC9400500280047B407C00E50A604990E6A0C9
:2002E400E020E1F97523407524E77525008B26752700850D21850E22850B28850C82120696
:20030400D3E582700990E6A07401F002039690E6B57401F090E68AE4F090E68BEBF090E65A
:20032400A07480F0804A90E6B57401F090E68AE4F090E68BF090E6A07480F090E6A0E02006
:20034400E1F9752D40752EE7752F008B30753100850D2B850E2C850B328509337534A6857B
:200364000C8212074EE582700790E6A07401F0227C00A90FAA10E9C39BF9EA9CFA890F8A39
:2003840010A80DAA0EEB28FBEC3AFC8B0D8C0E0202C122ED7006EE700302048090E6B9E03A
:2003A400FCBCA3028003020480EF235401F51190E6BAE0F512A3E0F51390E6BEE0F9A3E034
:2003C400FA750800E94A700302047F89008A07C3E89440EF94005002800478407F00E51158
:2003E400603C90E6A0E020E1F9851246851347884875490090E740C002C001C0001208B25D
:20040400D000D001D00290E6B57401F090E68AE4F090E68BE8F090E6A07480F0803B90E6FD
:20042400B57401F090E68AE4F090E68BF090E6A07480F090E6A0E020E1F9851282851383BB
:200444007546407547E789488A49C002C001C0001208B2D000D001D0027F0089038A04EB50
:20046400C398FBEC9FFC8B018C02AB12AC13E82BF8EF3CFF88128F130203C822ED60309098
:20048400E6B9E0FFBFA62890E6A0E020E1F990E60AE090E740F090E6B57401F090E68AE4E2
:2004A400F090E68B04F090E6A003F075080022EE604490E6B9E0FFBFA83C90E6A0E020E171
:2004C400F990E6B57401F090E68AE4F090E68BF090E6A07480F0900001120BF790E680E055
:2004E40043E008F090000A120BF790E680E053E0F7F075080022EE700302057F90E6B9E0AA
:20050400FFBFDD02800302057F75080090E6B57401F090E68AE4F090E68BF090E6A0748055
:20052400F090E6A0E020E1F990E68BE0FFBF0402800B90E68BE0FFBF050280012290E740A7
:20054400E05407FF24FA5001227C00EF2FFFEC33FCEF2FFFEC33FCEF2400FFEC343EFC8FE5
:20056400828C837546407547E77548047549001208B290E74075F0000201C4EE70030206B1
:200584000890E6B9E0FFBFDE02800302060875080090E6B57401F090E68AE4F090E68BF03D
:2005A40090E6A07480F090E6A0E020E1F990E6BAE0FEA3E04E6012903E1E74ECF01202119B
:2005C400AF82903E1FEFF0800C754620754700903E00120AE7752D00752E3E752F00752B5F
:2005E400E0752C1F7530207531007532017533057534A675825112074EE582700690E6A0A6
:200604007401F022ED603090E6B9E0FFBFDF2890E6A0E020E1F9E590540190E740F090E627
:20062400B57401F090E68AE4F090E68B04F090E6A003F07508002290E6A07401F02275B267
:20064400077580002275230075243E7525007521E075221F75262075270075280175825106
:200664001206D3E582604C903E1EE0FFBFEC44903E1FE0FFC007120211AE82D007EFB50655
:20068400327F05EF20E72CEFFD3395E0FEED2DFDEE33FEED2DFDEE33FEED2400FDEE343E12
:2006A400FE7C008D828E838CF0C0071201C4D0071F80D02290E6007412F012064212064973
:0F06C400758201120C3EE50860FC12024A80F7B5
:20138C0012010002FFFFFF4056040DB43500010200010904000000FFFFFF00090200000185
:2013AC00010080649E130000A713BA13C913414E414C4F4720444556494345530045564177
:0A13CC004C2D414446343335310006
:0A13DA008C13000001B41302B613D7
:2006D300C007C006C005AF82E528600AAE228E29AE218E2A8004AE218E29EF2FFFF582124F
:2006F3000916E5826048E528FD3395E0FE0DBD00010E8D158E1690002975F04012094AE542
:2007130082602B74014FF582120916E582601F8526178527188523828524838525F01209D6
:20073300C1E5827004F582800B758201800612092E758200D005D006D00722C007C006C059
:2007530005C004C003C002C001C000AF82E4F535F536EF2FFFF582120916E58270030208A4
:200773008CAC338CF005F07B017C008006EB2BFBEC33FCD5F0F7C3E5359530E53695314061
:200793000302088CE532600AAA2C8A37AA2B8A388004AA2B8A37E532FA3395E0FE0ABA0069
:2007B300010E8A158E1690003775F04012094AE582700302088CC007852B82852C838B05D6
:2007D3008C068D468E47C006C005C004C003C001C000120B0EAA82AF83D000D001D003D06C
:2007F30004D005D006EDC39AFDEE9FFE8D398E3AE530C39535FEE5319536FFC3EE9539EFE9
:20081300953AD007500DE530C39535F539E5319536F53AE535252DFAE536352EFDAE2F859F
:200833003915853A168A828D838EF012094AE582604712092EE5827004F58280517E00E5A6
:20085300346006C3EE9534500C8F82120916E58270030E80EAEEB534057582008030E539E0
:20087300252BF52BE53A352CF52CE5392535F535E53A3536F53602078912092EE530B53523
:1F08930008E531B53603D38001C3E433F582D000D001D002D003D004D005D006D00722D7
:2008B200AA82AB83AC46AD47AE48AF49EE60010FEF601775AF078A9B8B9A8C9E8D9D90E6F5
:0B08D2007CE090E67BF0DEF6DFF42215
:2008DD00C007AF8290E678E020E00CE51460F5751400758200801F90E678E030E2057582E0
:2008FD00008013EF600D90E678E0FFA2E1E433F5828003758201D00722C007AF8290E678B4
:20091D007480F090E679EFF07582011208DDD0072290E678E030E2047582002290E67874C1
:20093D0040F090E678E020E6F975820122C007C006C005C004C003C002C001C000AD82AE8A
:20095D0083AFF0E5154516700575820180457B007C00EBB51506ECB516028027EB2DF8ECC3
:20097D003EF98F02888289838AF0120C22F890E679F07582011208DDE58260070BBB00D296
:20099D000C80CFEBB51507ECB51603D38001C3E433F582D000D001D002D003D004D005D005
:2009BD0006D00722C007C006C005C004C003C002C001C00085821985831A85F01BE51745EC
:2009DD00187006758201020AB3AB17AC18BB0109BC000690E6787420F090E679E07B007C70
:2009FD000079007A00E9B51707EAB51803020A907582001208DDE5827003020AA389008A4B
:200A1D0007740228F8E43FFFE8B5170AEFB5180690E6787420F089068A070EBE00010FEE1E
:200A3D00B5172CEFB5182875AF03759AE6759B7890E67B7440F0E0AFE0E92519F8EA351ABD
:200A5D00FDAE1B88828D838EF0EF120AC98018E92519FDEA351AFEAF1B90E679E0F88D82B4
:200A7D008E838FF0120AC909B900010A89038A04020A0290E678E030E205758200801790EC
:200A9D00E678E020E6F9EBB51707ECB51803D38001C3E433F582D000D001D002D003D004C3
:070ABD00D005D006D007228E
:06009800E478FFF6D8FD3C
:010AC40032FF
:010AC50032FE
:010AC60032FD
:20007600790AE94400601B7A019013DA782075923EE493F2A308B800020592D9F4DAF275F7
:0200960092FFD7
:010AC70032FC
:010AC80032FB
:03010000020CE707
:03010400020C1FCB
:03010800020B5F88
:03010C00020C1BC7
:03011000020C21BD
:03011400021302D1
:03011800020B5C7B
:03011C000201B825
:03012000020B6669
:03012400021300C3
:03012800020B6760
:03012C00021301BA
:0301300002132D8A
:03013400020AE4D8
:03013800020AE6D2
:03013C00020B0BA8
:03014000020B634C
:030144000201B8FD
:030148000212FAA6
:03014C000212FBA1
:030150000212FC9C
:030154000212FD97
:030158000212FE92
:03015C000212FF8D
:03016000020C206E
:030164000201B8DD
:030168000201B8D9
:03016C000201B8D5
:03017000020B651A
:03017400020B6813
:03017800020B6A0D
:03017C00020B6C07
:03018000020B6906
:03018400020B6B00
:03018800020B6DFA
:03018C00020C1C46
:03019000020B0D52
:03019400020B5DFE
:03019800020B60F7
:03019C00020B62F1
:0301A000020B5BF4
:0301A400020B5EED
:0301A800020B61E6
:0301AC00020B64DF
:0301B000020B0936
:0301B40002132013
:0101B8003214
:1B0AC90020F71130F6138883A88220F509F6A8837583002280FEF280F5F0222C
:010AE40032DF
:010AE50032DE
:010AE60032DD
:200AE700AA82AB83AC46AD47EC60010DED601175AF038A9B8B9A90E67B7400F0DCFDDDFB80
:010B070022CB
:010B080032BA
:010B090032B9
:010B0A0032B8
:010B0B0032B7
:010B0C0032B6
:010B0D0032B5
:200B0E00E546454760467A01E54625E0F546E547334012F547E5829546E583954740030AC4
:200B2E0080E6C3E54713F547E54613F546C3E5829546F5F0E58395474005F58385F082C3E5
:0D0B4E00E54713F547E54613F546DAE122C9
:010B5B003267
:20009E007800E84400600A790075923EE4F309D8FC7820E84400600C7901903E00E4F0A3D3
:0400BE00D8FCD9FA97
:010B5C003266
:010B5D003265
:010B5E003264
:010B5F003263
:010B60003262
:010B61003261
:010B62003260
:010B6300325F
:010B6400325E
:010B6500325D
:010B6600325C
:010B6700325B
:010B6800325A
:010B69003259
:010B6A003258
:010B6B003257
:010B6C003256
:010B6D003255
:200B6E00E583700BE58224FA400122B4001122E5826003D5E0FD0075E0FED583F674F9D556
:200B8E00E0FD22C007C006C001C000AE82AF83EE2EF8EF33F9EE28FEEF39FF90E600E0F820
:200BAE00794C20E416C3EF13CE13CEFF795AE820E309C3EF13CE13CEFF7963E58124FAF843
:200BCE00E926C313C313F9C3EE99F582EF9400F583D000D001D006D007500122020B6E74E7
:200BEE0011C0E0120B91158122C007C006AE82AF837411C0E0EE4F600D1EBEFF011F900384
:0D0C0E00E8120B9180EF1581D006D007226F
:010C1B0032A6
:010C1C0032A5
:010C1D0032A4
:010C1E0032A3
:010C1F0032A2
:010C200032A1
:010C210032A0
:0D00690075815112131CE5826003020066D0
:1C0C220020F71430F6148883A88220F507E6A88375830022E280F7E49322E022E1
:200C3E00AF82753C00753D00D2E890E668E043E008F090E65CE043E001F090E65D7401F071
:200C5E00D2AF90E680E020E10890E680E043E002F0EF600E90E680E043E008F090000A1231
:200C7E000BF790E680E053E0F7F022AF82BF00028037BF01028036BF02028039BF04028060
:200C9E0038BF06028037BF08028036BF80028019BF8102801CBF8202801BBF8402801ABFCD
:200CBE0086028019BF881E801890E6A02290E6A12290E6A22290E6A32290E6A42290E6A5BB
:200CDE002290E6A62290000022C020C0E0C0F0C082C083C007C006C005C004C003C002C0D4
:200CFE0001C000C0D075D000C08675860090E6B8E0FFE4BF800104FE601990E6B9E0FDBD8A
:200D1E00061190E6BAE0FCA3E0F5828C1D121321020F58EF702790E6B9E0FDBD091F90E653
:200D3E00BAE0F58212136EE582600990E6A07480F0020F5890E6A07401F0020F58EE600E7E
:200D5E0090E6B9E0FDBD0806121352020F588F05BD012E90E6B9E0FDBD0B2690E6BCE0FD35
:200D7E0090E6BAE0F51C8D82121303E582600990E6A07480F0020F5890E6A07401F0020F3E
:200D9E0058E4BF810104FD601490E6B9E0FCBC0A0C90E6BCE0F582121338020F58EF703682
:200DBE0090E6B9E0FCBC032E90E6BAE0FBA3E0FCBB010FBC000C753C0190E6A07480F00252
:200DDE000F58BB0205BC00028003020F5890E6A07480F0020F58EE603290E6B9E0702CAEE6
:200DFE003BE53C25E0FC420690E740EEF090E741E4F090E6B504F090E68AE4F090E68B74A7
:200E1E0002F090E6A07480F0020F58ED602890E6B9E0702290E740E4F090E741F090E6B5EB
:200E3E0004F090E68AE4F090E68B7402F090E6A07480F0020F58BF02028003020F0390E632
:200E5E00B9E0FEBE03028008BE01028003020F0390E6BAE0FDA3E0FE4D6003020F5890E61D
:200E7E00BCE0F582120C89AD82AE83ED4E7003020F5890E6B9E0FCBC03188D828E83E0FC45
:200E9E004304018D828E83ECF090E6A07480F0020F5890E6BCE0F582C006C00512132EE541
:200EBE0082D005D0067003020F588D828E83E0FC5304FE8D828E83ECF090E6BCE0FDA3E02C
:200EDE008D0453040F530580E4C423CDC423541F6DCD541FCD6DCDFE90E683ED4CF0E0433C
:200EFE00E020F08055BF824C90E6B9E0704690E6BCE0F582120C89AE82AF83EE4F603B8EC5
:200F1E00828F83E0FE5306017F00EE4FB40100B3E433FF90E740F090E741E4F090E6B5044B
:200F3E00F090E68AE4F090E68B7402F090E6A07480F0800690E6B812023B5391EF90E65DC5
:200F5E007401F0D086D0D0D000D001D002D003D004D005D006D007D083D082D0F0D0E0D097
:200F7E002032AE82AF837401B54228E54370248E828F83E493FCA3E493FD8C468D478C82EF
:200F9E008D83E493FC8C4875490090E0001208B20211C87406B54238E54370348E828F8370
:200FBE00A3A3E493FCA3E493FD4C700790E6A07401F0228C028D038A468B478C828D83E421
:200FDE0093FC8C4875490090E0001208B20211C87402B5420280030210F48E828F83A3A35B
:200FFE00A3A3E493FDC3E5439D40030210F48E828F83A3A3A3A3A3E493FCA3E493FDE54345
:20101E0075F002A42CF582ED35F0F583E493FCA3E493FD74092CFAE43DFB8C008D01884649
:20103E0089478C828D83E493F9894875490090E000C005C004C003C0021208B2D002D003B6
:20105E00D004D0058C828D83E4932400FCE434E0FD8C448D458A828B83E493F8A3E493F9E1
:20107E008846894788828983E493F88848754900854482854583C005C004C003C0021208E1
:20109E00B2D002D003D004D0058A828B83E493F8A3E493F988828983E4932CFCE43DFD744F
:2010BE00022AFAE43BFB8A828B83E493F8A3E493F948709D90E002E0FAA3E0FB4A60030268
:2010DE0011C8ECC39400FCED94E0FD90E002ECF0EDA3F00211C87403B5420474018001E487
:2010FE00FD601EE543701A7546D67547139013D6E493FC8C4875490090E0001208B2021178
:20111E00C8ED70030211C1AC437D00EC24FFFAED34FFFB74072EF582E43FF583E493F87982
:20113E0000C3EA98EB648089F063F08095F0507374082EF582E43FF583E493FEA3E493FF9F
:20115E001CBCFF011DEC2CFCED33FDEC2EF582ED3FF583E493FEA3E493FF90E0007402F0B2
:20117E0090E00104F074012401FCE434E0FD8E828F83E493FB60330EBE00010F8C828D8340
:20119E00EBF074012CFAE43DFB8A828B83E4F0042AFCE43BFD90E000E0FB0B0B90E000EBAF
:2011BE00F080CB90E6A07401F0227E007FE090E6B57401F090E6B3EFF090E6B4EEF090E646
:2011DE00A07480F022AE82AF83A3A3A3A3A3E493F550A3E493F55174042EFEE43FFF75481B
:2011FE00008E828F83E493FAC3E5489A400122E54875F002A42550F582E55135F0F583E476
:20121E0093F549A3E493F54A74092549F54BE4354AF54C7900854982854A83A3A3A3A3A36D
:20123E00E493FAB53D0280030212F5A84BAA4C88828A83E493FBA3E493FD8B828D83A3E472
:20125E0093F54D7404B54D3588828A83E493F54EA3E493F54F854E82854F83A3A3E493B59F
:20127E004611854E82854F83A3A3A3E493FBB5470280047B0080027B018B0180427405B57B
:20129E004D3DE9603A88828A83E493FBA3E493FD8B828D83A3A3E493FD740F5DFC530580F8
:2012BE00E423CDC423541F6DCD541FCD6DCD30E40244E0FB90E683ED4CF0E043E020F07450
:1C12DE000228F8E43AFA88828A83E493FBA3E493FD4B600302124D05480211FFAC
:0413D60004030904FF
:0112FA0032C1
:0112FB0032C0
:0112FC0032BF
:0112FD0032BE
:0112FE0032BD
:0112FF0032BC
:0113000032BA
:0113010032B9
:0113020032B8
:19130300AF82E51C700F8F46851C47903E201211E375820122758200223C
:04131C0075820022B4
:01132000329A
:0C132100858242851D43903E20020F8013
:01132D00328D
:0A132E0090E6A07480F075820122A1
:1A13380090E740E4F090E6B504F090E68AE4F090E68B04F090E6A003F022FD
:1C13520090E740E53DF090E6B57401F090E68AE4F090E68B04F090E6A003F02232
:1E136E00E582FF6003BF01128F3D7546FF7547FF903E201211E375820122758200225E
:00000001FF
