:201E0000120100020000004056040DB40000010203010A06000200000040010009021200DB
:201E2000010100A0320904000000FF00000009021200010100A0320904000000FF000000C5
:201E4000040309041E0341004E0041004C004F0047002000440045005600490043004500CB
:201E600053002E034100440046003400780078007800200055005300420020004500760092
:201E800061006C00200042006F006100720064001A03300030003000300030003000300000
:0C1EA00030003000300030003000000046
:04000000020059326F
:01000B0032C2
:0100130032BA
:01001B0032B2
:0100230032AA
:01002B0032A2
:01003300329A
:01003B003292
:03004300021F0099
:01004B003282
:03005300021F0089
:0300C400020056E1
:030056000204B4ED
:2000C70075820022AF82BFDD0B8F1090E68BE4F07582012275820022E5826004758200229D
:2000E700AD22AE23AF248D828E838FF0E41208BE75820122E5827004E522600475820022B2
:200107007582012275820122AF82BF01067E017F0080047E007F008E8222C0E0C082C083D7
:20012700D2005391EF90E65D7401F0D083D082D0E032C0E0C082C0835391EF90E65D740213
:20014700F0D083D082D0E032C021C0E0C0F0C082C083C007C006C005C004C003C002C0010F
:20016700C000C0D075D0007582001207BA5391EF90E65D7410F0D0D0D000D001D002D00319
:20018700D004D005D006D007D083D082D0F0D0E0D02132C021C0E0C0F0C082C083C007C08D
:2001A70006C005C004C003C002C001C000C0D075D0007582011207BA5391EF90E65D7420C9
:2001C700F0D0D0D000D001D002D003D004D005D006D007D083D082D0F0D0E0D02132AF8283
:2001E7007C437DE77E007B007A00C3EA9F50368A000AE854076002800F8C828D838EF0121A
:20020700094AFB1CBCFF011DEB30E7067804790080047800790088808B01E929FB438002BC
:200227005380FD80C5438001758000227E907F1E75223075233175243275253375263475B0
:200247002735752836752937752A38752B39752C41752D42752E43752F4475304575314679
:2002670074182EFCE43FFD90E507E0FB5303F0E4C4CBC4540F6BCB540FCB6BCB30E3024477
:20028700F0EB2422F987038C828D83EBF074162EFCE43FFD90E507E0FB53030FEB2422F900
:2002A70087038C828D83EBF074142EFCE43FFD90E508E0FB5303F0E4C4CBC4540F6BCB5420
:2002C7000FCB6BCB30E30244F0EB2422F987038C828D83EBF074122EFCE43FFD90E508E0E4
:2002E700FB53030FEB2422F987038C828D83EBF074102EFCE43FFD90E509E0FB5303F0E499
:20030700C4CBC4540F6BCB540FCB6BCB30E30244F0EB2422F987038C828D83EBF0740E2EE0
:20032700FCE43FFD90E509E0FB53030FEB2422F987038C828D83EBF0740C2EFCE43FFD90D5
:20034700E50AE0FB5303F0E4C4CBC4540F6BCB540FCB6BCB30E30244F0EB2422F987038CC9
:20036700828D83EBF0740A2EFCE43FFD90E50AE0FB53030FEB2422F987038C828D83EBF0D5
:2003870074082EFCE43FFD90E50BE0FB5303F0E4C4CBC4540F6BCB540FCB6BCB30E3024462
:2003A700F0EB2422F987038C828D83EBF074062EFCE43FFD90E50BE0FB53030FEB2422F9EB
:2003C70087038C828D83EBF074042EFCE43FFD90E50CE0FB5303F0E4C4CBC4540F6BCB540B
:2003E7000FCB6BCB30E30244F0EB2422F987038C828D83EBF074022EFEE43FFF90E50CE0CB
:20040700FD53050FED2422F987058E828F83EDF02290E60B7403F0C2007510FF75B20775C7
:20042700800012023390E680E043E00AF09005DC1208F090E680E053E0F7F090E600E053E7
:20044700E0E7F0D2E890E668E043E008F090E65CE043E001F090E65CE043E002F090E65CEC
:20046700E043E020F090E65CE043E010F0D2AF223000051204BCC20074DDB5102C90E6A0C9
:20048700E020E12890E68BE0FFBF04087582201201E5801190E68BE0FFBF050990E744E0B9
:1504A700F5821201E57510FF227510FF2212041812047780FB4F
:06008800E478FFF6D8FD4C
:1200B20075120075130075142E75151E75161C75171E7D
:2004BC0090E6B9E0FF24F450030205BCEF240A83F582EF241083F583E473EE03BC18BCBC1B
:2004DC002DBC3D546B9E040505050505050505050505120632E58260030205D190E6A0E060
:2004FC0043E001F00205D11206C6E58260030205D190E6A0E043E001F00205D1120735E55F
:20051C008260030205D190E6A0E043E001F00205D11200C7E58260030205D11207E50205A0
:20053C00D112010BAF8290E740EFF090E68AE4F090E68B04F00205D190E6BAE0F5821201AE
:20055C000FE582707090E6A0E043E001F0806690E6BCE0FF7522117523007524408F8212EC
:20057C0000DFE582700A90E6A0E043E001F0804590E740E511F090E68AE4F090E68B04F06A
:20059C00803390E6BCE0FF90E6BAE0F5228F821200FBE582701F90E6A0E043E001F08015A1
:2005BC0090E6B9E0F5821200CBE582700890E6A0E043E001F090E6A0E043E080F022AF82F7
:2005DC00747F5FFE24F7500302062EEE240A83F582EE240D83F583E473070B1E2E222E26B0
:2005FC002E2A06060606060606060690E6A022EF30E7067EA27FE680047EA17FE68E828FE1
:20061C00832290E6A32290E6A42290E6A52290E6A6229000002290E6B8E0FFBF8002802285
:20063C00BF81028008BF820280370206BE90E740E4F090E741F090E68AF090E68B7402F08A
:20065C008064E51325E0FFE512420790E740EFF090E741E4F090E68AF090E68B7402F08065
:20067C004590E6BCE0F5821205DAAE82AF838E048F05EE4F7003F582228C828D83E0FC30A4
:20069C00E0067E017F0080047E007F0090E740EEF090E741E4F090E68AF090E68B7402F061
:2006BC008004758200227582012290E6B8E0FF6005BF0258801B90E6BAE0FFBF01057513E5
:2006DC0000805290E6BAE0FFBF060280487582002290E6BAE0703190E6BCE0F5821205DA4A
:2006FC00AE82AF83E0FD5305FE8E828F83EDF090E6BCE0FF30E70343071053071F90E68353
:20071C00EFF074204FF0800D7582002290E6B9E0F5820200CB7582012290E6B8E0FF600586
:20073C00BF026E802690E6BAE0FFBF02030207B690E6BAE0FFBF0105751301805D90E6BACC
:20075C00E0FFBF060280537582002290E6BAE0703C90E6BCE0F5821205DAAE82AF83EE4F16
:20077C007003F582228E828F83E0FD4305018E828F83EDF090E6BCE0FF30E7034307105332
:20079C00071F90E683EFF074204FF0800D7582002290E6B9E0F5820200CB75820122AF8228
:2007BC007E0110AF027E00EF600E75141C75151E75162E75171E800C75142E75151E7516DC
:2007DC001C75171EEE1392AF2290E6BBE0FFBF01028019BF02028024BF0302802CBF0603C9
:2007FC00020898BF07030208A80208B57E007F1E90E6B3EFF090E6B47400F02290E6B3E520
:20081C0015F090E6B4E514F0227D407E1E7F8090E6BAE0F5227B00EBB5220280430B8D0069
:20083C008E018F028D828E838FF012094A28F8E439F9880589068A0774012DF9E43EFA8F4F
:20085C000489828A838CF012094AF9B9030280067D007E007F00ED4E6006C3E5229B50B7BB
:20087C00ED4E600F8D038E0490E6B3ECF090E6B4EDF02290E6A0E043E001F0227E127F1E09
:20089C0090E6B3EFF090E6B47412F02290E6B3E517F090E6B4E516F02290E6A0E043E0010C
:0208BC00F02228
:200066007900E94400601B7A00900977780075921CE493F2A308B800020592D9F4DAF275C1
:0200860092FFE7
:1B08BE0020F71130F6138883A88220F509F6A8837583002280FEF280F5F02239
:201F0000020121000201390002096A0002096F0002014F0002019A00020967000208E40023
:201F20000208E6000208E7000208E8000208EB0002097500020976000208D9000208DB0010
:201F400002096C000208E40002096600020968000209690002096B0002096D0002096E005D
:201F6000020949000208E4000208E4000208E4000208E5000208E9000208EC000208EE0073
:201F80000208EA000208ED000208EF00020948000208DC000208DE000208E0000208E20066
:181FA0000208DD000208DF000208E1000208E3000208DA00020974001E
:0108D90032EC
:0108DA0032EB
:0108DB0032EA
:0108DC0032E9
:0108DD0032E8
:20008E007800E84400600A790075921CE4F309D8FC7800E84400600C7900901C00E4F0A348
:0400AE00D8FCD9FAA7
:0108DE0032E7
:0108DF0032E6
:0108E00032E5
:0108E10032E4
:0108E20032E3
:0108E30032E2
:0108E40032E1
:0108E50032E0
:0108E60032DF
:0108E70032DE
:0108E80032DD
:0108E90032DC
:0108EA0032DB
:0108EB0032DA
:0108EC0032D9
:0108ED0032D8
:0108EE0032D7
:0108EF0032D6
:2008F000AE82AF8390E600E05418C423541F70057CB1FD801C90E600E05418C423541FFB18
:20091000BB01067A617B0180047AC27B028A048B058C228D23E52224FFFAE52334FFFB8A11
:18093000228B23EA4B70EEEE24FFFAEF34FFFB8A068B07EA4B70DA2261
:01094800327C
:01094900327B
:0D005900758131120970E5826003020056C6
:1C094A0020F71430F6148883A88220F507E6A88375830022E280F7E49322E022BC
:01096600325E
:01096700325D
:01096800325C
:01096900325B
:01096A00325A
:01096B003259
:01096C003258
:01096D003257
:01096E003256
:01096F003255
:04097000758200226A
:010974003250
:01097500324F
:01097600324E
:00000001FF
