:06000000020069020C166B
:03000B00020C37AD
:03001300020C18C4
:03001B00020C5A7A
:03002300020D6F5C
:03002B00020C5C68
:03003300020C5E5E
:03003B00020D7043
:03004300020100B7
:03004B00020C178D
:03005300020100A7
:03005B00020C197B
:03006300020C1A72
:0900C20075340075350502006675
:030066000207C3CB
:2001C400AF821FC2D575F002EF30E704B2D5F404A430D50AF42401C5F0F43400C5F0241AA8
:2001E400F582741535F0F583E493FEA3E4938E82F583227522307523317524327525337588
:200204002634752735752836752937752A38752B39752C41752D42752E43752F44753045D9
:20022400753146901500E493F5821201C4AE82AF837D068D041DEC6048ED2407F582E43496
:20024400E5F583E0FCC4540FFB53030F7A00EB2422F987038E828F83EBF074012EF532E401
:200264003FF5338C0353030FEB2422F98704853282853383ECF074012532FEE43533FF8085
:20028400B222AD82AE83AFF074032DFDE43EFE7C007B00BB20005030EB54076002800F8DB0
:2002A400828E838FF0120D74FC1DBDFF011EEC30E70575800480037580004380027580006E
:2002C4008C02EA2AFC0B80CB758001758000227F007C007D3E7E007B00C3EB6480949F5055
:2002E400158C828D838EF0120D74FAA3AC82AD83EA62070B80E38F8222E534600A90E6A02E
:200304007401F07481F0227534012290E6B8E0FFE4BF400104FE601890E6B9E0FDBDB010AD
:2003240090E6BAE0F53575340090E6A07480F022E4BFC00104FD7006EE700302048890E67A
:20034400B9E0FCBCA2028008BCA9028003020488EF235401F53690E6BAE0F537A3E0F53826
:2003640090E6BEE0F539A3E0F53ABCA9028023AB37AC38C374FF9BE49C4017E5392537FB98
:20038400E53A3538FCC374FF9BE49C4005753B008003753B01E53B600678517B0080047891
:2003A400507B00883C753400E539453A7003020487A839AB3AC3E89440EB940050028004CA
:2003C40078407B00E536604C90E6A0E020E1F97542407543E775440088457546008537405C
:2003E400853841853B47853C82120826E582700C90E6A07401F07481F002048790E6B57402
:2004040001F090E68AE4F090E68BE8F090E6A07480F0804D90E6B57401F090E68AE4F0907F
:20042400E68BF090E6A07480F090E6A0E020E1F9754C40754DE7754E00884F7550008537A8
:200444004A85384B853B518535527553A6853C821208A1E582700A90E6A07401F07481F07C
:20046400227B00AA39AC3AEAC398FAEC9BFC8A398C3AA937AA38E829F8EB3AFB88378B385A
:200484000203AC22ED7006EE700302057190E6B9E0FCBCA3028003020571EF235401F53D49
:2004A40090E6BAE0F53EA3E0F53F90E6BEE0F9A3E0FA753400E94A700302057089008A07D4
:2004C400C3E89440EF94005002800478407F00E53D603C90E6A0E020E1F9853E5A853F5B1F
:2004E400885C755D0090E740C002C001C000120A05D000D001D00290E6B57401F090E68A24
:20050400E4F090E68BE8F090E6A07480F0803B90E6B57401F090E68AE4F090E68BF090E6AA
:20052400A07480F090E6A0E020E1F9853E82853F83755A40755BE7895C8A5DC002C001C0E2
:2005440000120A05D000D001D0027F0089038A04EBC398FBEC9FFC8B018C02AB3EAC3FE8CC
:200564002BF8EF3CFF883E8F3F0204B922ED603090E6B9E0FFBFA62890E6A0E020E1F9901D
:20058400E60AE090E740F090E6B57401F090E68AE4F090E68B04F090E6A003F075340022B3
:2005A400EE604490E6B9E0FFBFA83C90E6A0E020E1F990E6B57401F090E68AE4F090E68B9F
:2005C400F090E6A07480F0900001120D4990E680E043E008F090000A120D4990E680E05318
:2005E400E0F7F075340022EE700302067090E6B9E0FFBFDD02800302067075340090E6B511
:200604007401F090E68AE4F090E68BF090E6A07480F090E6A0E020E1F990E68BE0FFBF041F
:2006240002800B90E68BE0FFBF050280012290E740E05407FF24FA5001227C00EF2FFFECD9
:2006440033FCEF2FFFEC33FCEF2400FFEC343EFC8F828C83755A40755BE7755C04755D0036
:20066400120A0590E74075F000020286EE70030206FB90E6B9E0FFBFDE0280030206FB75A3
:20068400340090E6B57401F090E68AE4F090E68BF090E6A07480F090E6A0E020E1F990E66D
:2006A400BAE0FEA3E04E6011903E1EEEF01202D3AF82903E1FEFF0800C755A20755B0090D3
:2006C4003E00120C39754C00754D3E754E00754AE0754B1F754F2075500075510175520543
:2006E4007553A67582511208A1E582700990E6A07401F07481F022ED603090E6B9E0FFBFD9
:20070400DF2890E6A0E020E1F9E590540190E740F090E6B57401F090E68AE4F090E68B0404
:20072400F090E6A003F07534002290E6A07401F07481F02275B20775800022903E1FE0FF5E
:20074400C0071202D3AE82D007EFB506327F05EF20E72CEFFD3395E0FEED2DFDEE33FEEDA9
:200764002DFDEE33FEED2400FDEE343EFE7C008D828E838CF0C007120286D0071F80D022DF
:2007840075420075433E7544007540E075411F754520754600754701758251120826E58244
:2007A4006019903E1FE0FFC0071202D3AE82D007EFB50607903E1EE0F58222758200227F8D
:2007C4000090E6007412F0C0071201F7120738120784AE82D007BE01047FC8800ABE020708
:2007E400C00712073FD007758201C007120D90D00790E687E0600F7F00E53460F4C00712A9
:20080400030FD00780EBEF60E81FEF600C90000AC007120D49D00780D8C00712073FD007E1
:0208240080CF83
:2014F00012010002FFFFFF4056040DB43800010203010904000000FFFFFF0009020000011A
:2015100001008064021500000B1520152F153C15414E414C4F4720444556494345530045BB
:1915300056414C2D41444634333531004558504552494D454E54414C006C
:0A154D00F0140000011815031A1530
:20082600C007C006C005AF82E547600AAE418E48AE408E498004AE408E48EF2FFFF5821221
:200846000A68E5826048E547FD3395E0FE0DBD00010E8D098E0A90004875F040120A9CE521
:2008660082602B74014FF582120A68E582601F85450B85460C8542828543838544F0120BAA
:2008860013E5827004F582800B7582018006120A80758200D005D006D00722C007C006C060
:2008A60005C004C003C002C001C000AF82E4F554F555EF2FFFF582120A68E58270030209BE
:2008C600DFAC528CF005F07B017C008006EB2BFBEC33FCD5F0F7C3E554954FE5559550401F
:2008E600030209DFE551600AAA4B8A56AA4A8A578004AA4A8A56E551FA3395E0FE0ABA00C9
:20090600010E8A098E0A90005675F040120A9CE58270030209DFC007854A82854B838B0595
:200926008C068D5A8E5BC006C005C004C003C001C000120C60AA82AF83D000D001D003D09C
:2009460004D005D006EDC39AFDEE9FFE8D588E59E54FC39554FEE5509555FFC3EE9558EFBB
:200966009559D007500DE54FC39554F558E5509555F559E554254CFAE555354DFDAE4E85D7
:20098600580985590A8A828D838EF0120A9CE5826047120A80E5827004F58280517E00E586
:2009A600536006C3EE9553500C8F82120A68E58270030E80EAEEB553057582008030E558BD
:2009C600254AF54AE559354BF54BE5582554F554E5593555F5550208DC120A80E54FB55495
:1F09E60008E550B55503D38001C3E433F582D000D001D002D003D004D005D006D0072245
:200A0500AA82AB83AC5AAD5BAE5CAF5DEE60010FEF601775AF078A9B8B9A8C9E8D9D90E650
:0B0A25007CE090E67BF0DEF6DFF422C0
:200A3000C007AF8290E678E020E00CE50860F5750800758200801E90E678E030E2057582A4
:200A5000008012EF600C90E678E0FF035401F5828003758201D00722C007AF8290E678742F
:200A700080F090E679EFF0758201120A30D0072290E678E030E2047582002290E67874404C
:200A9000F090E678E020E6F975820122C007C006C005C004C003C002C001C000AD82AE83F3
:200AB000AFF0E509450A700575820180457B007C00EBB50906ECB50A028027EB2DF8EC3EE4
:200AD000F98F02888289838AF0120D74F890E679F0758201120A30E58260070BBB00D20CCC
:200AF00080CFEBB50907ECB50A03D38001C3E433F582D000D001D002D003D004D005D006CF
:200B1000D00722C007C006C005C004C003C002C001C00085820D85830E85F00FE50B450CC1
:200B30007006758201020C05AB0BAC0CBB0109BC000690E6787420F090E679E07B007C00F7
:200B500079007A00E9B50B07EAB50C03020BE2758200120A30E5827003020BF589008A070C
:200B7000740228F8E43FFFE8B50B0AEFB50C0690E6787420F089068A070EBE00010FEEB534
:200B90000B2CEFB50C2875AF03759AE6759B7890E67B7440F0E0AFE0E9250DF8EA350EFD51
:200BB000AE0F88828D838EF0EF120C1B8018E9250DFDEA350EFEAF0F90E679E0F88D828EAB
:200BD000838FF0120C1B09B900010A89038A04020B5490E678E030E205758200801790E699
:200BF00078E020E6F9EBB50B07ECB50C03D38001C3E433F582D000D001D002D003D004D09D
:060C100005D006D007220A
:06009800E478FFF6D8FD3C
:010C160032AB
:010C170032AA
:010C180032A9
:20007600790AE94400601B7A0190154D782075923EE493F2A308B800020592D9F4DAF27582
:0200960092FFD7
:010C190032A8
:010C1A0032A7
:03010000020E39B3
:03010400020D7178
:03010800020CB135
:03010C00020D6D74
:03011000020D736A
:030114000214666C
:03011800020CAE28
:03011C000201B825
:03012000020CB816
:030124000214645E
:03012800020CB90D
:03012C0002146555
:0301300002149125
:03013400020C3684
:03013800020C387E
:03013C00020C5D55
:03014000020CB5F9
:030144000201B8FD
:0301480002145E40
:03014C0002145F3B
:0301500002146036
:0301540002146131
:030158000214622C
:03015C0002146327
:03016000020D721B
:030164000201B8DD
:030168000201B8D9
:03016C000201B8D5
:03017000020CB7C7
:03017400020CBAC0
:03017800020CBCBA
:03017C00020CBEB4
:03018000020CBBB3
:03018400020CBDAD
:03018800020CBFA7
:03018C00020D6EF3
:03019000020C5FFF
:03019400020CAFAB
:03019800020CB2A4
:03019C00020CB49E
:0301A000020CADA1
:0301A400020CB09A
:0301A800020CB393
:0301AC00020CB68C
:0301B000020C5BE3
:0301B400021484AE
:0101B8003214
:1B0C1B0020F71130F6138883A88220F509F6A8837583002280FEF280F5F022D8
:010C3600328B
:010C3700328A
:010C38003289
:200C3900AA82AB83AC5AAD5BEC60010DED601175AF038A9B8B9A90E67B7400F0DCFDDDFB04
:010C59002278
:010C5A003267
:010C5B003266
:010C5C003265
:010C5D003264
:010C5E003263
:010C5F003262
:200C6000E55A455B60467A01E55A25E0F55AE55B334012F55BE582955AE583955B40030AD1
:200C800080E6C3E55B13F55BE55A13F55AC3E582955AF5F0E583955B4005F58385F082C31A
:0D0CA000E55B13F55BE55A13F55ADAE12226
:010CAD003214
:20009E007800E84400600A790075923EE4F309D8FC7820E84400600C7901903E00E4F0A3D3
:0400BE00D8FCD9FA97
:010CAE003213
:010CAF003212
:010CB0003211
:010CB1003210
:010CB200320F
:010CB300320E
:010CB400320D
:010CB500320C
:010CB600320B
:010CB700320A
:010CB8003209
:010CB9003208
:010CBA003207
:010CBB003206
:010CBC003205
:010CBD003204
:010CBE003203
:010CBF003202
:200CC000E583700BE58224FA400122B4001122E5826003D5E0FD0075E0FED583F674F9D503
:200CE000E0FD22C007C006C001C000AE82AF83EE2EF8EF33F9EE28FEEF39FF90E600E0F8CD
:200D0000794C20E416C3EF13CE13CEFF795AE820E309C3EF13CE13CEFF7963E58124FAF8EF
:200D2000E926C313C313F9C3EE99F582EF9400F583D000D001D006D007500122020CC07440
:200D400011C0E0120CE3158122C007C006AE82AF837411C0E0EE4F600D1EBEFF011F9003DD
:0D0D6000E8120CE380EF1581D006D00722C9
:010D6D003253
:010D6E003252
:010D6F003251
:010D70003250
:010D7100324F
:010D7200324E
:010D7300324D
:0D006900758162121480E58260030200665A
:1C0D740020F71430F6148883A88220F507E6A88375830022E280F7E49322E0228E
:200D9000AF82751100751200D2E890E668E043E008F090E65CE043E001F090E65D7401F074
:200DB000D2AF90E680E020E10890E680E043E002F0EF600E90E680E043E008F090000A12DE
:200DD0000D4990E680E053E0F7F022AF82BF00028037BF01028036BF02028039BF040280B9
:200DF00038BF06028037BF08028036BF80028019BF8102801CBF8202801BBF8402801ABF7A
:200E100086028019BF881E801890E6A02290E6A12290E6A22290E6A32290E6A42290E6A567
:200E30002290E6A62290000022C021C0E0C0F0C082C083C007C006C005C004C003C002C07F
:200E500001C000C0D075D000C08675860090E6B8E0FFE4BF800104FE601990E6B9E0FDBD36
:200E7000061190E6BAE0FCA3E0F5828C181214850210B6EF702A90E6B9E0FDBD092290E63B
:200E9000BAE0F5821214D2E582600990E6A07480F00210B690E6A07401F07481F00210B67F
:200EB000EE600E90E6B9E0FDBD08061214B60210B68F05BD013190E6B9E0FDBD0B2990E655
:200ED000BCE0FD90E6BAE0F5178D82121467E582600990E6A07480F00210B690E6A0740194
:200EF000F07481F00210B6E4BF810104FD601490E6B9E0FCBC0A0C90E6BCE0F58212149C83
:200F10000210B6EF703690E6B9E0FCBC032E90E6BAE0FBA3E0FCBB010FBC000C7511019038
:200F3000E6A07480F00210B6BB0205BC000280030210B690E6A07480F00210B6EE603290D2
:200F5000E6B9E0702CAE10E51125E0FC420690E740EEF090E741E4F090E6B504F090E68A29
:200F7000E4F090E68B7402F090E6A07480F00210B6ED602890E6B9E0702290E740E4F09033
:200F9000E741F090E6B504F090E68AE4F090E68B7402F090E6A07480F00210B6BF020280CA
:200FB0000302105B90E6B9E0FEBE03028008BE0102800302105B90E6BAE0FDA3E0FE4D606D
:200FD000030210B690E6BCE0F582120DDBAD82AE83ED4E70030210B690E6B9E0FCBC0318FB
:200FF0008D828E83E0FC4304018D828E83ECF090E6A07480F00210B690E6BCE0F582C00690
:20101000C005121492E582D005D00670030210B68D828E83E0FC5304FE8D828E83ECF09019
:20103000E6BCE0FDA3E08D0453040F530580E4C423CDC423541F6DCD541FCD6DCDFE90E6B5
:2010500083ED4CF0E043E020F0805BBF825290E6B9E0704C90E6BCE0F582120DDBAE82AF26
:20107000838E048F05EE4F603D8C828D83E0FC5304017F00EC4FB40100B39200E433FF9031
:20109000E740F090E741E4F090E6B504F090E68AE4F090E68B7402F090E6A07480F08006C3
:2010B00090E6B81202FD5391EF90E65D7401F0D086D0D0D000D001D002D003D004D005D021
:2010D00006D007D083D082D0F0D0E0D02132AE82AF837401B51328E51470248E828F83E491
:2010F00093FCA3E493FD8C5A8D5B8C828D83E493FC8C5C755D0090E000120A0502132C74DB
:2011100006B5133BE51470378E828F83A3A3E493FCA3E493FD4C700A90E6A07401F07481EE
:20113000F0228C028D038A5A8B5B8C828D83E493FC8C5C755D0090E000120A0502132C7414
:2011500002B5130280030212558E828F83A3A3A3A3E493FDC3E5149D40030212558E828F01
:2011700083A3A3A3A3A3E493FCA3E493FDE51475F002A42CF582ED35F0F583E493FCA3E4F8
:2011900093FD74092CFAE43DFB8C008D01885A895B8C828D83E493F9895C755D0090E0005B
:2011B000C005C004C003C002120A05D002D003D004D0058C828D83E4932400FCE434E0FDF8
:2011D0008C158D168A828B83E493F8A3E493F9885A895B88828983E493F8885C755D008599
:2011F0001582851683C005C004C003C002120A05D002D003D004D0058A828B83E493F8A381
:20121000E493F988828983E4932CFCE43DFD74022AFAE43BFB8A828B83E493F8A3E493F92B
:2012300048709D90E002E0FAA3E0FB4A600302132CECC39400FCED94E0FD90E002ECF0EDB9
:20125000A3F002132C7403B5130474018001E4FD601EE514701A755A49755B15901549E4C0
:2012700093FC8C5C755D0090E000120A0502132CED7003021322AC147D00EC24FFFAED3445
:20129000FFFB74072EF582E43FF583E493F87900C3EA98EB648089F063F08095F050737485
:2012B000082EF582E43FF583E493FEA3E493FF1CBCFF011DEC2CFCED33FDEC2EF582ED3F65
:2012D000F583E493FEA3E493FF90E0007402F090E00104F074012401FCE434E0FD8E828F93
:2012F00083E493FB60360EBE00010F8C828D83EBF074012CFAE43DFB8A828B83E4F0042AAB
:20131000FCE43BFD90E000E0FB0B0B90E000EBF080CB90E6A07401F07481F0227E007FE04F
:2013300090E6B57401F090E6B3EFF090E6B4EEF090E6A07480F022AE82AF83A3A3A3A3A350
:20135000E493FCA3E493FD74042EFEE43FFF755C008E828F83E493FAC3E55C9A400122E5E3
:201370005C75F002A42CF582ED35F0F583E493F55DA3E493F55E7409255DF8E4355EFA75B6
:201390006000855D82855E83A3A3A3A3A3E493F9B512028003021459880189828A83E493A1
:2013B000F8A3E493FB88828B83A3E493FBBB043989828A83E493F561A3E493F5628561822D
:2013D000856283A3A3E493F8B55A11856182856283A3A3A3E493F8B55B028005755F0080A9
:2013F00003755F01855F608048BB0545E5606041C004C00589828A83E493F8A3E493FB8861
:20141000828B83A3A3E493FB740F5BF8530380E423CBC423541F6BCB541FCB6BCB30E402DC
:2014300044E090E683EB48F0E043E020F0D005D004740229F9E43AFA89828A83E493F8A3C6
:0E145000E493FB4860030213AA055C021361DB
:04154900040309048A
:01145E00325B
:01145F00325A
:011460003259
:011461003258
:011462003257
:011463003256
:011464003255
:011465003254
:011466003253
:19146700AF82E517700F8F5A85175B903E20121347758201227582002253
:04148000758200224F
:011484003235
:0C148500858213851814903E200210DEB2
:011491003228
:0A14920090E6A07480F0758201223C
:1A149C0090E740E4F090E6B504F090E68AE4F090E68B04F090E6A003F02298
:1C14B60090E740E512F090E6B57401F090E68AE4F090E68B04F090E6A003F022F8
:1E14D200E582FF6003BF01128F12755AFF755BFF903E20121347758201227582002296
:00000001FF
