:06000000020069020BEB97
:03000B00020C0CD8
:03001300020BEDF0
:03001B00020C2FA5
:03002300020D4487
:03002B00020C3193
:03003300020C3389
:03003B00020D456E
:03004300020100B7
:03004B00020BECB9
:03005300020100A7
:03005B00020BEEA7
:03006300020BEF9E
:0900C200750800750905020066CD
:03006600020798F6
:2001C400AF821FC2D575F002EF30E704B2D5F404A430D50AF42401C5F0F43400C5F024EFD3
:2001E400F582741435F0F583E493FEA3E4938E82F583229014D5E493F5821201C4AE82AF09
:200204008374052407FCE434E5FDC3EC9407ED94E540438C828D83E0C4540F9014F5938EAB
:20022400828F83F074012EFAE43FFB8C828D83E0F853000F7900E824F5F582E93414F58389
:20024400E493F98A828B83F074012AFEE43BFF1CBCFF011D80B422AD82AE83AFF074032D77
:20026400FDE43EFE7C007B00BB20005030EB54076002800F8D828E838FF0120D49FC1DBDF7
:20028400FF011EEC30E70575800480037580004380027580008C02EA2AFC0B80CB7580011F
:2002A400758000227F007C007D3E7E007B00C3EB6480949F50158C828D838EF0120D49FA4C
:2002C400A3AC82AD83EA62070B80E38F8222E508600A90E6A07401F07481F02275080122AC
:2002E40090E6B8E0FFE4BF400104FE601890E6B9E0FDBDB01090E6BAE0F50975080090E605
:20030400A07480F022E4BFC00104FD7006EE700302045D90E6B9E0FCBCA2028008BCA9023A
:20032400800302045DEF235401F50A90E6BAE0F50BA3E0F50C90E6BEE0F50DA3E0F50EBC81
:20034400A9028023AB0BAC0CC374FF9BE49C4017E50D250BFBE50E350CFCC374FF9BE49C97
:200364004005750F008003750F01E50F600678517B00800478507B008810750800E50D45F7
:200384000E700302045CA80DAB0EC3E89440EB94005002800478407B00E50A604C90E6A050
:2003A400E020E1F97524407525E77526008827752800850B22850C23850F298510821207CB
:2003C400FBE582700C90E6A07401F07481F002045C90E6B57401F090E68AE4F090E68BE82C
:2003E400F090E6A07480F0804D90E6B57401F090E68AE4F090E68BF090E6A07480F090E67D
:20040400A0E020E1F9752E40752FE77530008831753200850B2C850C2D850F338509347573
:2004240035A6851082120876E582700A90E6A07401F07481F0227B00AA0DAC0EEAC398FAA8
:20044400EC9BFC8A0D8C0EA90BAA0CE829F8EB3AFB880B8B0C02038122ED7006EE700302B9
:20046400054690E6B9E0FCBCA3028003020546EF235401F51190E6BAE0F512A3E0F5139052
:20048400E6BEE0F9A3E0FA750800E94A700302054589008A07C3E89440EF940050028004FD
:2004A40078407F00E511603C90E6A0E020E1F9851243851344884575460090E740C002C008
:2004C40001C0001209DAD000D001D00290E6B57401F090E68AE4F090E68BE8F090E6A07428
:2004E40080F0803B90E6B57401F090E68AE4F090E68BF090E6A07480F090E6A0E020E1F98E
:200504008512828513837543407544E789458A46C002C001C0001209DAD000D001D0027F43
:200524000089038A04EBC398FBEC9FFC8B018C02AB12AC13E82BF8EF3CFF88128F130204C8
:200544008E22ED603090E6B9E0FFBFA62890E6A0E020E1F990E60AE090E740F090E6B57439
:2005640001F090E68AE4F090E68B04F090E6A003F075080022EE604490E6B9E0FFBFA83CD2
:2005840090E6A0E020E1F990E6B57401F090E68AE4F090E68BF090E6A07480F09000011275
:2005A4000D1E90E680E043E008F090000A120D1E90E680E053E0F7F075080022EE70030252
:2005C400064590E6B9E0FFBFDD02800302064575080090E6B57401F090E68AE4F090E68B6E
:2005E400F090E6A07480F090E6A0E020E1F990E68BE0FFBF0402800B90E68BE0FFBF050247
:2006040080012290E740E05407FF24FA5001227C00EF2FFFEC33FCEF2FFFEC33FCEF2400B2
:20062400FFEC343EFC8F828C837543407544E77545047546001209DA90E74075F000020217
:200644005BEE70030206D090E6B9E0FFBFDE0280030206D075080090E6B57401F090E68AED
:20066400E4F090E68BF090E6A07480F090E6A0E020E1F990E6BAE0FEA3E04E6011903E1E8B
:20068400EEF01202A8AF82903E1FEFF0800C754320754400903E00120C0E752E00752F3E23
:2006A400753000752CE0752D1F7531207532007533017534057535A6758251120876E582FC
:2006C400700990E6A07401F07481F022ED603090E6B9E0FFBFDF2890E6A0E020E1F9E59065
:2006E400540190E740F090E6B57401F090E68AE4F090E68B04F090E6A003F0750800229069
:20070400E6A07401F07481F02275B20775800022903E1FE0FFC0071202A8AE82D007EFB5A4
:2007240006327F05EF20E72CEFFD3395E0FEED2DFDEE33FEED2DFDEE33FEED2400FDEE34A9
:200744003EFE7C008D828E838CF0C00712025BD0071F80D02275240075253E752600752200
:20076400E075231F7527207528007529017582511207FBE5826019903E1FE0FFC007120203
:20078400A8AE82D007EFB50607903E1EE0F58222758200227F0090E6007412F0C007120132
:2007A400F712070D120759AE82D007BE01047FC8800ABE0207C007120714D007758201C0C1
:2007C40007120D65D00790E687E0600F7F00E50860F4C0071202E4D00780EBEF60E81FEF61
:1707E400600C90000AC007120D1ED00780D8C007120714D00780CFAB
:2014C50012010002FFFFFF4056040DB44000010203010904000000FFFFFF0009020000013D
:2014E50001008064D7140000E0140515141521153031323334353637383941424344454608
:20150500414E414C4F472044455649434553004556414C2D414446343335310045585045D2
:0915250052494D454E54414C0061
:0A153200C514000001ED1403EF14CE
:2007FB00C007C006C005AF82E529600AAE238E2AAE228E2B8004AE228E2AEF2FFFF582121F
:20081B000A3DE5826048E529FD3395E0FE0DBD00010E8D158E1690002A75F040120A71E5C6
:20083B0082602B74014FF582120A3DE582601F8527178528188524828525838526F0120A7F
:20085B00E8E5827004F582800B7582018006120A55758200D005D006D00722C007C006C0E1
:20087B0005C004C003C002C001C000AF82E4F536F537EF2FFFF582120A3DE5827003020950
:20089B00B4AC348CF005F07B017C008006EB2BFBEC33FCD5F0F7C3E5369531E5379532400B
:2008BB00030209B4E533600AAA2D8A38AA2C8A398004AA2C8A38E533FA3395E0FE0ABA000F
:2008DB00010E8A158E1690003875F040120A71E58270030209B4C007852C82852D838B0559
:2008FB008C068D438E44C006C005C004C003C001C000120C35AA82AF83D000D001D003D021
:20091B0004D005D006EDC39AFDEE9FFE8D3A8E3BE531C39536FEE5329537FFC3EE953AEFB8
:20093B00953BD007500DE531C39536F53AE5329537F53BE536252EFAE537352FFDAE30856A
:20095B003A15853B168A828D838EF0120A71E5826047120A55E5827004F58280517E00E52B
:20097B00356006C3EE9535500C8F82120A3DE58270030E80EAEEB535057582008030E53A8B
:20099B00252CF52CE53B352DF52DE53A2536F536E53B3537F5370208B1120A55E531B5369C
:1F09BB0008E532B53703D38001C3E433F582D000D001D002D003D004D005D006D00722AC
:2009DA00AA82AB83AC43AD44AE45AF46EE60010FEF601775AF078A9B8B9A8C9E8D9D90E6D8
:0B09FA007CE090E67BF0DEF6DFF422EC
:200A0500C007AF8290E678E020E00CE51460F5751400758200801E90E678E030E2057582B7
:200A2500008012EF600C90E678E0FF035401F5828003758201D00722C007AF8290E678745A
:200A450080F090E679EFF0758201120A05D0072290E678E030E2047582002290E6787440A2
:200A6500F090E678E020E6F975820122C007C006C005C004C003C002C001C000AD82AE831E
:200A8500AFF0E5154516700575820180457B007C00EBB51506ECB516028027EB2DF8EC3EDF
:200AA500F98F02888289838AF0120D49F890E679F0758201120A05E58260070BBB00D20C4D
:200AC50080CFEBB51507ECB51603D38001C3E433F582D000D001D002D003D004D005D006E2
:200AE500D00722C007C006C005C004C003C002C001C00085821985831A85F01BE5174518B1
:200B05007006758201020BDAAB17AC18BB0109BC000690E6787420F090E679E07B007C0036
:200B250079007A00E9B51707EAB51803020BB7758200120A05E5827003020BCA89008A07A0
:200B4500740228F8E43FFFE8B5170AEFB5180690E6787420F089068A070EBE00010FEEB547
:200B6500172CEFB5182875AF03759AE6759B7890E67B7440F0E0AFE0E92519F8EA351AFD4C
:200B8500AE1B88828D838EF0EF120BF08018E92519FDEA351AFEAF1B90E679E0F88D828ED2
:200BA500838FF0120BF009B900010A89038A04020B2990E678E030E205758200801790E61B
:200BC50078E020E6F9EBB51707ECB51803D38001C3E433F582D000D001D002D003D004D0B0
:060BE50005D006D0072236
:06009800E478FFF6D8FD3C
:010BEB0032D7
:010BEC0032D6
:010BED0032D5
:20007600790AE94400601B7A01901532782075923EE493F2A308B800020592D9F4DAF2759D
:0200960092FFD7
:010BEE0032D4
:010BEF0032D3
:03010000020E0EDE
:03010400020D46A3
:03010800020C8660
:03010C00020D429F
:03011000020D4895
:0301140002143B97
:03011800020C8353
:03011C000201B825
:03012000020C8D41
:0301240002143989
:03012800020C8E38
:03012C0002143A80
:0301300002146650
:03013400020C0BAF
:03013800020C0DA9
:03013C00020C3280
:03014000020C8A24
:030144000201B8FD
:030148000214336B
:03014C0002143466
:0301500002143561
:030154000214365C
:0301580002143757
:03015C0002143852
:03016000020D4746
:030164000201B8DD
:030168000201B8D9
:03016C000201B8D5
:03017000020C8CF2
:03017400020C8FEB
:03017800020C91E5
:03017C00020C93DF
:03018000020C90DE
:03018400020C92D8
:03018800020C94D2
:03018C00020D431E
:03019000020C342A
:03019400020C84D6
:03019800020C87CF
:03019C00020C89C9
:0301A000020C82CC
:0301A400020C85C5
:0301A800020C88BE
:0301AC00020C8BB7
:0301B000020C300E
:0301B400021459D9
:0101B8003214
:1B0BF00020F71130F6138883A88220F509F6A8837583002280FEF280F5F02204
:010C0B0032B6
:010C0C0032B5
:010C0D0032B4
:200C0E00AA82AB83AC43AD44EC60010DED601175AF038A9B8B9A90E67B7400F0DCFDDDFB5D
:010C2E0022A3
:010C2F003292
:010C30003291
:010C31003290
:010C3200328F
:010C3300328E
:010C3400328D
:200C3500E543454460467A01E54325E0F543E544334012F544E5829543E583954440030AB4
:200C550080E6C3E54413F544E54313F543C3E5829543F5F0E58395444005F58385F082C3CF
:0D0C7500E54413F544E54313F543DAE122AD
:010C8200323F
:20009E007800E84400600A790075923EE4F309D8FC7820E84400600C7901903E00E4F0A3D3
:0400BE00D8FCD9FA97
:010C8300323E
:010C8400323D
:010C8500323C
:010C8600323B
:010C8700323A
:010C88003239
:010C89003238
:010C8A003237
:010C8B003236
:010C8C003235
:010C8D003234
:010C8E003233
:010C8F003232
:010C90003231
:010C91003230
:010C9200322F
:010C9300322E
:010C9400322D
:200C9500E583700BE58224FA400122B4001122E5826003D5E0FD0075E0FED583F674F9D52E
:200CB500E0FD22C007C006C001C000AE82AF83EE2EF8EF33F9EE28FEEF39FF90E600E0F8F8
:200CD500794C20E416C3EF13CE13CEFF795AE820E309C3EF13CE13CEFF7963E58124FAF81B
:200CF500E926C313C313F9C3EE99F582EF9400F583D000D001D006D007500122020C957497
:200D150011C0E0120CB8158122C007C006AE82AF837411C0E0EE4F600D1EBEFF011F900333
:0D0D3500E8120CB880EF1581D006D007221F
:010D4200327E
:010D4300327D
:010D4400327C
:010D4500327B
:010D4600327A
:010D47003279
:010D48003278
:0D00690075814B121455E58260030200669C
:1C0D490020F71430F6148883A88220F507E6A88375830022E280F7E49322E022B9
:200D6500AF82753D00753E00D2E890E668E043E008F090E65CE043E001F090E65D7401F047
:200D8500D2AF90E680E020E10890E680E043E002F0EF600E90E680E043E008F090000A1209
:200DA5000D1E90E680E053E0F7F022AF82BF00028037BF01028036BF02028039BF0402800F
:200DC50038BF06028037BF08028036BF80028019BF8102801CBF8202801BBF8402801ABFA5
:200DE50086028019BF881E801890E6A02290E6A12290E6A22290E6A32290E6A42290E6A593
:200E05002290E6A62290000022C021C0E0C0F0C082C083C007C006C005C004C003C002C0AA
:200E250001C000C0D075D000C08675860090E6B8E0FFE4BF800104FE601990E6B9E0FDBD61
:200E4500061190E6BAE0FCA3E0F5828C1D12145A02108BEF702A90E6B9E0FDBD092290E6B7
:200E6500BAE0F5821214A7E582600990E6A07480F002108B90E6A07401F07481F002108B2B
:200E8500EE600E90E6B9E0FDBD080612148B02108B8F05BD013190E6B9E0FDBD0B2990E6D6
:200EA500BCE0FD90E6BAE0F51C8D8212143CE582600990E6A07480F002108B90E6A0740110
:200EC500F07481F002108BE4BF810104FD601490E6B9E0FCBC0A0C90E6BCE0F58212147104
:200EE50002108BEF703690E6B9E0FCBC032E90E6BAE0FBA3E0FCBB010FBC000C753D019063
:200F0500E6A07480F002108BBB0205BC0002800302108B90E6A07480F002108BEE6032907E
:200F2500E6B9E0702CAE3CE53D25E0FC420690E740EEF090E741E4F090E6B504F090E68AFC
:200F4500E4F090E68B7402F090E6A07480F002108BED602890E6B9E0702290E740E4F09089
:200F6500E741F090E6B504F090E68AE4F090E68B7402F090E6A07480F002108BBF02028020
:200F85000302103090E6B9E0FEBE03028008BE0102800302103090E6BAE0FDA3E0FE4D60EE
:200FA5000302108B90E6BCE0F582120DB0AD82AE83ED4E700302108B90E6B9E0FCBC0318A7
:200FC5008D828E83E0FC4304018D828E83ECF090E6A07480F002108B90E6BCE0F582C006E6
:200FE500C005121467E582D005D006700302108B8D828E83E0FC5304FE8D828E83ECF0909B
:20100500E6BCE0FDA3E08D0453040F530580E4C423CDC423541F6DCD541FCD6DCDFE90E6E0
:2010250083ED4CF0E043E020F0805BBF825290E6B9E0704C90E6BCE0F582120DB0AE82AF7C
:20104500838E048F05EE4F603D8C828D83E0FC5304017F00EC4FB40100B39200E433FF905C
:20106500E740F090E741E4F090E6B504F090E68AE4F090E68B7402F090E6A07480F08006EE
:2010850090E6B81202D25391EF90E65D7401F0D086D0D0D000D001D002D003D004D005D077
:2010A50006D007D083D082D0F0D0E0D02132AE82AF837401B53F28E54070248E828F83E464
:2010C50093FCA3E493FD8C438D448C828D83E493FC8C4575460090E0001209DA02130174B9
:2010E50006B53F3BE54070378E828F83A3A3E493FCA3E493FD4C700A90E6A07401F07481C2
:20110500F0228C028D038A438B448C828D83E493FC8C4575460090E0001209DA02130174F2
:2011250002B53F02800302122A8E828F83A3A3A3A3E493FDC3E5409D400302122A8E828F2A
:2011450083A3A3A3A3A3E493FCA3E493FDE54075F002A42CF582ED35F0F583E493FCA3E4F7
:2011650093FD74092CFAE43DFB8C008D01884389448C828D83E493F9894575460090E000E2
:20118500C005C004C003C0021209DAD002D003D004D0058C828D83E4932400FCE434E0FD4F
:2011A5008C418D428A828B83E493F8A3E493F98843894488828983E493F8884575460085C8
:2011C5004182854283C005C004C003C0021209DAD002D003D004D0058A828B83E493F8A380
:2011E500E493F988828983E4932CFCE43DFD74022AFAE43BFB8A828B83E493F8A3E493F957
:2012050048709D90E002E0FAA3E0FB4A6003021301ECC39400FCED94E0FD90E002ECF0ED0F
:20122500A3F00213017403B53F0474018001E4FD601EE540701A75432E75441590152EE422
:2012450093FC8C4575460090E0001209DA021301ED70030212F7AC407D00EC24FFFAED34F5
:20126500FFFB74072EF582E43FF583E493F87900C3EA98EB648089F063F08095F0507374B0
:20128500082EF582E43FF583E493FEA3E493FF1CBCFF011DEC2CFCED33FDEC2EF582ED3F90
:2012A500F583E493FEA3E493FF90E0007402F090E00104F074012401FCE434E0FD8E828FBE
:2012C50083E493FB60360EBE00010F8C828D83EBF074012CFAE43DFB8A828B83E4F0042AD6
:2012E500FCE43BFD90E000E0FB0B0B90E000EBF080CB90E6A07401F07481F0227E007FE07B
:2013050090E6B57401F090E6B3EFF090E6B4EEF090E6A07480F022AE82AF83A3A3A3A3A37B
:20132500E493FCA3E493FD74042EFEE43FFF7545008E828F83E493FAC3E5459A400122E53C
:201345004575F002A42CF582ED35F0F583E493F546A3E493F54774092546F8E43547FA7554
:201365004900854682854783A3A3A3A3A3E493F9B53E02800302142E880189828A83E49310
:20138500F8A3E493FB88828B83A3E493FBBB043989828A83E493F54AA3E493F54B854A829D
:2013A500854B83A3A3E493F8B54311854A82854B83A3A3A3E493F8B544028005754800805E
:2013C500037548018548498048BB0545E5496041C004C00589828A83E493F8A3E493FB88E8
:2013E500828B83A3A3E493FB740F5BF8530380E423CBC423541F6BCB541FCB6BCB30E40208
:2014050044E090E683EB48F0E043E020F0D005D004740229F9E43AFA89828A83E493F8A3F1
:0E142500E493FB48600302137F054502133673
:04152E0004030904A5
:011433003286
:011434003285
:011435003284
:011436003283
:011437003282
:011438003281
:011439003280
:01143A00327F
:01143B00327E
:19143C00AF82E51C700F8F43851C44903E2012131C7582012275820022CD
:04145500758200227A
:011459003260
:0C145A0085823F851D40903E200210B3AB
:011466003253
:0A14670090E6A07480F07582012267
:1A14710090E740E4F090E6B504F090E68AE4F090E68B04F090E6A003F022C3
:1C148B0090E740E53EF090E6B57401F090E68AE4F090E68B04F090E6A003F022F7
:1E14A700E582FF6003BF01128F3E7543FF7544FF903E2012131C7582012275820022EE
:00000001FF
