:06000000020069020B433F
:03000B00020B6481
:03001300020B4598
:03001B00020B874E
:03002300020C9C30
:03002B00020B893C
:03003300020B8B32
:03003B00020C9D17
:03004300020100B7
:03004B00020B4461
:03005300020100A7
:03005B00020B464F
:03006300020B4746
:0900C200750800750905020066CD
:030066000206F19E
:2001C400AD82AE83AFF074032DFDE43EFE7C007B20EB60328B011BE954076002800F8D82DC
:2001E4008E838FF0120CA1FC1DBDFF011EEC30E70575800480037580004380027580008CF9
:2002040002EA2AFC80CB758001758000227F007C007D3E7E007B00C3EB6480949F50158C0B
:20022400828D838EF0120CA1FAA3AC82AD83EA62070B80E38F8222E508600790E6A074011D
:20024400F0227508012290E6B8E0FFE4BF400104FE601890E6B9E0FDBDB01090E6BAE0F5EF
:200264000975080090E6A07480F022E4BFC00104FD7006EE70030203BC90E6B9E0FCBCA272
:20028400028008BCA90280030203BCEF235401F50A90E6BAE0F50BA3E0F50C90E6BEE0F522
:2002A4000DA3E0F50EBCA9028022AB0BAC0CC374FF9BE49C4016E50D250BFBE50E350CFC3C
:2002C400C374FF9BE49C40047C0080027C01ECF50F600678517B00800478507B008810759C
:2002E4000800E50D450E70030203BBA80DAB0EC3E89440EB94005002800478407B00E50A16
:20030400604990E6A0E020E1F97523407524E77525008826752700850B21850C22850F28E4
:20032400851082120752E582700990E6A07401F00203BB90E6B57401F090E68AE4F090E642
:200344008BE8F090E6A07480F0804A90E6B57401F090E68AE4F090E68BF090E6A07480F023
:2003640090E6A0E020E1F9752D40752EE7752F008830753100850B2B850C2C850F3285094F
:20038400337534A68510821207CDE582700790E6A07401F0227B00AA0DAC0EEAC398FAEC48
:2003A4009BFC8A0D8C0EA90BAA0CE829F8EB3AFB880B8B0C0202E622ED7006EE70030204DE
:2003C400A590E6B9E0FCBCA30280030204A5EF235401F51190E6BAE0F512A3E0F51390E655
:2003E400BEE0F9A3E0FA750800E94A70030204A489008A07C3E89440EF94005002800478AE
:20040400407F00E511603C90E6A0E020E1F9851246851347884875490090E740C002C00113
:20042400C000120931D000D001D00290E6B57401F090E68AE4F090E68BE8F090E6A07480F2
:20044400F0803B90E6B57401F090E68AE4F090E68BF090E6A07480F090E6A0E020E1F98529
:2004640012828513837546407547E789488A49C002C001C000120931D000D001D0027F0006
:2004840089038A04EBC398FBEC9FFC8B018C02AB12AC13E82BF8EF3CFF88128F130203ED7D
:2004A40022ED603090E6B9E0FFBFA62890E6A0E020E1F990E60AE090E740F090E6B5740167
:2004C400F090E68AE4F090E68B04F090E6A003F075080022EE604490E6B9E0FFBFA83C90E4
:2004E400E6A0E020E1F990E6B57401F090E68AE4F090E68BF090E6A07480F0900001120C9A
:200504007690E680E043E008F090000A120C7690E680E053E0F7F075080022EE700302054B
:20052400A490E6B9E0FFBFDD0280030205A475080090E6B57401F090E68AE4F090E68BF067
:2005440090E6A07480F090E6A0E020E1F990E68BE0FFBF0402800B90E68BE0FFBF05028057
:20056400012290E740E05407FF24FA5001227C00EF2FFFEC33FCEF2FFFEC33FCEF2400FFD4
:20058400EC343EFC8F828C837546407547E775480475490012093190E74075F0000201C491
:2005A400EE700302062C90E6B9E0FFBFDE02800302062C75080090E6B57401F090E68AE44D
:2005C400F090E68BF090E6A07480F090E6A0E020E1F990E6BAE0FEA3E04E6011903E1EEE22
:2005E400F0120211AF82903E1FEFF0800C754620754700903E00120B66752D00752E3E7579
:200604002F00752BE0752C1F7530207531007532017533057534A67582511207CDE5827053
:200624000690E6A07401F022ED603090E6B9E0FFBFDF2890E6A0E020E1F9E590540190E791
:2006440040F090E6B57401F090E68AE4F090E68B04F090E6A003F07508002290E6A07401DA
:20066400F02275B20775800022903E1FE0FFC007120211AE82D007EFB506327F05EF20E70A
:200684002CEFFD3395E0FEED2DFDEE33FEED2DFDEE33FEED2400FDEE343EFE7C008D828EA7
:2006A400838CF0C0071201C4D0071F80D02275230075243E7525007521E075221F75262041
:2006C400752700752801758251120752E5826019903E1FE0FFC007120211AE82D007EFB5E6
:2006E4000607903E1EE0F58222758200227F0090E6007412F0C0071206661206B2AE82D0F1
:2007040007BE01047FFA800ABE0207C00712066DD007758201C007120CBDD00790E687E0D0
:20072400600DE50860F6C00712024AD00780EDEF60EA8F06EE14FF600C900005C007120CE7
:0E07440076D00780D7C00712066DD00780CE92
:20140B0012010002FFFFFF4056040DB43600010200010904000000FFFFFF00090200000104
:20142B00010080641D140000261439144814414E414C4F47204445564943455300455641F7
:0A144B004C2D414446343335310086
:0A1459000B140000013314023514D7
:20075200C007C006C005AF82E528600AAE228E29AE218E2A8004AE218E29EF2FFFF58212CF
:200772000995E5826048E528FD3395E0FE0DBD00010E8D158E1690002975F0401209C9E5C4
:2007920082602B74014FF582120995E582601F8526178527188523828524838525F0120AD7
:2007B20040E5827004F582800B75820180061209AD758200D005D006D00722C007C006C0DC
:2007D20005C004C003C002C001C000AF82E4F535F536EF2FFFF582120995E58270030209A5
:2007F2000BAC338CF005F07B017C008006EB2BFBEC33FCD5F0F7C3E5359530E53695314063
:200812000302090BE532600AAA2C8A37AA2B8A388004AA2B8A37E532FA3395E0FE0ABA0069
:20083200010E8A158E1690003775F0401209C9E582700302090BC007852B82852C838B0557
:200852008C068D468E47C006C005C004C003C001C000120B8DAA82AF83D000D001D003D06D
:2008720004D005D006EDC39AFDEE9FFE8D398E3AE530C39535FEE5319536FFC3EE9539EF69
:20089200953AD007500DE530C39535F539E5319536F53AE535252DFAE536352EFDAE2F8520
:2008B2003915853A168A828D838EF01209C9E58260471209ADE5827004F58280517E00E529
:2008D200346006C3EE9534500C8F82120995E58270030E80EAEEB534057582008030E539E2
:2008F200252BF52BE53A352CF52CE5392535F535E53A3536F5360208081209ADE530B535A5
:1F09120008E531B53603D38001C3E433F582D000D001D002D003D004D005D006D0072257
:20093100AA82AB83AC46AD47AE48AF49EE60010FEF601775AF078A9B8B9A8C9E8D9D90E675
:0B0951007CE090E67BF0DEF6DFF42295
:20095C00C007AF8290E678E020E00CE51460F5751400758200801F90E678E030E205758260
:20097C00008013EF600D90E678E0FFA2E1E433F5828003758201D00722C007AF8290E67834
:20099C007480F090E679EFF075820112095CD0072290E678E030E2047582002290E67874C2
:2009BC0040F090E678E020E6F975820122C007C006C005C004C003C002C001C000AD82AE0B
:2009DC0083AFF0E5154516700575820180457B007C00EBB51506ECB516028027EB2DF8EC44
:2009FC003EF98F02888289838AF0120CA1F890E679F075820112095CE58260070BBB00D218
:200A1C000C80CFEBB51507ECB51603D38001C3E433F582D000D001D002D003D004D005D085
:200A3C0006D00722C007C006C005C004C003C002C001C00085821985831A85F01BE517456C
:200A5C00187006758201020B32AB17AC18BB0109BC000690E6787420F090E679E07B007C70
:200A7C000079007A00E9B51707EAB51803020B0F75820012095CE5827003020B2289008A4B
:200A9C0007740228F8E43FFFE8B5170AEFB5180690E6787420F089068A070EBE00010FEE9F
:200ABC00B5172CEFB5182875AF03759AE6759B7890E67B7440F0E0AFE0E92519F8EA351A3E
:200ADC00FDAE1B88828D838EF0EF120B488018E92519FDEA351AFEAF1B90E679E0F88D82B5
:200AFC008E838FF0120B4809B900010A89038A04020A8190E678E030E2057582008017906E
:200B1C00E678E020E6F9EBB51707ECB51803D38001C3E433F582D000D001D002D003D00443
:070B3C00D005D006D007220E
:06009800E478FFF6D8FD3C
:010B4300327F
:010B4400327E
:010B4500327D
:20007600790AE94400601B7A01901459782075923EE493F2A308B800020592D9F4DAF27577
:0200960092FFD7
:010B4600327C
:010B4700327B
:03010000020D6687
:03010400020C9E4C
:03010800020BDE09
:03010C00020C9A48
:03011000020CA03E
:0301140002138152
:03011800020BDBFC
:03011C000201B825
:03012000020BE5EA
:0301240002137F44
:03012800020BE6E1
:03012C000213803B
:030130000213AC0B
:03013400020B6358
:03013800020B6552
:03013C00020B8A29
:03014000020BE2CD
:030144000201B8FD
:0301480002137926
:03014C0002137A21
:0301500002137B1C
:0301540002137C17
:0301580002137D12
:03015C0002137E0D
:03016000020C9FEF
:030164000201B8DD
:030168000201B8D9
:03016C000201B8D5
:03017000020BE49B
:03017400020BE794
:03017800020BE98E
:03017C00020BEB88
:03018000020BE887
:03018400020BEA81
:03018800020BEC7B
:03018C00020C9BC7
:03019000020B8CD3
:03019400020BDC7F
:03019800020BDF78
:03019C00020BE172
:0301A000020BDA75
:0301A400020BDD6E
:0301A800020BE067
:0301AC00020BE360
:0301B000020B88B7
:0301B40002139F94
:0101B8003214
:1B0B480020F71130F6138883A88220F509F6A8837583002280FEF280F5F022AC
:010B6300325F
:010B6400325E
:010B6500325D
:200B6600AA82AB83AC46AD47EC60010DED601175AF038A9B8B9A90E67B7400F0DCFDDDFB00
:010B8600224C
:010B8700323B
:010B8800323A
:010B89003239
:010B8A003238
:010B8B003237
:010B8C003236
:200B8D00E546454760467A01E54625E0F546E547334012F547E5829546E583954740030A45
:200BAD0080E6C3E54713F547E54613F546C3E5829546F5F0E58395474005F58385F082C366
:0D0BCD00E54713F547E54613F546DAE1224A
:010BDA0032E8
:20009E007800E84400600A790075923EE4F309D8FC7820E84400600C7901903E00E4F0A3D3
:0400BE00D8FCD9FA97
:010BDB0032E7
:010BDC0032E6
:010BDD0032E5
:010BDE0032E4
:010BDF0032E3
:010BE00032E2
:010BE10032E1
:010BE20032E0
:010BE30032DF
:010BE40032DE
:010BE50032DD
:010BE60032DC
:010BE70032DB
:010BE80032DA
:010BE90032D9
:010BEA0032D8
:010BEB0032D7
:010BEC0032D6
:200BED00E583700BE58224FA400122B4001122E5826003D5E0FD0075E0FED583F674F9D5D7
:200C0D00E0FD22C007C006C001C000AE82AF83EE2EF8EF33F9EE28FEEF39FF90E600E0F8A0
:200C2D00794C20E416C3EF13CE13CEFF795AE820E309C3EF13CE13CEFF7963E58124FAF8C3
:200C4D00E926C313C313F9C3EE99F582EF9400F583D000D001D006D007500122020BED74E8
:200C6D0011C0E0120C10158122C007C006AE82AF837411C0E0EE4F600D1EBEFF011F900384
:0D0C8D00E8120C1080EF1581D006D0072270
:010C9A003227
:010C9B003226
:010C9C003225
:010C9D003224
:010C9E003223
:010C9F003222
:010CA0003221
:0D00690075815112139BE582600302006651
:1C0CA10020F71430F6148883A88220F507E6A88375830022E280F7E49322E02262
:200CBD00AF82753C00753D00D2E890E668E043E008F090E65CE043E001F090E65D7401F0F2
:200CDD00D2AF90E680E020E10890E680E043E002F0EF600E90E680E043E008F090000A12B2
:200CFD000C7690E680E053E0F7F022AF82BF00028037BF01028036BF02028039BF04028061
:200D1D0038BF06028037BF08028036BF80028019BF8102801CBF8202801BBF8402801ABF4D
:200D3D0086028019BF881E801890E6A02290E6A12290E6A22290E6A32290E6A42290E6A53B
:200D5D002290E6A62290000022C020C0E0C0F0C082C083C007C006C005C004C003C002C054
:200D7D0001C000C0D075D000C08675860090E6B8E0FFE4BF800104FE601990E6B9E0FDBD0A
:200D9D00061190E6BAE0FCA3E0F5828C1D1213A0020FD7EF702790E6B9E0FDBD091F90E6D6
:200DBD00BAE0F5821213EDE582600990E6A07480F0020FD790E6A07401F0020FD7EE600E82
:200DDD0090E6B9E0FDBD08061213D1020FD78F05BD012E90E6B9E0FDBD0B2690E6BCE0FDB8
:200DFD0090E6BAE0F51C8D82121382E582600990E6A07480F0020FD790E6A07401F0020FC1
:200E1D00D7E4BF810104FD601490E6B9E0FCBC0A0C90E6BCE0F5821213B7020FD7EF703685
:200E3D0090E6B9E0FCBC032E90E6BAE0FBA3E0FCBB010FBC000C753C0190E6A07480F002D2
:200E5D000FD7BB0205BC00028003020FD790E6A07480F0020FD7EE603290E6B9E0702CAEE9
:200E7D003BE53C25E0FC420690E740EEF090E741E4F090E6B504F090E68AE4F090E68B7427
:200E9D0002F090E6A07480F0020FD7ED602890E6B9E0702290E740E4F090E741F090E6B5ED
:200EBD0004F090E68AE4F090E68B7402F090E6A07480F0020FD7BF02028003020F8290E6B5
:200EDD00B9E0FEBE03028008BE01028003020F8290E6BAE0FDA3E0FE4D6003020FD790E6A0
:200EFD00BCE0F582120D08AD82AE83ED4E7003020FD790E6B9E0FCBC03188D828E83E0FCC7
:200F1D004304018D828E83ECF090E6A07480F0020FD790E6BCE0F582C006C0051213ADE5C3
:200F3D0082D005D0067003020FD78D828E83E0FC5304FE8D828E83ECF090E6BCE0FDA3E02D
:200F5D008D0453040F530580E4C423CDC423541F6DCD541FCD6DCDFE90E683ED4CF0E043BC
:200F7D00E020F08055BF824C90E6B9E0704690E6BCE0F582120D08AE82AF83EE4F603B8EC5
:200F9D00828F83E0FE5306017F00EE4FB40100B3E433FF90E740F090E741E4F090E6B504CC
:200FBD00F090E68AE4F090E68B7402F090E6A07480F0800690E6B812023B5391EF90E65D46
:200FDD007401F0D086D0D0D000D001D002D003D004D005D006D007D083D082D0F0D0E0D018
:200FFD002032AE82AF837401B54228E54370248E828F83E493FCA3E493FD8C468D478C8270
:20101D008D83E493FC8C4875490090E0001209310212477406B54238E54370348E828F83F0
:20103D00A3A3E493FCA3E493FD4C700790E6A07401F0228C028D038A468B478C828D83E4A1
:20105D0093FC8C4875490090E0001209310212477402B5420280030211738E828F83A3A35B
:20107D00A3A3E493FDC3E5439D40030211738E828F83A3A3A3A3A3E493FCA3E493FDE54345
:20109D0075F002A42CF582ED35F0F583E493FCA3E493FD74092CFAE43DFB8C008D018846CA
:2010BD0089478C828D83E493F9894875490090E000C005C004C003C002120931D002D003B7
:2010DD00D004D0058C828D83E4932400FCE434E0FD8C448D458A828B83E493F8A3E493F962
:2010FD008846894788828983E493F88848754900854482854583C005C004C003C002120961
:20111D0031D002D003D004D0058A828B83E493F8A3E493F988828983E4932CFCE43DFD7450
:20113D00022AFAE43BFB8A828B83E493F8A3E493F948709D90E002E0FAA3E0FB4A600302E8
:20115D001247ECC39400FCED94E0FD90E002ECF0EDA3F00212477403B5420474018001E407
:20117D00FD601EE543701A754655754714901455E493FC8C4875490090E000120931021277
:20119D0047ED7003021240AC437D00EC24FFFAED34FFFB74072EF582E43FF583E493F87904
:2011BD0000C3EA98EB648089F063F08095F0507374082EF582E43FF583E493FEA3E493FF20
:2011DD001CBCFF011DEC2CFCED33FDEC2EF582ED3FF583E493FEA3E493FF90E0007402F033
:2011FD0090E00104F074012401FCE434E0FD8E828F83E493FB60330EBE00010F8C828D83C1
:20121D00EBF074012CFAE43DFB8A828B83E4F0042AFCE43BFD90E000E0FB0B0B90E000EB2F
:20123D00F080CB90E6A07401F0227E007FE090E6B57401F090E6B3EFF090E6B4EEF090E6C6
:20125D00A07480F022AE82AF83A3A3A3A3A3E493F550A3E493F55174042EFEE43FFF75489B
:20127D00008E828F83E493FAC3E5489A400122E54875F002A42550F582E55135F0F583E4F6
:20129D0093F549A3E493F54A74092549F54BE4354AF54C7900854982854A83A3A3A3A3A3EE
:2012BD00E493FAB53D028003021374A84BAA4C88828A83E493FBA3E493FD8B828D83A3E473
:2012DD0093F54D7404B54D3588828A83E493F54EA3E493F54F854E82854F83A3A3E493B520
:2012FD004611854E82854F83A3A3A3E493FBB5470280047B0080027B018B0180427405B5FC
:20131D004D3DE9603A88828A83E493FBA3E493FD8B828D83A3A3E493FD740F5DFC53058078
:20133D00E423CDC423541F6DCD541FCD6DCD30E40244E0FB90E683ED4CF0E043E020F074D0
:1C135D000228F8E43AFA88828A83E493FBA3E493FD4B60030212CC054802127E2D
:04145500040309047F
:011379003241
:01137A003240
:01137B00323F
:01137C00323E
:01137D00323D
:01137E00323C
:01137F00323B
:01138000323A
:011381003239
:19138200AF82E51C700F8F46851C47903E2012126275820122758200223D
:04139B007582002235
:01139F00321B
:0C13A000858242851D43903E20020FFF15
:0113AC00320E
:0A13AD0090E6A07480F07582012222
:1A13B70090E740E4F090E6B504F090E68AE4F090E68B04F090E6A003F0227E
:1C13D10090E740E53DF090E6B57401F090E68AE4F090E68B04F090E6A003F022B3
:1E13ED00E582FF6003BF01128F3D7546FF7547FF903E2012126275820122758200225F
:00000001FF
