:06000000020069020D6F11
:03000B00020D9053
:03001300020D716A
:03001B00020DB320
:03002300020EC802
:03002B00020DB50E
:03003300020DB704
:03003B00020EC9E9
:03004300020100B7
:03004B00020D7033
:03005300020100A7
:03005B00020D7221
:03006300020D7318
:0900C20075320075330502006679
:0300660002091C70
:2001C400AF821FC2D575F002EF30E704B2D5F404A430D50AF42401C5F0F43400C5F024734F
:2001E400F582741635F0F583E493FEA3E4938E82F583227522307523317524327525337587
:200204002634752735752836752937752A38752B39752C41752D42752E43752F44753045D9
:20022400753146901659E493F5821201C4AE82AF83740B2EFCE43FFD90E507E0FB5303F042
:20024400E4C4CBC4540F6BCB540FCB6BCB30E30244F0EB2422F987038C828D83EBF0740AF2
:200264002EFCE43FFD90E507E0FB53030FEB2422F987038C828D83EBF074092EFCE43FFD00
:2002840090E508E0FB5303F0E4C4CBC4540F6BCB540FCB6BCB30E30244F0EB2422F987038B
:2002A4008C828D83EBF074082EFCE43FFD90E508E0FB53030FEB2422F987038C828D83EB01
:2002C400F074072EFCE43FFD90E509E0FB5303F0E4C4CBC4540F6BCB540FCB6BCB30E3027D
:2002E40044F0EB2422F987038C828D83EBF074062EFCE43FFD90E509E0FB53030FEB242266
:20030400F987038C828D83EBF074052EFCE43FFD90E50AE0FB5303F0E4C4CBC4540F6BCB2A
:20032400540FCB6BCB30E30244F0EB2422F987038C828D83EBF074042EFCE43FFD90E50A1E
:20034400E0FB53030FEB2422F987038C828D83EBF074032EFCE43FFD90E50BE0FB5303F04A
:20036400E4C4CBC4540F6BCB540FCB6BCB30E30244F0EB2422F987038C828D83EBF07402D9
:200384002EFCE43FFD90E50BE0FB53030FEB2422F987038C828D83EBF074012EFCE43FFDE3
:2003A40090E50CE0FB5303F0E4C4CBC4540F6BCB540FCB6BCB30E30244F0EB2422F9870366
:2003C4008C828D83EBF090E50CE0FD53050FED2422F987058E828F83EDF022AD82AE83AF73
:2003E400F074032DFDE43EFE7C007B00BB20005030EB54076002800F8D828E838FF0120E00
:20040400CDFC1DBDFF011EEC30E70575800480037580004380027580008C02EA2AFC0B80BB
:20042400CB758001758000227F007C007D3E7E007B00C3EB6480949F50158C828D838EF06B
:20044400120ECDFAA3AC82AD83EA62070B80E38F8222E532600A90E6A07401F07481F022B9
:200464007532012290E6B8E0FFE4BF400104FE601890E6B9E0FDBDB01090E6BAE0F533750D
:20048400320090E6A07480F022E4BFC00104FD7006EE70030205E190E6B9E0FCBCA20280FB
:2004A40008BCA90280030205E1EF235401F53490E6BAE0F535A3E0F53690E6BEE0F537A303
:2004C400E0F538BCA9028023AB35AC36C374FF9BE49C4017E5372535FBE5383536FCC3746B
:2004E400FF9BE49C40057539008003753901E539600678517B00800478507B00883A7532C1
:2005040000E537453870030205E0A837AB38C3E89440EB94005002800478407B00E53460A2
:200524004C90E6A0E020E1F97540407541E7754200884375440085353E85363F8539458534
:200544003A8212097FE582700C90E6A07401F07481F00205E090E6B57401F090E68AE4F0B3
:2005640090E68BE8F090E6A07480F0804D90E6B57401F090E68AE4F090E68BF090E6A074F8
:2005840080F090E6A0E020E1F9754A40754BE7754C00884D754E0085354885364985394FE5
:2005A4008533507551A6853A821209FAE582700A90E6A07401F07481F0227B00AA37AC38CA
:2005C400EAC398FAEC9BFC8A378C38A935AA36E829F8EB3AFB88358B3602050522ED7006DA
:2005E400EE70030206CA90E6B9E0FCBCA30280030206CAEF235401F53B90E6BAE0F53CA388
:20060400E0F53D90E6BEE0F9A3E0FA753200E94A70030206C989008A07C3E89440EF940000
:200624005002800478407F00E53B603C90E6A0E020E1F9853C58853D59885A755B0090E7A0
:2006440040C002C001C000120B5ED000D001D00290E6B57401F090E68AE4F090E68BE8F0E8
:2006640090E6A07480F0803B90E6B57401F090E68AE4F090E68BF090E6A07480F090E6A05C
:20068400E020E1F9853C82853D837558407559E7895A8A5BC002C001C000120B5ED000D00C
:2006A40001D0027F0089038A04EBC398FBEC9FFC8B018C02AB3CAC3DE82BF8EF3CFF883C1F
:2006C4008F3D02061222ED603090E6B9E0FFBFA62890E6A0E020E1F990E60AE090E740F0FF
:2006E40090E6B57401F090E68AE4F090E68B04F090E6A003F075320022EE604490E6B9E02A
:20070400FFBFA83C90E6A0E020E1F990E6B57401F090E68AE4F090E68BF090E6A07480F0F4
:20072400900001120EA290E680E043E008F090000A120EA290E680E053E0F7F0753200225C
:20074400EE70030207C990E6B9E0FFBFDD0280030207C975320090E6B57401F090E68AE446
:20076400F090E68BF090E6A07480F090E6A0E020E1F990E68BE0FFBF0402800B90E68BE099
:20078400FFBF050280012290E740E05407FF24FA5001227C00EF2FFFEC33FCEF2FFFEC337B
:2007A400FCEF2400FFEC343EFC8F828C837558407559E7755A04755B00120B5E90E74075A1
:2007C400F0000203DFEE700302085490E6B9E0FFBFDE02800302085475320090E6B57401AD
:2007E400F090E68AE4F090E68BF090E6A07480F090E6A0E020E1F990E6BAE0FEA3E04E6017
:2008040011903E1EEEF012042CAF82903E1FEFF0800C755820755900903E00120D92754A35
:2008240000754B3E754C007548E075491F754D20754E00754F017550057551A67582511281
:2008440009FAE582700990E6A07401F07481F022ED603090E6B9E0FFBFDF2890E6A0E020C8
:20086400E1F9E590540190E740F090E6B57401F090E68AE4F090E68B04F090E6A003F07552
:2008840032002290E6A07401F07481F02275B20775800022903E1FE0FFC00712042CAE8234
:2008A400D007EFB506327F05EF20E72CEFFD3395E0FEED2DFDEE33FEED2DFDEE33FEED24CC
:2008C40000FDEE343EFE7C008D828E838CF0C0071203DFD0071F80D02275400075413E7560
:2008E4004200753EE0753F1F75432075440075450175825112097FE5826019903E1FE0FF72
:20090400C00712042CAE82D007EFB50607903E1EE0F58222758200227F0090E6007412F029
:20092400C0071201F71208911208DDAE82D007BE01047FC8800ABE0207C007120898D0078E
:20094400758201C007120EE9D00790E687E0600F7F00E53260F4C007120468D00780EBEF48
:1B09640060E81FEF600C90000AC007120EA2D00780D8C007120898D00780CFC5
:2016490012010002FFFFFF4056040DB43700010203010904000000FFFFFF000902000001C0
:20166900010080645B1600006416791688169516414E414C4F47204445564943455300459F
:1916890056414C2D41444634333531004558504552494D454E54414C0012
:0A16A60049160000017116037316C7
:20097F00C007C006C005AF82E545600AAE3F8E46AE3E8E478004AE3E8E46EF2FFFF58212D5
:20099F000BC1E5826048E545FD3395E0FE0DBD00010E8D098E0A90004675F040120BF5E517
:2009BF0082602B74014FF582120BC1E582601F85430B85440C8540828541838542F0120CFF
:2009DF006CE5827004F582800B7582018006120BD9758200D005D006D00722C007C006C053
:2009FF0005C004C003C002C001C000AF82E4F552F553EF2FFFF582120BC1E5827003020B0C
:200A1F0038AC508CF005F07B017C008006EB2BFBEC33FCD5F0F7C3E552954DE553954E4075
:200A3F0003020B38E54F600AAA498A54AA488A558004AA488A54E54FFA3395E0FE0ABA0023
:200A5F00010E8A098E0A90005475F040120BF5E5827003020B38C0078548828549838B058C
:200A7F008C068D588E59C006C005C004C003C001C000120DB9AA82AF83D000D001D003D0EC
:200A9F0004D005D006EDC39AFDEE9FFE8D568E57E54DC39552FEE54E9553FFC3EE9556EF6F
:200ABF009557D007500DE54DC39552F556E54E9553F557E552254AFAE553354BFDAE4C8595
:200ADF00560985570A8A828D838EF0120BF5E5826047120BD9E5827004F58280517E00E57C
:200AFF00516006C3EE9551500C8F82120BC1E58270030E80EAEEB551057582008030E55611
:200B1F002548F548E5573549F549E5562552F552E5573553F553020A35120BD9E54DB5529F
:1F0B3F0008E54EB55303D38001C3E433F582D000D001D002D003D004D005D006D00722EE
:200B5E00AA82AB83AC58AD59AE5AAF5BEE60010FEF601775AF078A9B8B9A8C9E8D9D90E6FE
:0B0B7E007CE090E67BF0DEF6DFF42266
:200B8900C007AF8290E678E020E00CE50860F5750800758200801E90E678E030E20575824A
:200BA900008012EF600C90E678E0FF035401F5828003758201D00722C007AF8290E67874D5
:200BC90080F090E679EFF0758201120B89D0072290E678E030E2047582002290E678744098
:200BE900F090E678E020E6F975820122C007C006C005C004C003C002C001C000AD82AE8399
:200C0900AFF0E509450A700575820180457B007C00EBB50906ECB50A028027EB2DF8EC3E89
:200C2900F98F02888289838AF0120ECDF890E679F0758201120B89E58260070BBB00D20CBD
:200C490080CFEBB50907ECB50A03D38001C3E433F582D000D001D002D003D004D005D00674
:200C6900D00722C007C006C005C004C003C002C001C00085820D85830E85F00FE50B450C67
:200C89007006758201020D5EAB0BAC0CBB0109BC000690E6787420F090E679E07B007C0043
:200CA90079007A00E9B50B07EAB50C03020D3B758200120B89E5827003020D4E89008A07A2
:200CC900740228F8E43FFFE8B50B0AEFB50C0690E6787420F089068A070EBE00010FEEB5DA
:200CE9000B2CEFB50C2875AF03759AE6759B7890E67B7440F0E0AFE0E9250DF8EA350EFDF7
:200D0900AE0F88828D838EF0EF120D748018E9250DFDEA350EFEAF0F90E679E0F88D828EF6
:200D2900838FF0120D7409B900010A89038A04020CAD90E678E030E205758200801790E68A
:200D490078E020E6F9EBB50B07ECB50C03D38001C3E433F582D000D001D002D003D004D042
:060D690005D006D00722B0
:06009800E478FFF6D8FD3C
:010D6F003251
:010D70003250
:010D7100324F
:20007600790AE94400601B7A019016A6782075923EE493F2A308B800020592D9F4DAF27528
:0200960092FFD7
:010D7200324E
:010D7300324D
:03010000020F9259
:03010400020ECA1E
:03010800020E0ADA
:03010C00020EC61A
:03011000020ECC10
:030114000215BF12
:03011800020E07CD
:03011C000201B825
:03012000020E11BB
:030124000215BD04
:03012800020E12B2
:03012C000215BEFB
:030130000215EACB
:03013400020D8F2A
:03013800020D9124
:03013C00020DB6FB
:03014000020E0E9E
:030144000201B8FD
:030148000215B7E6
:03014C000215B8E1
:030150000215B9DC
:030154000215BAD7
:030158000215BBD2
:03015C000215BCCD
:03016000020ECBC1
:030164000201B8DD
:030168000201B8D9
:03016C000201B8D5
:03017000020E106C
:03017400020E1365
:03017800020E155F
:03017C00020E1759
:03018000020E1458
:03018400020E1652
:03018800020E184C
:03018C00020EC799
:03019000020DB8A5
:03019400020E0850
:03019800020E0B49
:03019C00020E0D43
:0301A000020E0646
:0301A400020E093F
:0301A800020E0C38
:0301AC00020E0F31
:0301B000020DB489
:0301B4000215DD54
:0101B8003214
:1B0D740020F71130F6138883A88220F509F6A8837583002280FEF280F5F0227E
:010D8F003231
:010D90003230
:010D9100322F
:200D9200AA82AB83AC58AD59EC60010DED601175AF038A9B8B9A90E67B7400F0DCFDDDFBAE
:010DB200221E
:010DB300320D
:010DB400320C
:010DB500320B
:010DB600320A
:010DB7003209
:010DB8003208
:200DB900E558455960467A01E55825E0F558E559334012F559E5829558E583955940030A87
:200DD90080E6C3E55913F559E55813F558C3E5829558F5F0E58395594005F58385F082C3CC
:0D0DF900E55913F559E55813F558DAE122D4
:010E060032B9
:20009E007800E84400600A790075923EE4F309D8FC7820E84400600C7901903E00E4F0A3D3
:0400BE00D8FCD9FA97
:010E070032B8
:010E080032B7
:010E090032B6
:010E0A0032B5
:010E0B0032B4
:010E0C0032B3
:010E0D0032B2
:010E0E0032B1
:010E0F0032B0
:010E100032AF
:010E110032AE
:010E120032AD
:010E130032AC
:010E140032AB
:010E150032AA
:010E160032A9
:010E170032A8
:010E180032A7
:200E1900E583700BE58224FA400122B4001122E5826003D5E0FD0075E0FED583F674F9D5A8
:200E3900E0FD22C007C006C001C000AE82AF83EE2EF8EF33F9EE28FEEF39FF90E600E0F872
:200E5900794C20E416C3EF13CE13CEFF795AE820E309C3EF13CE13CEFF7963E58124FAF895
:200E7900E926C313C313F9C3EE99F582EF9400F583D000D001D006D007500122020E19748B
:200E990011C0E0120E3C158122C007C006AE82AF837411C0E0EE4F600D1EBEFF011F900328
:0D0EB900E8120E3C80EF1581D006D0072214
:010EC60032F9
:010EC70032F8
:010EC80032F7
:010EC90032F6
:010ECA0032F5
:010ECB0032F4
:010ECC0032F3
:0D0069007581601215D9E582600302006602
:1C0ECD0020F71430F6148883A88220F507E6A88375830022E280F7E49322E02234
:200EE900AF82751100751200D2E890E668E043E008F090E65CE043E001F090E65D7401F01A
:200F0900D2AF90E680E020E10890E680E043E002F0EF600E90E680E043E008F090000A1283
:200F29000EA290E680E053E0F7F022AF82BF00028037BF01028036BF02028039BF04028004
:200F490038BF06028037BF08028036BF80028019BF8102801CBF8202801BBF8402801ABF1F
:200F690086028019BF881E801890E6A02290E6A12290E6A22290E6A32290E6A42290E6A50D
:200F89002290E6A62290000022C021C0E0C0F0C082C083C007C006C005C004C003C002C025
:200FA90001C000C0D075D000C08675860090E6B8E0FFE4BF800104FE601990E6B9E0FDBDDC
:200FC900061190E6BAE0FCA3E0F5828C181215DE02120FEF702A90E6B9E0FDBD092290E62C
:200FE900BAE0F58212162BE582600990E6A07480F002120F90E6A07401F07481F002120F14
:20100900EE600E90E6B9E0FDBD080612160F02120F8F05BD013190E6B9E0FDBD0B2990E644
:20102900BCE0FD90E6BAE0F5178D821215C0E582600990E6A07480F002120F90E6A0740184
:20104900F07481F002120FE4BF810104FD601490E6B9E0FCBC0A0C90E6BCE0F5821215F573
:2010690002120FEF703690E6B9E0FCBC032E90E6BAE0FBA3E0FCBB010FBC000C7511019083
:20108900E6A07480F002120FBB0205BC0002800302120F90E6A07480F002120FEE60329067
:2010A900E6B9E0702CAE10E51125E0FC420690E740EEF090E741E4F090E6B504F090E68ACF
:2010C900E4F090E68B7402F090E6A07480F002120FED602890E6B9E0702290E740E4F0907E
:2010E900E741F090E6B504F090E68AE4F090E68B7402F090E6A07480F002120FBF02028015
:20110900030211B490E6B9E0FEBE03028008BE010280030211B490E6BAE0FDA3E0FE4D605E
:201129000302120F90E6BCE0F582120F34AD82AE83ED4E700302120F90E6B9E0FCBC03188F
:201149008D828E83E0FC4304018D828E83ECF090E6A07480F002120F90E6BCE0F582C006DA
:20116900C0051215EBE582D005D006700302120F8D828E83E0FC5304FE8D828E83ECF0900A
:20118900E6BCE0FDA3E08D0453040F530580E4C423CDC423541F6DCD541FCD6DCDFE90E65B
:2011A90083ED4CF0E043E020F0805BBF825290E6B9E0704C90E6BCE0F582120F34AE82AF71
:2011C900838E048F05EE4F603D8C828D83E0FC5304017F00EC4FB40100B39200E433FF90D7
:2011E900E740F090E741E4F090E6B504F090E68AE4F090E68B7402F090E6A07480F0800669
:2012090090E6B81204565391EF90E65D7401F0D086D0D0D000D001D002D003D004D005D06B
:2012290006D007D083D082D0F0D0E0D02132AE82AF837401B51328E51470248E828F83E436
:2012490093FCA3E493FD8C588D598C828D83E493FC8C5A755B0090E000120B5E02148574D4
:2012690006B5133BE51470378E828F83A3A3E493FCA3E493FD4C700A90E6A07401F0748194
:20128900F0228C028D038A588B598C828D83E493FC8C5A755B0090E000120B5E021485740E
:2012A90002B5130280030213AE8E828F83A3A3A3A3E493FDC3E5149D40030213AE8E828FF3
:2012C90083A3A3A3A3A3E493FCA3E493FDE51475F002A42CF582ED35F0F583E493FCA3E49E
:2012E90093FD74092CFAE43DFB8C008D01885889598C828D83E493F9895A755B0090E00009
:20130900C005C004C003C002120B5ED002D003D004D0058C828D83E4932400FCE434E0FD43
:201329008C158D168A828B83E493F8A3E493F98858895988828983E493F8885A755B008546
:201349001582851683C005C004C003C002120B5ED002D003D004D0058A828B83E493F8A3CC
:20136900E493F988828983E4932CFCE43DFD74022AFAE43BFB8A828B83E493F8A3E493F9D1
:2013890048709D90E002E0FAA3E0FB4A6003021485ECC39400FCED94E0FD90E002ECF0ED05
:2013A900A3F00214857403B5130474018001E4FD601EE514701A7558A27559169016A2E45C
:2013C90093FC8C5A755B0090E000120B5E021485ED700302147BAC147D00EC24FFFAED34E1
:2013E900FFFB74072EF582E43FF583E493F87900C3EA98EB648089F063F08095F05073742B
:20140900082EF582E43FF583E493FEA3E493FF1CBCFF011DEC2CFCED33FDEC2EF582ED3F0A
:20142900F583E493FEA3E493FF90E0007402F090E00104F074012401FCE434E0FD8E828F38
:2014490083E493FB60360EBE00010F8C828D83EBF074012CFAE43DFB8A828B83E4F0042A50
:20146900FCE43BFD90E000E0FB0B0B90E000EBF080CB90E6A07401F07481F0227E007FE0F5
:2014890090E6B57401F090E6B3EFF090E6B4EEF090E6A07480F022AE82AF83A3A3A3A3A3F6
:2014A900E493FCA3E493FD74042EFEE43FFF755A008E828F83E493FAC3E55A9A400122E58D
:2014C9005A75F002A42CF582ED35F0F583E493F55BA3E493F55C7409255BF8E4355CFA7566
:2014E9005E00855B82855C83A3A3A3A3A3E493F9B5120280030215B2880189828A83E493F3
:20150900F8A3E493FB88828B83A3E493FBBB043989828A83E493F55FA3E493F560855F82D8
:20152900856083A3A3E493F8B55811855F82856083A3A3A3E493F8B559028005755D00805A
:2015490003755D01855D5E8048BB0545E55E6041C004C00589828A83E493F8A3E493FB880E
:20156900828B83A3A3E493FB740F5BF8530380E423CBC423541F6BCB541FCB6BCB30E40282
:2015890044E090E683EB48F0E043E020F0D005D004740229F9E43AFA89828A83E493F8A36C
:0E15A900E493FB486003021503055A0214BACE
:0416A2000403090430
:0115B7003201
:0115B8003200
:0115B90032FF
:0115BA0032FE
:0115BB0032FD
:0115BC0032FC
:0115BD0032FB
:0115BE0032FA
:0115BF0032F9
:1915C000AF82E517700F8F58851759903E201214A07582012275820022A3
:0415D90075820022F5
:0115DD0032DB
:0C15DE00858213851814903E20021237FD
:0115EA0032CE
:0A15EB0090E6A07480F075820122E2
:1A15F50090E740E4F090E6B504F090E68AE4F090E68B04F090E6A003F0223E
:1C160F0090E740E512F090E6B57401F090E68AE4F090E68B04F090E6A003F0229D
:1E162B00E582FF6003BF01128F127558FF7559FF903E201214A07582012275820022E5
:00000001FF
