:201E00001201000200000040B40413860000010203010A06000200000040010009021200A5
:201E2000010100A0320904000000FF00000009021200010100A0320904000000FF000000C5
:201E4000040309041E0341004E0041004C004F0047002000440045005600490043004500CB
:201E600053002E034100440046003400780078007800200055005300420020004500760092
:201E800061006C00200042006F006100720064001A03300030003000300030003000300000
:0C1EA00030003000300030003000000046
:04000000020059326F
:01000B0032C2
:0100130032BA
:01001B0032B2
:0100230032AA
:01002B0032A2
:01003300329A
:01003B003292
:03004300021F0099
:01004B003282
:03005300021F0089
:0300C400020056E1
:030056000204CBD6
:2000C70075820022AF82BFDD028005BFE021800B8F1090E68BE4F0758201228F10E590546B
:2000E7000190E740F090E68B7401F07582012275820022E582600475820022AD22AE23AF85
:20010700248D828E838FF0E41208D575820122E5827004E52260047582002275820122753A
:20012700820122AF82BF01067E017F0080047E007F008E8222C0E0C082C083D2005391EFA1
:2001470090E65D7401F0D083D082D0E032C0E0C082C0835391EF90E65D7402F0D083D08203
:20016700D0E032C021C0E0C0F0C082C083C007C006C005C004C003C002C001C000C0D075BF
:20018700D0007582001207D15391EF90E65D7410F0D0D0D000D001D002D003D004D005D02E
:2001A70006D007D083D082D0F0D0E0D02132C021C0E0C0F0C082C083C007C006C005C00457
:2001C700C003C002C001C000C0D075D0007582011207D15391EF90E65D7420F0D0D0D000C1
:2001E700D001D002D003D004D005D006D007D083D082D0F0D0E0D02132AF827C437DE77E22
:20020700007B007A00C3EA9F50368A000AE854076002800F8C828D838EF0120961FB1CBC5D
:20022700FF011DEB30E7067804790080047800790088808B01E929FB4380025380FD80C5AD
:20024700438001758000227E907F1E75223075233175243275253375263475273575283676
:20026700752937752A38752B39752C41752D42752E43752F4475304575314674182EFCE4EE
:200287003FFD90E507E0FB5303F0E4C4CBC4540F6BCB540FCB6BCB30E30244F0EB2422F9D7
:2002A70087038C828D83EBF074162EFCE43FFD90E507E0FB53030FEB2422F987038C828DD5
:2002C70083EBF074142EFCE43FFD90E508E0FB5303F0E4C4CBC4540F6BCB540FCB6BCB30E5
:2002E700E30244F0EB2422F987038C828D83EBF074122EFCE43FFD90E508E0FB53030FEBB9
:200307002422F987038C828D83EBF074102EFCE43FFD90E509E0FB5303F0E4C4CBC4540F0D
:200327006BCB540FCB6BCB30E30244F0EB2422F987038C828D83EBF0740E2EFCE43FFD90CA
:20034700E509E0FB53030FEB2422F987038C828D83EBF0740C2EFCE43FFD90E50AE0FB5344
:2003670003F0E4C4CBC4540F6BCB540FCB6BCB30E30244F0EB2422F987038C828D83EBF059
:20038700740A2EFCE43FFD90E50AE0FB53030FEB2422F987038C828D83EBF074082EFCE498
:2003A7003FFD90E50BE0FB5303F0E4C4CBC4540F6BCB540FCB6BCB30E30244F0EB2422F9B2
:2003C70087038C828D83EBF074062EFCE43FFD90E50BE0FB53030FEB2422F987038C828DC0
:2003E70083EBF074042EFCE43FFD90E50CE0FB5303F0E4C4CBC4540F6BCB540FCB6BCB30D0
:20040700E30244F0EB2422F987038C828D83EBF074022EFEE43FFF90E50CE0FD53050FED99
:200427002422F987058E828F83EDF02290E60B7403F0C2007510FF75B20775800012024E16
:2004470090E680E043E00AF09005DC12090790E680E053E0F7F090E600E053E0E7F0D2E805
:2004670090E668E043E008F090E65CE043E001F090E65CE043E002F090E65CE043E020F02A
:2004870090E65CE043E010F0D2AF223000051204D3C20074DDB5102890E6A0E020E1249014
:2004A700E68BE0FFBF0408758220120200801190E68BE0FFBF050990E744E0F5821202008B
:0C04C7007510FF2212043312049280FB17
:06008800E478FFF6D8FD4C
:1200B20075120075130075142E75151E75161C75171E7D
:2004D30090E6B9E0FF24F450030205D3EF240A83F582EF241083F583E473051AD32FD3D363
:2004F30044D3546B82B5050505050505050505050505120649E58260030205E890E6A0E090
:2005130043E001F00205E81206DDE58260030205E890E6A0E043E001F00205E812074CE5D4
:200533008260030205E890E6A0E043E001F00205E81200C7E58260030205E81207FC02052D
:20055300E8120126AF8290E740EFF090E68AE4F090E68B04F00205E890E6BAE0F58212014E
:200573002AE582707090E6A0E043E001F0806690E6BCE0FF7522117523007524408F8212BA
:2005930000FAE582700A90E6A0E043E001F0804590E740E511F090E68AE4F090E68B04F038
:2005B300803390E6BCE0FF90E6BAE0F5228F82120116E582701F90E6A0E043E001F080156E
:2005D30090E6B9E0F5821200CBE582700890E6A0E043E001F090E6A0E043E080F022AF82E0
:2005F300747F5FFE24F75003020645EE240A83F582EE240D83F583E4731E22354539453DE1
:20061300454106060606060606060690E6A022EF30E7067EA27FE680047EA17FE68E828F9B
:20063300832290E6A32290E6A42290E6A52290E6A6229000002290E6B8E0FFBF800280226E
:20065300BF81028008BF820280370206D590E740E4F090E741F090E68AF090E68B7402F05C
:200673008064E51325E0FFE512420790E740EFF090E741E4F090E68AF090E68B7402F0804E
:200693004590E6BCE0F5821205F1AE82AF838E048F05EE4F7003F582228C828D83E0FC3076
:2006B300E0067E017F0080047E007F0090E740EEF090E741E4F090E68AF090E68B7402F04A
:2006D3008004758200227582012290E6B8E0FF6005BF0258801B90E6BAE0FFBF01057513CE
:2006F30000805290E6BAE0FFBF060280487582002290E6BAE0703190E6BCE0F5821205F11C
:20071300AE82AF83E0FD5305FE8E828F83EDF090E6BCE0FF30E70343071053071F90E6833B
:20073300EFF074204FF0800D7582002290E6B9E0F5820200CB7582012290E6B8E0FF60056F
:20075300BF026E802690E6BAE0FFBF02030207CD90E6BAE0FFBF0105751301805D90E6BA9E
:20077300E0FFBF060280537582002290E6BAE0703C90E6BCE0F5821205F1AE82AF83EE4FE8
:200793007003F582228E828F83E0FD4305018E828F83EDF090E6BCE0FF30E703430710531B
:2007B300071F90E683EFF074204FF0800D7582002290E6B9E0F5820200CB75820122AF8211
:2007D3007E0110AF027E00EF600E75141C75151E75162E75171E800C75142E75151E7516C5
:2007F3001C75171EEE1392AF2290E6BBE0FFBF01028019BF02028024BF0302802CBF0603B2
:200813000208AFBF07030208BF0208CC7E007F1E90E6B3EFF090E6B47400F02290E6B3E5C3
:2008330015F090E6B4E514F0227D407E1E7F8090E6BAE0F5227B00EBB5220280430B8D0052
:200853008E018F028D828E838FF012096128F8E439F9880589068A0774012DF9E43EFA8F21
:200873000489828A838CF0120961F9B9030280067D007E007F00ED4E6006C3E5229B50B78D
:20089300ED4E600F8D038E0490E6B3ECF090E6B4EDF02290E6A0E043E001F0227E127F1EF2
:2008B30090E6B3EFF090E6B47412F02290E6B3E517F090E6B4E516F02290E6A0E043E001F5
:0208D300F02211
:200066007900E94400601B7A0090098E780075921CE493F2A308B800020592D9F4DAF275AA
:0200860092FFE7
:1B08D50020F71130F6138883A88220F509F6A8837583002280FEF280F5F02222
:201F000002013C0002015400020981000209860002016A000201B50002097E000208FB005B
:201F20000208FD000208FE000208FF000209020002098C0002098D000208F0000208F20057
:201F4000020983000208FB0002097D0002097F0002098000020982000209840002098500A5
:201F6000020960000208FB000208FB000208FB000208FC00020900000209030002090500B8
:201F800002090100020904000209060002095F000208F3000208F5000208F7000208F900AB
:181FA0000208F4000208F6000208F8000208FA000208F10002098B0094
:0108F00032D5
:0108F10032D4
:0108F20032D3
:0108F30032D2
:0108F40032D1
:20008E007800E84400600A790075921CE4F309D8FC7800E84400600C7900901C00E4F0A348
:0400AE00D8FCD9FAA7
:0108F50032D0
:0108F60032CF
:0108F70032CE
:0108F80032CD
:0108F90032CC
:0108FA0032CB
:0108FB0032CA
:0108FC0032C9
:0108FD0032C8
:0108FE0032C7
:0108FF0032C6
:0109000032C4
:0109010032C3
:0109020032C2
:0109030032C1
:0109040032C0
:0109050032BF
:0109060032BE
:20090700AE82AF8390E600E05418C423541F70057CB1FD801C90E600E05418C423541FFB00
:20092700BB01067A617B0180047AC27B028A048B058C228D23E52224FFFAE52334FFFB8AFA
:18094700228B23EA4B70EEEE24FFFAEF34FFFB8A068B07EA4B70DA224A
:01095F003265
:010960003264
:0D005900758131120987E5826003020056AF
:1C09610020F71430F6148883A88220F507E6A88375830022E280F7E49322E022A5
:01097D003247
:01097E003246
:01097F003245
:010980003244
:010981003243
:010982003242
:010983003241
:010984003240
:01098500323F
:01098600323E
:040987007582002253
:01098B003239
:01098C003238
:01098D003237
:00000001FF
